{
  "contractName": "BlockFeit",
  "abi": [
    {
      "constant": true,
      "inputs": [],
      "name": "val",
      "outputs": [
        {
          "name": "",
          "type": "uint256"
        }
      ],
      "payable": false,
      "stateMutability": "view",
      "type": "function",
      "signature": "0x3c6bb436"
    },
    {
      "inputs": [],
      "payable": false,
      "stateMutability": "nonpayable",
      "type": "constructor",
      "signature": "constructor"
    },
    {
      "constant": false,
      "inputs": [
        {
          "name": "_x",
          "type": "uint256"
        }
      ],
      "name": "setVal",
      "outputs": [],
      "payable": false,
      "stateMutability": "nonpayable",
      "type": "function",
      "signature": "0x3d4197f0"
    },
    {
      "constant": false,
      "inputs": [
        {
          "name": "_manufacturer",
          "type": "string"
        },
        {
          "name": "_location",
          "type": "string"
        },
        {
          "name": "_brand",
          "type": "string"
        }
      ],
      "name": "addManufacturer",
      "outputs": [],
      "payable": false,
      "stateMutability": "nonpayable",
      "type": "function",
      "signature": "0xbc544e7d"
    },
    {
      "constant": false,
      "inputs": [
        {
          "name": "_id",
          "type": "string"
        },
        {
          "name": "_name",
          "type": "string"
        },
        {
          "name": "_phone_no",
          "type": "string"
        },
        {
          "name": "_email",
          "type": "string"
        },
        {
          "name": "_location",
          "type": "string"
        }
      ],
      "name": "addRetailer",
      "outputs": [],
      "payable": false,
      "stateMutability": "nonpayable",
      "type": "function",
      "signature": "0x619cce0f"
    },
    {
      "constant": false,
      "inputs": [
        {
          "name": "_id",
          "type": "string"
        },
        {
          "name": "_name",
          "type": "string"
        },
        {
          "name": "_phone_no",
          "type": "string"
        },
        {
          "name": "_email",
          "type": "string"
        }
      ],
      "name": "addCustomer",
      "outputs": [],
      "payable": false,
      "stateMutability": "nonpayable",
      "type": "function",
      "signature": "0x5c025f94"
    },
    {
      "constant": false,
      "inputs": [
        {
          "name": "_id",
          "type": "string"
        },
        {
          "name": "_quantity",
          "type": "uint256"
        }
      ],
      "name": "sellProductsToRetailer",
      "outputs": [
        {
          "name": "",
          "type": "string"
        }
      ],
      "payable": false,
      "stateMutability": "nonpayable",
      "type": "function",
      "signature": "0x1b412927"
    },
    {
      "constant": false,
      "inputs": [
        {
          "name": "_seller_id",
          "type": "string"
        },
        {
          "name": "_customer_id",
          "type": "string"
        }
      ],
      "name": "sellProductToCustomer",
      "outputs": [],
      "payable": false,
      "stateMutability": "nonpayable",
      "type": "function",
      "signature": "0xffad4f0d"
    },
    {
      "constant": false,
      "inputs": [
        {
          "name": "_id",
          "type": "string"
        },
        {
          "name": "_name",
          "type": "string"
        },
        {
          "name": "_width",
          "type": "string"
        },
        {
          "name": "_height",
          "type": "string"
        },
        {
          "name": "_time_stamp",
          "type": "string"
        },
        {
          "name": "_batch",
          "type": "string"
        },
        {
          "name": "_owner",
          "type": "string"
        }
      ],
      "name": "addProduct",
      "outputs": [],
      "payable": false,
      "stateMutability": "nonpayable",
      "type": "function",
      "signature": "0x67a6377a"
    },
    {
      "constant": true,
      "inputs": [
        {
          "name": "_product_id",
          "type": "string"
        }
      ],
      "name": "getProductDetail",
      "outputs": [
        {
          "name": "",
          "type": "string"
        },
        {
          "name": "",
          "type": "string"
        },
        {
          "name": "",
          "type": "string"
        },
        {
          "name": "",
          "type": "string"
        },
        {
          "name": "",
          "type": "string"
        },
        {
          "name": "",
          "type": "string"
        },
        {
          "name": "",
          "type": "string"
        }
      ],
      "payable": false,
      "stateMutability": "view",
      "type": "function",
      "signature": "0xee786260"
    },
    {
      "constant": true,
      "inputs": [
        {
          "name": "_retailer_id",
          "type": "string"
        }
      ],
      "name": "getRetailerProductCount",
      "outputs": [
        {
          "name": "",
          "type": "uint256"
        }
      ],
      "payable": false,
      "stateMutability": "view",
      "type": "function",
      "signature": "0x3215769e"
    },
    {
      "constant": true,
      "inputs": [
        {
          "name": "_customer_id",
          "type": "string"
        }
      ],
      "name": "getCustomerProductCount",
      "outputs": [
        {
          "name": "",
          "type": "uint256"
        }
      ],
      "payable": false,
      "stateMutability": "view",
      "type": "function",
      "signature": "0x301574c0"
    },
    {
      "constant": true,
      "inputs": [],
      "name": "getManufacturerCount",
      "outputs": [
        {
          "name": "",
          "type": "uint256"
        }
      ],
      "payable": false,
      "stateMutability": "view",
      "type": "function",
      "signature": "0xa9416c9e"
    },
    {
      "constant": true,
      "inputs": [
        {
          "name": "retailer_id",
          "type": "string"
        }
      ],
      "name": "getRetailerDetails",
      "outputs": [
        {
          "name": "",
          "type": "string"
        },
        {
          "name": "",
          "type": "string"
        },
        {
          "name": "",
          "type": "string"
        },
        {
          "name": "",
          "type": "string"
        },
        {
          "name": "",
          "type": "string"
        },
        {
          "name": "",
          "type": "uint256"
        }
      ],
      "payable": false,
      "stateMutability": "view",
      "type": "function",
      "signature": "0xea788dd1"
    },
    {
      "constant": true,
      "inputs": [
        {
          "name": "product_id",
          "type": "string"
        }
      ],
      "name": "getOwnerOfProduct",
      "outputs": [
        {
          "name": "",
          "type": "string"
        },
        {
          "name": "",
          "type": "string"
        }
      ],
      "payable": false,
      "stateMutability": "view",
      "type": "function",
      "signature": "0x9fd42e64"
    },
    {
      "constant": true,
      "inputs": [
        {
          "name": "product_id",
          "type": "string"
        },
        {
          "name": "owner_id",
          "type": "string"
        }
      ],
      "name": "verifyOwnership",
      "outputs": [
        {
          "name": "",
          "type": "bool"
        }
      ],
      "payable": false,
      "stateMutability": "view",
      "type": "function",
      "signature": "0xc196b082"
    }
  ],
  "bytecode": "0x600a601c5560c0604052601760808190527f52657461696c657220446f6573206e6f7420457869737400000000000000000060a090815262000045916020919062000064565b503480156200005357600080fd5b506000600281905560045562000109565b828054600181600116156101000203166002900490600052602060002090601f016020900481019282601f10620000a757805160ff1916838001178555620000d7565b82800160010185558215620000d7579182015b82811115620000d7578251825591602001919060010190620000ba565b50620000e5929150620000e9565b5090565b6200010691905b80821115620000e55760008155600101620000f0565b90565b614fc480620001196000396000f3fe6080604052600436106100da5763ffffffff7c01000000000000000000000000000000000000000000000000000000006000350416631b41292781146100df578063301574c0146102095780633215769e146102ce5780633c6bb436146103815780633d4197f0146103965780635c025f94146103c2578063619cce0f1461060a57806367a6377a146108d95780639fd42e6414610cb6578063a9416c9e14610e47578063bc544e7d14610e5c578063c196b0821461101d578063ea788dd11461116b578063ee78626014611435578063ffad4f0d146117c7575b600080fd5b3480156100eb57600080fd5b506101946004803603604081101561010257600080fd5b81019060208101813564010000000081111561011d57600080fd5b82018360208201111561012f57600080fd5b8035906020019184600183028401116401000000008311171561015157600080fd5b91908080601f0160208091040260200160405190810160405280939291908181526020018383808284376000920191909152509295505091359250611901915050565b6040805160208082528351818301528351919283929083019185019080838360005b838110156101ce5781810151838201526020016101b6565b50505050905090810190601f1680156101fb5780820380516001836020036101000a031916815260200191505b509250505060405180910390f35b34801561021557600080fd5b506102bc6004803603602081101561022c57600080fd5b81019060208101813564010000000081111561024757600080fd5b82018360208201111561025957600080fd5b8035906020019184600183028401116401000000008311171561027b57600080fd5b91908080601f016020809104026020016040519081016040528093929190818152602001838380828437600092019190915250929550612c57945050505050565b60408051918252519081900360200190f35b3480156102da57600080fd5b506102bc600480360360208110156102f157600080fd5b81019060208101813564010000000081111561030c57600080fd5b82018360208201111561031e57600080fd5b8035906020019184600183028401116401000000008311171561034057600080fd5b91908080601f016020809104026020016040519081016040528093929190818152602001838380828437600092019190915250929550612cc2945050505050565b34801561038d57600080fd5b506102bc612d2d565b3480156103a257600080fd5b506103c0600480360360208110156103b957600080fd5b5035612d33565b005b3480156103ce57600080fd5b506103c0600480360360808110156103e557600080fd5b81019060208101813564010000000081111561040057600080fd5b82018360208201111561041257600080fd5b8035906020019184600183028401116401000000008311171561043457600080fd5b91908080601f016020809104026020016040519081016040528093929190818152602001838380828437600092019190915250929594936020810193503591505064010000000081111561048757600080fd5b82018360208201111561049957600080fd5b803590602001918460018302840111640100000000831117156104bb57600080fd5b91908080601f016020809104026020016040519081016040528093929190818152602001838380828437600092019190915250929594936020810193503591505064010000000081111561050e57600080fd5b82018360208201111561052057600080fd5b8035906020019184600183028401116401000000008311171561054257600080fd5b91908080601f016020809104026020016040519081016040528093929190818152602001838380828437600092019190915250929594936020810193503591505064010000000081111561059557600080fd5b8201836020820111156105a757600080fd5b803590602001918460018302840111640100000000831117156105c957600080fd5b91908080601f016020809104026020016040519081016040528093929190818152602001838380828437600092019190915250929550612d38945050505050565b34801561061657600080fd5b506103c0600480360360a081101561062d57600080fd5b81019060208101813564010000000081111561064857600080fd5b82018360208201111561065a57600080fd5b8035906020019184600183028401116401000000008311171561067c57600080fd5b91908080601f01602080910402602001604051908101604052809392919081815260200183838082843760009201919091525092959493602081019350359150506401000000008111156106cf57600080fd5b8201836020820111156106e157600080fd5b8035906020019184600183028401116401000000008311171561070357600080fd5b91908080601f016020809104026020016040519081016040528093929190818152602001838380828437600092019190915250929594936020810193503591505064010000000081111561075657600080fd5b82018360208201111561076857600080fd5b8035906020019184600183028401116401000000008311171561078a57600080fd5b91908080601f01602080910402602001604051908101604052809392919081815260200183838082843760009201919091525092959493602081019350359150506401000000008111156107dd57600080fd5b8201836020820111156107ef57600080fd5b8035906020019184600183028401116401000000008311171561081157600080fd5b91908080601f016020809104026020016040519081016040528093929190818152602001838380828437600092019190915250929594936020810193503591505064010000000081111561086457600080fd5b82018360208201111561087657600080fd5b8035906020019184600183028401116401000000008311171561089857600080fd5b91908080601f016020809104026020016040519081016040528093929190818152602001838380828437600092019190915250929550612eb5945050505050565b3480156108e557600080fd5b506103c0600480360360e08110156108fc57600080fd5b81019060208101813564010000000081111561091757600080fd5b82018360208201111561092957600080fd5b8035906020019184600183028401116401000000008311171561094b57600080fd5b91908080601f016020809104026020016040519081016040528093929190818152602001838380828437600092019190915250929594936020810193503591505064010000000081111561099e57600080fd5b8201836020820111156109b057600080fd5b803590602001918460018302840111640100000000831117156109d257600080fd5b91908080601f0160208091040260200160405190810160405280939291908181526020018383808284376000920191909152509295949360208101935035915050640100000000811115610a2557600080fd5b820183602082011115610a3757600080fd5b80359060200191846001830284011164010000000083111715610a5957600080fd5b91908080601f0160208091040260200160405190810160405280939291908181526020018383808284376000920191909152509295949360208101935035915050640100000000811115610aac57600080fd5b820183602082011115610abe57600080fd5b80359060200191846001830284011164010000000083111715610ae057600080fd5b91908080601f0160208091040260200160405190810160405280939291908181526020018383808284376000920191909152509295949360208101935035915050640100000000811115610b3357600080fd5b820183602082011115610b4557600080fd5b80359060200191846001830284011164010000000083111715610b6757600080fd5b91908080601f0160208091040260200160405190810160405280939291908181526020018383808284376000920191909152509295949360208101935035915050640100000000811115610bba57600080fd5b820183602082011115610bcc57600080fd5b80359060200191846001830284011164010000000083111715610bee57600080fd5b91908080601f0160208091040260200160405190810160405280939291908181526020018383808284376000920191909152509295949360208101935035915050640100000000811115610c4157600080fd5b820183602082011115610c5357600080fd5b80359060200191846001830284011164010000000083111715610c7557600080fd5b91908080601f0160208091040260200160405190810160405280939291908181526020018383808284376000920191909152509295506130a3945050505050565b348015610cc257600080fd5b50610d6960048036036020811015610cd957600080fd5b810190602081018135640100000000811115610cf457600080fd5b820183602082011115610d0657600080fd5b80359060200191846001830284011164010000000083111715610d2857600080fd5b91908080601f016020809104026020016040519081016040528093929190818152602001838380828437600092019190915250929550613307945050505050565b604051808060200180602001838103835285818151815260200191508051906020019080838360005b83811015610daa578181015183820152602001610d92565b50505050905090810190601f168015610dd75780820380516001836020036101000a031916815260200191505b50838103825284518152845160209182019186019080838360005b83811015610e0a578181015183820152602001610df2565b50505050905090810190601f168015610e375780820380516001836020036101000a031916815260200191505b5094505050505060405180910390f35b348015610e5357600080fd5b506102bc6134fe565b348015610e6857600080fd5b506103c060048036036060811015610e7f57600080fd5b810190602081018135640100000000811115610e9a57600080fd5b820183602082011115610eac57600080fd5b80359060200191846001830284011164010000000083111715610ece57600080fd5b91908080601f0160208091040260200160405190810160405280939291908181526020018383808284376000920191909152509295949360208101935035915050640100000000811115610f2157600080fd5b820183602082011115610f3357600080fd5b80359060200191846001830284011164010000000083111715610f5557600080fd5b91908080601f0160208091040260200160405190810160405280939291908181526020018383808284376000920191909152509295949360208101935035915050640100000000811115610fa857600080fd5b820183602082011115610fba57600080fd5b80359060200191846001830284011164010000000083111715610fdc57600080fd5b91908080601f016020809104026020016040519081016040528093929190818152602001838380828437600092019190915250929550613509945050505050565b34801561102957600080fd5b506111576004803603604081101561104057600080fd5b81019060208101813564010000000081111561105b57600080fd5b82018360208201111561106d57600080fd5b8035906020019184600183028401116401000000008311171561108f57600080fd5b91908080601f01602080910402602001604051908101604052809392919081815260200183838082843760009201919091525092959493602081019350359150506401000000008111156110e257600080fd5b8201836020820111156110f457600080fd5b8035906020019184600183028401116401000000008311171561111657600080fd5b91908080601f01602080910402602001604051908101604052809392919081815260200183838082843760009201919091525092955061354a945050505050565b604080519115158252519081900360200190f35b34801561117757600080fd5b5061121e6004803603602081101561118e57600080fd5b8101906020810181356401000000008111156111a957600080fd5b8201836020820111156111bb57600080fd5b803590602001918460018302840111640100000000831117156111dd57600080fd5b91908080601f01602080910402602001604051908101604052809392919081815260200183838082843760009201919091525092955061362d945050505050565b60405180806020018060200180602001806020018060200187815260200186810386528c818151815260200191508051906020019080838360005b83811015611271578181015183820152602001611259565b50505050905090810190601f16801561129e5780820380516001836020036101000a031916815260200191505b5086810385528b5181528b516020918201918d019080838360005b838110156112d15781810151838201526020016112b9565b50505050905090810190601f1680156112fe5780820380516001836020036101000a031916815260200191505b5086810384528a5181528a516020918201918c019080838360005b83811015611331578181015183820152602001611319565b50505050905090810190601f16801561135e5780820380516001836020036101000a031916815260200191505b5086810383528951815289516020918201918b019080838360005b83811015611391578181015183820152602001611379565b50505050905090810190601f1680156113be5780820380516001836020036101000a031916815260200191505b5086810382528851815288516020918201918a019080838360005b838110156113f15781810151838201526020016113d9565b50505050905090810190601f16801561141e5780820380516001836020036101000a031916815260200191505b509b50505050505050505050505060405180910390f35b34801561144157600080fd5b506114e86004803603602081101561145857600080fd5b81019060208101813564010000000081111561147357600080fd5b82018360208201111561148557600080fd5b803590602001918460018302840111640100000000831117156114a757600080fd5b91908080601f016020809104026020016040519081016040528093929190818152602001838380828437600092019190915250929550613b79945050505050565b604051808060200180602001806020018060200180602001806020018060200188810388528f818151815260200191508051906020019080838360005b8381101561153d578181015183820152602001611525565b50505050905090810190601f16801561156a5780820380516001836020036101000a031916815260200191505b5088810387528e818151815260200191508051906020019080838360005b838110156115a0578181015183820152602001611588565b50505050905090810190601f1680156115cd5780820380516001836020036101000a031916815260200191505b5088810386528d5181528d516020918201918f019080838360005b838110156116005781810151838201526020016115e8565b50505050905090810190601f16801561162d5780820380516001836020036101000a031916815260200191505b5088810385528c5181528c516020918201918e019080838360005b83811015611660578181015183820152602001611648565b50505050905090810190601f16801561168d5780820380516001836020036101000a031916815260200191505b5088810384528b5181528b516020918201918d019080838360005b838110156116c05781810151838201526020016116a8565b50505050905090810190601f1680156116ed5780820380516001836020036101000a031916815260200191505b5088810383528a5181528a516020918201918c019080838360005b83811015611720578181015183820152602001611708565b50505050905090810190601f16801561174d5780820380516001836020036101000a031916815260200191505b5088810382528951815289516020918201918b019080838360005b83811015611780578181015183820152602001611768565b50505050905090810190601f1680156117ad5780820380516001836020036101000a031916815260200191505b509e50505050505050505050505050505060405180910390f35b3480156117d357600080fd5b506103c0600480360360408110156117ea57600080fd5b81019060208101813564010000000081111561180557600080fd5b82018360208201111561181757600080fd5b8035906020019184600183028401116401000000008311171561183957600080fd5b91908080601f016020809104026020016040519081016040528093929190818152602001838380828437600092019190915250929594936020810193503591505064010000000081111561188c57600080fd5b82018360208201111561189e57600080fd5b803590602001918460018302840111640100000000831117156118c057600080fd5b91908080601f01602080910402602001604051908101604052809392919081815260200183838082843760009201919091525092955061424e945050505050565b606061190b614bbf565b601e846040518082805190602001908083835b6020831061193d5780518252601f19909201916020918201910161191e565b518151600019602094850361010090810a820192831692199390931691909117909252949092019687526040805197889003820188208054610140601f6002600184161590990290960190911696909604938401839004909202880185019052610120870182815290955086945092859250840182828015611a005780601f106119d557610100808354040283529160200191611a00565b820191906000526020600020905b8154815290600101906020018083116119e357829003601f168201915b50505050508152602001600182018054600181600116156101000203166002900480601f016020809104026020016040519081016040528092919081815260200182805460018160011615610100020316600290048015611aa25780601f10611a7757610100808354040283529160200191611aa2565b820191906000526020600020905b815481529060010190602001808311611a8557829003601f168201915b5050509183525050600282810180546040805160206001841615610100026000190190931694909404601f81018390048302850183019091528084529381019390830182828015611b345780601f10611b0957610100808354040283529160200191611b34565b820191906000526020600020905b815481529060010190602001808311611b1757829003601f168201915b505050918352505060038201805460408051602060026001851615610100026000190190941693909304601f8101849004840282018401909252818152938201939291830182828015611bc85780601f10611b9d57610100808354040283529160200191611bc8565b820191906000526020600020905b815481529060010190602001808311611bab57829003601f168201915b505050918352505060048201805460408051602060026001851615610100026000190190941693909304601f8101849004840282018401909252818152938201939291830182828015611c5c5780601f10611c3157610100808354040283529160200191611c5c565b820191906000526020600020905b815481529060010190602001808311611c3f57829003601f168201915b50505050508152602001600582015481526020016006820154815260200160078201805480602002602001604051908101604052809291908181526020016000905b828210156120e257600084815260209081902060408051600786029092018054600260018216156101009081026000190190921604601f81018690049095028401810190925260e0830184815292939092849290918491840182828015611d465780601f10611d1b57610100808354040283529160200191611d46565b820191906000526020600020905b815481529060010190602001808311611d2957829003601f168201915b50505050508152602001600182018054600181600116156101000203166002900480601f016020809104026020016040519081016040528092919081815260200182805460018160011615610100020316600290048015611de85780601f10611dbd57610100808354040283529160200191611de8565b820191906000526020600020905b815481529060010190602001808311611dcb57829003601f168201915b5050509183525050600282810180546040805160206001841615610100026000190190931694909404601f81018390048302850183019091528084529381019390830182828015611e7a5780601f10611e4f57610100808354040283529160200191611e7a565b820191906000526020600020905b815481529060010190602001808311611e5d57829003601f168201915b505050918352505060038201805460408051602060026001851615610100026000190190941693909304601f8101849004840282018401909252818152938201939291830182828015611f0e5780601f10611ee357610100808354040283529160200191611f0e565b820191906000526020600020905b815481529060010190602001808311611ef157829003601f168201915b505050918352505060048201805460408051602060026001851615610100026000190190941693909304601f8101849004840282018401909252818152938201939291830182828015611fa25780601f10611f7757610100808354040283529160200191611fa2565b820191906000526020600020905b815481529060010190602001808311611f8557829003601f168201915b505050918352505060058201805460408051602060026001851615610100026000190190941693909304601f81018490048402820184019092528181529382019392918301828280156120365780601f1061200b57610100808354040283529160200191612036565b820191906000526020600020905b81548152906001019060200180831161201957829003601f168201915b505050918352505060068201805460408051602060026001851615610100026000190190941693909304601f81018490048402820184019092528181529382019392918301828280156120ca5780601f1061209f576101008083540402835291602001916120ca565b820191906000526020600020905b8154815290600101906020018083116120ad57829003601f168201915b50505050508152505081526020019060010190611c9e565b505050908252506008919091015460ff161515602090910152601b5460045491925090840111156121e3576040805180820190915260158082527f496e73756666696369656e742070726f64756374730000000000000000000000602092830190815261214f9291614c0e565b506020805460408051601f600260001961010060018716150201909416939093049283018490048402810184019091528181529190828201828280156121d65780601f106121ab576101008083540402835291602001916121d6565b820191906000526020600020905b8154815290600101906020018083116121b957829003601f168201915b5050505050915050612c51565b610100810151151561224a576020805460408051601f600260001961010060018716150201909416939093049283018490048402810184019091528181529190828201828280156121d65780601f106121ab576101008083540402835291602001916121d6565b61225660136000614c8c565b8051805161226c91600c91602090910190614c0e565b50602080820151805161228392600d920190614c0e565b506040810151805161229d91600e91602090910190614c0e565b50606081015180516122b791600f91602090910190614c0e565b50608081015180516122d191601091602090910190614c0e565b506014805460ff1916600117905560005b8160e001515181101561241e576122f7614cb0565b60e083015180518390811061230857fe5b6020908102909101810151601380546001810180835560009290925282518051939550919385936007929092027f66de8ffda797e3de9c05e8fc57b3bf0ec28a930d40b0d285d93c06501cf6a09001926123689284929190910190614c0e565b5060208281015180516123819260018501920190614c0e565b506040820151805161239d916002840191602090910190614c0e565b50606082015180516123b9916003840191602090910190614c0e565b50608082015180516123d5916004840191602090910190614c0e565b5060a082015180516123f1916005840191602090910190614c0e565b5060c0820151805161240d916006840191602090910190614c0e565b5050600190930192506122e2915050565b5060005b83811015612a0c57612432614cb0565b601b60045481548110151561244357fe5b6000918252602091829020604080516007939093029091018054600260018216156101009081026000190190921604601f81018690049095028401810190925260e08301848152929390928492909184918401828280156124e55780601f106124ba576101008083540402835291602001916124e5565b820191906000526020600020905b8154815290600101906020018083116124c857829003601f168201915b50505050508152602001600182018054600181600116156101000203166002900480601f0160208091040260200160405190810160405280929190818152602001828054600181600116156101000203166002900480156125875780601f1061255c57610100808354040283529160200191612587565b820191906000526020600020905b81548152906001019060200180831161256a57829003601f168201915b5050509183525050600282810180546040805160206001841615610100026000190190931694909404601f810183900483028501830190915280845293810193908301828280156126195780601f106125ee57610100808354040283529160200191612619565b820191906000526020600020905b8154815290600101906020018083116125fc57829003601f168201915b505050918352505060038201805460408051602060026001851615610100026000190190941693909304601f81018490048402820184019092528181529382019392918301828280156126ad5780601f10612682576101008083540402835291602001916126ad565b820191906000526020600020905b81548152906001019060200180831161269057829003601f168201915b505050918352505060048201805460408051602060026001851615610100026000190190941693909304601f81018490048402820184019092528181529382019392918301828280156127415780601f1061271657610100808354040283529160200191612741565b820191906000526020600020905b81548152906001019060200180831161272457829003601f168201915b505050918352505060058201805460408051602060026001851615610100026000190190941693909304601f81018490048402820184019092528181529382019392918301828280156127d55780601f106127aa576101008083540402835291602001916127d5565b820191906000526020600020905b8154815290600101906020018083116127b857829003601f168201915b505050918352505060068201805460408051602060026001851615610100026000190190941693909304601f81018490048402820184019092528181529382019392918301828280156128695780601f1061283e57610100808354040283529160200191612869565b820191906000526020600020905b81548152906001019060200180831161284c57829003601f168201915b5050505050815250509050858160c0018190525085601f82600001516040518082805190602001908083835b602083106128b45780518252601f199092019160209182019101612895565b51815160209384036101000a600019018019909216911617905292019485525060405193849003810190932084516128f9956006909201949190910192509050614c0e565b506004805460019081019091556013805491820180825560009190915282518051919284926007919091027f66de8ffda797e3de9c05e8fc57b3bf0ec28a930d40b0d285d93c06501cf6a090019161295691839160200190614c0e565b50602082810151805161296f9260018501920190614c0e565b506040820151805161298b916002840191602090910190614c0e565b50606082015180516129a7916003840191602090910190614c0e565b50608082015180516129c3916004840191602090910190614c0e565b5060a082015180516129df916005840191602090910190614c0e565b5060c082015180516129fb916006840191602090910190614c0e565b505060019093019250612422915050565b50600c601e856040518082805190602001908083835b60208310612a415780518252601f199092019160209182019101612a22565b6001836020036101000a038019825116818451168082178552505050505050905001915050908152602001604051809103902060008201816000019080546001816001161561010002031660029004612a9b929190614cee565b5060018201816001019080546001816001161561010002031660029004612ac3929190614cee565b5060028281018054612ae8928481019291600019610100600183161502011604614cee565b5060038201816003019080546001816001161561010002031660029004612b10929190614cee565b5060048201816004019080546001816001161561010002031660029004612b38929190614cee565b5060058201548160050155600682015481600601556007820181600701908054612b63929190614d63565b506008918201549101805460ff191660ff909216151591909117905560408051808201909152601c8082527f50726f647563746573204164646564207375636365737366756c6c79000000006020928301908152612bc19291614c0e565b506020805460408051601f60026000196101006001871615020190941693909304928301849004840281018401909152818152919082820182828015612c485780601f10612c1d57610100808354040283529160200191612c48565b820191906000526020600020905b815481529060010190602001808311612c2b57829003601f168201915b50505050509150505b92915050565b6000601d826040518082805190602001908083835b60208310612c8b5780518252601f199092019160209182019101612c6c565b51815160209384036101000a6000190180199092169116179052920194855250604051938490030190922060040154949350505050565b6000601e826040518082805190602001908083835b60208310612cf65780518252601f199092019160209182019101612cd7565b51815160209384036101000a6000190180199092169116179052920194855250604051938490030190922060070154949350505050565b601c5481565b601c55565b8351612d4b906015906020870190614c0e565b508251612d5f906016906020860190614c0e565b508151612d73906017906020850190614c0e565b508051612d87906018906020840190614c0e565b50612d9460196000614c8c565b6015601d856040518082805190602001908083835b60208310612dc85780518252601f199092019160209182019101612da9565b6001836020036101000a038019825116818451168082178552505050505050905001915050908152602001604051809103902060008201816000019080546001816001161561010002031660029004612e22929190614cee565b5060018201816001019080546001816001161561010002031660029004612e4a929190614cee565b5060028281018054612e6f928481019291600019610100600183161502011604614cee565b5060038201816003019080546001816001161561010002031660029004612e97929190614cee565b5060048281018054612eac9284019190614d63565b50505050505050565b8451612ec890600c906020880190614c0e565b508351612edc90600d906020870190614c0e565b508251612ef090600e906020860190614c0e565b508151612f0490600f906020850190614c0e565b508051612f18906010906020840190614c0e565b506014805460ff191660011790556040518551600c91601e91889190819060208401908083835b60208310612f5e5780518252601f199092019160209182019101612f3f565b6001836020036101000a038019825116818451168082178552505050505050905001915050908152602001604051809103902060008201816000019080546001816001161561010002031660029004612fb8929190614cee565b5060018201816001019080546001816001161561010002031660029004612fe0929190614cee565b5060028281018054613005928481019291600019610100600183161502011604614cee565b506003820181600301908054600181600116156101000203166002900461302d929190614cee565b5060048201816004019080546001816001161561010002031660029004613055929190614cee565b5060058201548160050155600682015481600601556007820181600701908054613080929190614d63565b506008918201549101805460ff191660ff90921615159190911790555050505050565b6130ab614cb0565b87815260208082018890526040808301889052606083018790526080830186905260a0830185905260c083018490526002805460010190555189518392601f928c9290918291908401908083835b602083106131185780518252601f1990920191602091820191016130f9565b51815160209384036101000a600019018019909216911617905292019485525060405193849003810190932084518051919461315994508593500190614c0e565b5060208281015180516131729260018501920190614c0e565b506040820151805161318e916002840191602090910190614c0e565b50606082015180516131aa916003840191602090910190614c0e565b50608082015180516131c6916004840191602090910190614c0e565b5060a082015180516131e2916005840191602090910190614c0e565b5060c082015180516131fe916006840191602090910190614c0e565b5050601b80546001810180835560009290925283518051929350849260079092027f3ad8aa4f87544323a9d1e5dd902f40c356527a7955687113db5f9a85ad579dc1019161325491839160209190910190614c0e565b50602082810151805161326d9260018501920190614c0e565b5060408201518051613289916002840191602090910190614c0e565b50606082015180516132a5916003840191602090910190614c0e565b50608082015180516132c1916004840191602090910190614c0e565b5060a082015180516132dd916005840191602090910190614c0e565b5060c082015180516132f9916006840191602090910190614c0e565b505050505050505050505050565b606080601f836040518082805190602001908083835b6020831061333c5780518252601f19909201916020918201910161331d565b6001836020036101000a0380198251168184511680821785525050505050509050019150509081526020016040518091039020600101601f846040518082805190602001908083835b602083106133a45780518252601f199092019160209182019101613385565b518151600019602094850361010090810a820192831692199390931691909117909252949092019687526040805197889003820188208954601f600260018316159098029095011695909504928301829004820288018201905281875260069093019594508693509184019050828280156134605780601f1061343557610100808354040283529160200191613460565b820191906000526020600020905b81548152906001019060200180831161344357829003601f168201915b5050845460408051602060026001851615610100026000190190941693909304601f8101849004840282018401909252818152959750869450925084019050828280156134ee5780601f106134c3576101008083540402835291602001916134ee565b820191906000526020600020905b8154815290600101906020018083116134d157829003601f168201915b5050505050905091509150915091565b600454600254035b90565b825161351c906003906020860190614c0e565b508151613530906001906020850190614c0e565b508051613544906000906020840190614c0e565b50505050565b60008180519060200120601f846040518082805190602001908083835b602083106135865780518252601f199092019160209182019101613567565b6001836020036101000a038019825116818451168082178552505050505050905001915050908152602001604051809103902060060160405180828054600181600116156101000203166002900480156136175780601f106135f5576101008083540402835291820191613617565b820191906000526020600020905b815481529060010190602001808311613603575b5050915050604051809103902014905092915050565b60608060608060606000601e876040518082805190602001908083835b602083106136695780518252601f19909201916020918201910161364a565b51815160209384036101000a600019018019909216911617905292019485525060405193849003810184208b519094601e94508c9350918291908401908083835b602083106136c95780518252601f1990920191602091820191016136aa565b6001836020036101000a0380198251168184511680821785525050505050509050019150509081526020016040518091039020600101601e896040518082805190602001908083835b602083106137315780518252601f199092019160209182019101613712565b6001836020036101000a0380198251168184511680821785525050505050509050019150509081526020016040518091039020600201601e8a6040518082805190602001908083835b602083106137995780518252601f19909201916020918201910161377a565b6001836020036101000a0380198251168184511680821785525050505050509050019150509081526020016040518091039020600301601e8b6040518082805190602001908083835b602083106138015780518252601f1990920191602091820191016137e2565b6001836020036101000a0380198251168184511680821785525050505050509050019150509081526020016040518091039020600401601e8c6040518082805190602001908083835b602083106138695780518252601f19909201916020918201910161384a565b518151600019602094850361010090810a82019283169219939093169190911790925294909201968752604080519788900382018820600701548d54601f6002600183161590980290950116959095049283018290048202880182019052818752929594508a93509184019050828280156139255780601f106138fa57610100808354040283529160200191613925565b820191906000526020600020905b81548152906001019060200180831161390857829003601f168201915b5050885460408051602060026001851615610100026000190190941693909304601f8101849004840282018401909252818152959b508a9450925084019050828280156139b35780601f10613988576101008083540402835291602001916139b3565b820191906000526020600020905b81548152906001019060200180831161399657829003601f168201915b5050875460408051602060026001851615610100026000190190941693909304601f8101849004840282018401909252818152959a5089945092508401905082828015613a415780601f10613a1657610100808354040283529160200191613a41565b820191906000526020600020905b815481529060010190602001808311613a2457829003601f168201915b5050865460408051602060026001851615610100026000190190941693909304601f810184900484028201840190925281815295995088945092508401905082828015613acf5780601f10613aa457610100808354040283529160200191613acf565b820191906000526020600020905b815481529060010190602001808311613ab257829003601f168201915b5050855460408051602060026001851615610100026000190190941693909304601f810184900484028201840190925281815295985087945092508401905082828015613b5d5780601f10613b3257610100808354040283529160200191613b5d565b820191906000526020600020905b815481529060010190602001808311613b4057829003601f168201915b5050505050915095509550955095509550955091939550919395565b6060806060806060806060601f886040518082805190602001908083835b60208310613bb65780518252601f199092019160209182019101613b97565b51815160209384036101000a600019018019909216911617905292019485525060405193849003810184208c519094601f94508d9350918291908401908083835b60208310613c165780518252601f199092019160209182019101613bf7565b6001836020036101000a0380198251168184511680821785525050505050509050019150509081526020016040518091039020600101601f8a6040518082805190602001908083835b60208310613c7e5780518252601f199092019160209182019101613c5f565b6001836020036101000a0380198251168184511680821785525050505050509050019150509081526020016040518091039020600601601f8b6040518082805190602001908083835b60208310613ce65780518252601f199092019160209182019101613cc7565b6001836020036101000a0380198251168184511680821785525050505050509050019150509081526020016040518091039020600201601f8c6040518082805190602001908083835b60208310613d4e5780518252601f199092019160209182019101613d2f565b6001836020036101000a0380198251168184511680821785525050505050509050019150509081526020016040518091039020600301601f8d6040518082805190602001908083835b60208310613db65780518252601f199092019160209182019101613d97565b6001836020036101000a0380198251168184511680821785525050505050509050019150509081526020016040518091039020600401601f8e6040518082805190602001908083835b60208310613e1e5780518252601f199092019160209182019101613dff565b518151600019602094850361010090810a820192831692199390931691909117909252949092019687526040805197889003820188208e54601f600260018316159098029095011695909504928301829004820288018201905281875260059093019594508b9350918401905082828015613eda5780601f10613eaf57610100808354040283529160200191613eda565b820191906000526020600020905b815481529060010190602001808311613ebd57829003601f168201915b5050895460408051602060026001851615610100026000190190941693909304601f8101849004840282018401909252818152959c508b945092508401905082828015613f685780601f10613f3d57610100808354040283529160200191613f68565b820191906000526020600020905b815481529060010190602001808311613f4b57829003601f168201915b5050885460408051602060026001851615610100026000190190941693909304601f8101849004840282018401909252818152959b508a945092508401905082828015613ff65780601f10613fcb57610100808354040283529160200191613ff6565b820191906000526020600020905b815481529060010190602001808311613fd957829003601f168201915b5050875460408051602060026001851615610100026000190190941693909304601f8101849004840282018401909252818152959a50899450925084019050828280156140845780601f1061405957610100808354040283529160200191614084565b820191906000526020600020905b81548152906001019060200180831161406757829003601f168201915b5050865460408051602060026001851615610100026000190190941693909304601f8101849004840282018401909252818152959950889450925084019050828280156141125780601f106140e757610100808354040283529160200191614112565b820191906000526020600020905b8154815290600101906020018083116140f557829003601f168201915b5050855460408051602060026001851615610100026000190190941693909304601f8101849004840282018401909252818152959850879450925084019050828280156141a05780601f10614175576101008083540402835291602001916141a0565b820191906000526020600020905b81548152906001019060200180831161418357829003601f168201915b5050845460408051602060026001851615610100026000190190941693909304601f81018490048402820184019092528181529597508694509250840190508282801561422e5780601f106142035761010080835404028352916020019161422e565b820191906000526020600020905b81548152906001019060200180831161421157829003601f168201915b505050505090509650965096509650965096509650919395979092949650565b61425a60136000614c8c565b601e826040518082805190602001908083835b6020831061428c5780518252601f19909201916020918201910161426d565b6001836020036101000a0380198251168184511680821785525050505050509050019150509081526020016040518091039020600c600082018160000190805460018160011615610100020316600290046142e8929190614cee565b5060018201816001019080546001816001161561010002031660029004614310929190614cee565b5060028281018054614335928481019291600019610100600183161502011604614cee565b506003820181600301908054600181600116156101000203166002900461435d929190614cee565b5060048201816004019080546001816001161561010002031660029004614385929190614cee565b50600582015481600501556006820154816006015560078201816007019080546143b0929190614d63565b506008918201549101805460ff191660ff90921615159190911790556143d860196000614c8c565b601d816040518082805190602001908083835b6020831061440a5780518252601f1990920191602091820191016143eb565b6001836020036101000a0380198251168184511680821785525050505050509050019150509081526020016040518091039020601560008201816000019080546001816001161561010002031660029004614466929190614cee565b506001820181600101908054600181600116156101000203166002900461448e929190614cee565b50600282810180546144b3928481019291600019610100600183161502011604614cee565b50600382018160030190805460018160011615610100020316600290046144db929190614cee565b50600482810180546144f09284019190614d63565b505060138054909150600090811061450457fe5b906000526020600020906007020160056000820181600001908054600181600116156101000203166002900461453b929190614cee565b5060018201816001019080546001816001161561010002031660029004614563929190614cee565b5060028281018054614588928481019291600019610100600183161502011604614cee565b50600382018160030190805460018160011615610100020316600290046145b0929190614cee565b50600482018160040190805460018160011615610100020316600290046145d8929190614cee565b5060058201816005019080546001816001161561010002031660029004614600929190614cee565b5060068201816006019080546001816001161561010002031660029004614628929190614cee565b5060009150505b6013546000190181101561479b57601380546001830190811061464e57fe5b9060005260206000209060070201600c6007018281548110151561466e57fe5b9060005260206000209060070201600082018160000190805460018160011615610100020316600290046146a3929190614cee565b50600182018160010190805460018160011615610100020316600290046146cb929190614cee565b50600282810180546146f0928481019291600019610100600183161502011604614cee565b5060038201816003019080546001816001161561010002031660029004614718929190614cee565b5060048201816004019080546001816001161561010002031660029004614740929190614cee565b5060058201816005019080546001816001161561010002031660029004614768929190614cee565b5060068201816006019080546001816001161561010002031660029004614790929190614cee565b50505060010161462f565b50601380548015156147a957fe5b600082815260208120600019909201916007830201906147c98282614ec7565b6147d7600183016000614ec7565b6147e5600283016000614ec7565b6147f3600383016000614ec7565b614801600483016000614ec7565b61480f600583016000614ec7565b61481d600683016000614ec7565b50509055600c601e836040518082805190602001908083835b602083106148555780518252601f199092019160209182019101614836565b6001836020036101000a0380198251168184511680821785525050505050509050019150509081526020016040518091039020600082018160000190805460018160011615610100020316600290046148af929190614cee565b50600182018160010190805460018160011615610100020316600290046148d7929190614cee565b50600282810180546148fc928481019291600019610100600183161502011604614cee565b5060038201816003019080546001816001161561010002031660029004614924929190614cee565b506004820181600401908054600181600116156101000203166002900461494c929190614cee565b5060058201548160050155600682015481600601556007820181600701908054614977929190614d63565b506008918201549101805460ff191660ff9092161515919091179055604051600580548392601f9291819083906002610100600183161502600019019091160480156149fa5780601f106149d85761010080835404028352918201916149fa565b820191906000526020600020905b8154815290600101906020018083116149e6575b505091505090815260200160405180910390206006019080519060200190614a23929190614c0e565b50601d816040518082805190602001908083835b60208310614a565780518252601f199092019160209182019101614a37565b518151602093840361010090810a600019908101801990941693909216929092179092529290940196875260405196879003810190962060040180546001808201808455600093845298909220600580549098506007909202019550614aca94869450879360029383161502011604614cee565b5060018201816001019080546001816001161561010002031660029004614af2929190614cee565b5060028281018054614b17928481019291600019610100600183161502011604614cee565b5060038201816003019080546001816001161561010002031660029004614b3f929190614cee565b5060048201816004019080546001816001161561010002031660029004614b67929190614cee565b5060058201816005019080546001816001161561010002031660029004614b8f929190614cee565b5060068201816006019080546001816001161561010002031660029004614bb7929190614cee565b505050505050565b6101206040519081016040528060608152602001606081526020016060815260200160608152602001606081526020016000815260200160008152602001606081526020016000151581525090565b828054600181600116156101000203166002900490600052602060002090601f016020900481019282601f10614c4f57805160ff1916838001178555614c7c565b82800160010185558215614c7c579182015b82811115614c7c578251825591602001919060010190614c61565b50614c88929150614f07565b5090565b5080546000825560070290600052602060002090810190614cad9190614f21565b50565b60e060405190810160405280606081526020016060815260200160608152602001606081526020016060815260200160608152602001606081525090565b828054600181600116156101000203166002900490600052602060002090601f016020900481019282601f10614d275780548555614c7c565b82800160010185558215614c7c57600052602060002091601f016020900482015b82811115614c7c578254825591600101919060010190614d48565b828054828255906000526020600020906007028101928215614ebb5760005260206000209160070282015b82811115614ebb57825483908390614dbc908290849060026000196101006001841615020190911604614cee565b5060018201816001019080546001816001161561010002031660029004614de4929190614cee565b5060028281018054614e09928481019291600019610100600183161502011604614cee565b5060038201816003019080546001816001161561010002031660029004614e31929190614cee565b5060048201816004019080546001816001161561010002031660029004614e59929190614cee565b5060058201816005019080546001816001161561010002031660029004614e81929190614cee565b5060068201816006019080546001816001161561010002031660029004614ea9929190614cee565b50505091600701919060070190614d8e565b50614c88929150614f21565b50805460018160011615610100020316600290046000825580601f10614eed5750614cad565b601f016020900490600052602060002090810190614cad91905b61350691905b80821115614c885760008155600101614f0d565b61350691905b80821115614c88576000614f3b8282614ec7565b614f49600183016000614ec7565b614f57600283016000614ec7565b614f65600383016000614ec7565b614f73600483016000614ec7565b614f81600583016000614ec7565b614f8f600683016000614ec7565b50600701614f2756fea165627a7a72305820f8c4cec539e4607d13bc36b42a31b6e525a55e91d54b9c331e6c115c73c4ac040029",
  "source": "// SPDX-License-Identifier: MIT\r\npragma solidity >=0.4.22 <0.9.0;\r\n\r\ncontract BlockFeit {\r\n    // product structure\r\n    struct Product {\r\n        string id;\r\n        string name;\r\n        string width;\r\n        string height;\r\n        string time_stamp;\r\n        string batch;\r\n        string ownwer;\r\n    }\r\n\r\n    // Customer/User structure\r\n    struct Customer {\r\n        string id;\r\n        string name;\r\n        string phone_no;\r\n        string email;\r\n        Product[] purchesed;\r\n    }\r\n\r\n    // Retailer\r\n    struct Retailer {\r\n        string id;\r\n        string name;\r\n        string phone_no;\r\n        string email;\r\n        string location;\r\n        uint256 remaining;\r\n        uint256 sold;\r\n        Product[] available;\r\n        bool present;\r\n    }\r\n\r\n    // manufacturer Details\r\n    string brand;\r\n    string location;\r\n    uint256 total_manufacturered;\r\n    string private manufacturer;\r\n\r\n    // Contract variables\r\n    uint256 indx;\r\n    Product tempProduct;\r\n    Retailer tempRetailer;\r\n    Customer tempCustomer;\r\n    Product[] tempProducts;\r\n    Product[] manufacturered;\r\n\r\n    uint256 public val = 10;\r\n\r\n    function setVal(uint256 _x) public {\r\n        val = _x;\r\n    }\r\n\r\n    // mapping\r\n    mapping(string => Customer) customers;\r\n    mapping(string => Retailer) retailers;\r\n    mapping(string => Product) productMapping;\r\n\r\n    // initialize Contract\r\n    constructor() public {\r\n        total_manufacturered = 0;\r\n        indx = 0;\r\n    }\r\n\r\n    /*\r\n        this fuction set manufacturer into system\r\n        @params= _manufacturer name, location, brand\r\n    */\r\n    function addManufacturer(\r\n        string memory _manufacturer,\r\n        string memory _location,\r\n        string memory _brand\r\n    ) public {\r\n        manufacturer = _manufacturer;\r\n        location = _location;\r\n        brand = _brand;\r\n    }\r\n\r\n    /*\r\n        This function add Vendor/ Retailer into system\r\n        Expects Retailer details as parameters\r\n        @params= id, name, phone_no, email, location\r\n    */\r\n    function addRetailer(\r\n        string memory _id,\r\n        string memory _name,\r\n        string memory _phone_no,\r\n        string memory _email,\r\n        string memory _location\r\n    ) public {\r\n        tempRetailer.id = _id;\r\n        tempRetailer.name = _name;\r\n        tempRetailer.phone_no = _phone_no;\r\n        tempRetailer.email = _email;\r\n        tempRetailer.location = _location;\r\n        tempRetailer.present = true;\r\n        retailers[_id] = tempRetailer;\r\n    }\r\n\r\n    /*\r\n        This function add Customer/user into system\r\n        Expects Customer details as parameters\r\n        @params= id, name, phone_no, email\r\n    */\r\n    function addCustomer(\r\n        string memory _id,\r\n        string memory _name,\r\n        string memory _phone_no,\r\n        string memory _email\r\n    ) public {\r\n        tempCustomer.id = _id;\r\n        tempCustomer.name = _name;\r\n        tempCustomer.phone_no = _phone_no;\r\n        tempCustomer.email = _email;\r\n        delete tempCustomer.purchesed;\r\n        customers[_id] = tempCustomer;\r\n    }\r\n\r\n    /*\r\n        This function sells product to Vendor/Retailer by manufacturer\r\n        Expects Retailer id and Quantity as parameters\r\n        @params= _id, _quantity \r\n    */\r\n    string MSG = \"Retailer Does not Exist\";\r\n\r\n    function sellProductsToRetailer(string memory _id, uint256 _quantity)\r\n        public\r\n        returns (string memory)\r\n    {\r\n        Retailer memory retailer = retailers[_id];\r\n        if ((_quantity + indx) > manufacturered.length) {\r\n            MSG = \"Insufficient products\";\r\n            return (MSG);\r\n        } else if (retailer.present == false) {\r\n            return (MSG);\r\n        }\r\n\r\n        delete tempRetailer.available;\r\n\r\n        tempRetailer.id = retailer.id;\r\n        tempRetailer.name = retailer.name;\r\n        tempRetailer.phone_no = retailer.phone_no;\r\n        tempRetailer.email = retailer.email;\r\n        tempRetailer.location = retailer.location;\r\n        tempRetailer.present = true;\r\n\r\n        for (uint256 tt = 0; tt < retailer.available.length; tt++) {\r\n            Product memory p = retailer.available[tt];\r\n            tempRetailer.available.push(p);\r\n        }\r\n\r\n        for (uint256 i = 0; i < _quantity; i++) {\r\n            // Product memory present = retailer.available[i];\r\n            Product memory present = manufacturered[indx];\r\n            present.ownwer = _id;\r\n            productMapping[present.id].ownwer = _id;\r\n            indx++;\r\n            tempRetailer.available.push(present);\r\n        }\r\n        retailers[_id] = tempRetailer;\r\n        MSG = \"Productes Added successfully\";\r\n        return MSG;\r\n    }\r\n\r\n    /*\r\n        This function sells product to Customer  by Vendor/Retailer \r\n        Expects Retailer id and customer_id as parameters\r\n        @params= _seller_id, _customer_id\r\n    */\r\n    function sellProductToCustomer(\r\n        string memory _seller_id,\r\n        string memory _customer_id\r\n    ) public {\r\n        delete tempRetailer.available;\r\n        tempRetailer = retailers[_seller_id];\r\n        delete tempCustomer.purchesed;\r\n        tempCustomer = customers[_customer_id];\r\n        tempProduct = tempRetailer.available[0];\r\n\r\n        for (uint256 i = 0; i < tempRetailer.available.length - 1; i++) {\r\n            tempRetailer.available[i] = tempRetailer.available[i + 1];\r\n        }\r\n\r\n        tempRetailer.available.pop();\r\n        retailers[_seller_id] = tempRetailer;\r\n        productMapping[tempProduct.id].ownwer = _customer_id;\r\n        customers[_customer_id].purchesed.push(tempProduct);\r\n    }\r\n\r\n    /*\r\n        This function add product into system\r\n        Expects product details as parameters\r\n        @params= id, name, width, height, time_stamp, batch, owner\r\n    */\r\n    function addProduct(\r\n        string memory _id,\r\n        string memory _name,\r\n        string memory _width,\r\n        string memory _height,\r\n        string memory _time_stamp,\r\n        string memory _batch,\r\n        string memory _owner\r\n    ) public {\r\n        Product memory product;\r\n        product.id = _id;\r\n        product.name = _name;\r\n        product.width = _width;\r\n        product.height = _height;\r\n        product.time_stamp = _time_stamp;\r\n        product.batch = _batch;\r\n        product.ownwer = _owner;\r\n\r\n        total_manufacturered++;\r\n        productMapping[_id] = product;\r\n        manufacturered.push(product);\r\n    }\r\n\r\n    /*\r\n        @params : product id\r\n        returns product info\r\n        id, owner, name, width, height, time_stamp, batch\r\n    */\r\n    function getProductDetail(string memory _product_id)\r\n        public\r\n        view\r\n        returns (\r\n            string memory,\r\n            string memory,\r\n            string memory,\r\n            string memory,\r\n            string memory,\r\n            string memory,\r\n            string memory\r\n        )\r\n    {\r\n        return (\r\n            productMapping[_product_id].id,\r\n            productMapping[_product_id].name,\r\n            productMapping[_product_id].ownwer,\r\n            productMapping[_product_id].width,\r\n            productMapping[_product_id].height,\r\n            productMapping[_product_id].time_stamp,\r\n            productMapping[_product_id].batch\r\n        );\r\n    }\r\n\r\n    /*\r\n        Function name : getRetailerProductCount\r\n        @params : retailer_id\r\n        returns how many products are availabe to vendor\r\n    */\r\n    function getRetailerProductCount(string memory _retailer_id)\r\n        public\r\n        view\r\n        returns (uint256)\r\n    {\r\n        return (retailers[_retailer_id].available.length);\r\n    }\r\n\r\n    /*\r\n        Function name : getCustomerProductCount\r\n        @params : customer_id\r\n        returns how many products purched by customer\r\n    */\r\n    function getCustomerProductCount(string memory _customer_id)\r\n        public\r\n        view\r\n        returns (uint256)\r\n    {\r\n        return (customers[_customer_id].purchesed.length);\r\n    }\r\n\r\n    /*\r\n        Function name : getManufacturerCount\r\n        @params :none\r\n        returns how many products availabe to manufacturer\r\n    */\r\n    function getManufacturerCount() public view returns (uint256) {\r\n        return (total_manufacturered - indx);\r\n    }\r\n\r\n    /*\r\n        function name : getRetailerDetails\r\n        @params : retailer_id\r\n        returns retailer info\r\n        like : id, name, phone_no, email, location, products available\r\n    */\r\n    function getRetailerDetails(string memory retailer_id)\r\n        public\r\n        view\r\n        returns (\r\n            string memory,\r\n            string memory,\r\n            string memory,\r\n            string memory,\r\n            string memory,\r\n            uint256\r\n        )\r\n    {\r\n        return (\r\n            retailers[retailer_id].id,\r\n            retailers[retailer_id].name,\r\n            retailers[retailer_id].phone_no,\r\n            retailers[retailer_id].email,\r\n            retailers[retailer_id].location,\r\n            retailers[retailer_id].available.length\r\n        );\r\n    }\r\n\r\n    /*\r\n       fuction name: getOwnerOfProduct\r\n        Expected product_id as parameters\r\n        @params= product_id\r\n        returns product name and product owner\r\n\r\n    */\r\n\r\n    function getOwnerOfProduct(string memory product_id)\r\n        public\r\n        view\r\n        returns (string memory, string memory)\r\n    {\r\n        return (\r\n            productMapping[product_id].name,\r\n            productMapping[product_id].ownwer\r\n        );\r\n    }\r\n\r\n    /*\r\n        This function verify ownership of produt\r\n        Expected product id, owner id ad parameters\r\n        @params= product_id, owner_id\r\n        returns Boolean value if ownership matched with product owner\r\n    */\r\n    function verifyOwnership(string memory product_id, string memory owner_id)\r\n        public\r\n        view\r\n        returns (bool)\r\n    {\r\n        return (keccak256(bytes(productMapping[product_id].ownwer)) ==\r\n            keccak256(bytes(owner_id)));\r\n    }\r\n}\r\n",
  "sourcePath": "D:/BE-project/BlockFeit-BE-project/Back-End/contracts/BlockFeit.sol",
  "compiler": {
    "name": "solc",
    "version": "0.5.0+commit.1d4f565a.Emscripten.clang"
  },
  "schemaVersion": "3.0.1",
  "updatedAt": "2022-02-01T11:49:10.085Z",
  "devdoc": {
    "methods": {}
  },
  "userdoc": {
    "methods": {}
  }
}