{
  "contractName": "BlockFeit",
  "abi": [
    {
      "inputs": [
        {
          "name": "_manufacturer",
          "type": "address"
        }
      ],
      "payable": false,
      "stateMutability": "nonpayable",
      "type": "constructor"
    },
    {
      "constant": false,
      "inputs": [
        {
          "name": "_id",
          "type": "string"
        },
        {
          "name": "_name",
          "type": "string"
        },
        {
          "name": "_width",
          "type": "string"
        },
        {
          "name": "_height",
          "type": "string"
        },
        {
          "name": "_time_stamp",
          "type": "string"
        },
        {
          "name": "_batch",
          "type": "string"
        },
        {
          "name": "_owner",
          "type": "string"
        }
      ],
      "name": "addProduct",
      "outputs": [],
      "payable": false,
      "stateMutability": "nonpayable",
      "type": "function"
    },
    {
      "constant": false,
      "inputs": [
        {
          "name": "_id",
          "type": "string"
        },
        {
          "name": "_quantity",
          "type": "uint256"
        }
      ],
      "name": "sellProductsToRetailer",
      "outputs": [
        {
          "name": "",
          "type": "string"
        }
      ],
      "payable": false,
      "stateMutability": "nonpayable",
      "type": "function"
    },
    {
      "constant": false,
      "inputs": [
        {
          "name": "_id",
          "type": "string"
        },
        {
          "name": "_name",
          "type": "string"
        },
        {
          "name": "_phone_no",
          "type": "string"
        },
        {
          "name": "_email",
          "type": "string"
        },
        {
          "name": "_location",
          "type": "string"
        }
      ],
      "name": "addRetailer",
      "outputs": [],
      "payable": false,
      "stateMutability": "nonpayable",
      "type": "function"
    }
  ],
  "bytecode": "0x608060405234801561001057600080fd5b506040516020806121bb8339810180604052602081101561003057600080fd5b505160008054600160a060020a03909216600160a060020a031990921691909117815560028190556012556121518061006a6000396000f3fe6080604052600436106100565763ffffffff7c01000000000000000000000000000000000000000000000000000000006000350416631b412927811461005b578063619cce0f1461018557806367a6377a14610456575b600080fd5b34801561006757600080fd5b506101106004803603604081101561007e57600080fd5b81019060208101813564010000000081111561009957600080fd5b8201836020820111156100ab57600080fd5b803590602001918460018302840111640100000000831117156100cd57600080fd5b91908080601f0160208091040260200160405190810160405280939291908181526020018383808284376000920191909152509295505091359250610833915050565b6040805160208082528351818301528351919283929083019185019080838360005b8381101561014a578181015183820152602001610132565b50505050905090810190601f1680156101775780820380516001836020036101000a031916815260200191505b509250505060405180910390f35b34801561019157600080fd5b50610454600480360360a08110156101a857600080fd5b8101906020810181356401000000008111156101c357600080fd5b8201836020820111156101d557600080fd5b803590602001918460018302840111640100000000831117156101f757600080fd5b91908080601f016020809104026020016040519081016040528093929190818152602001838380828437600092019190915250929594936020810193503591505064010000000081111561024a57600080fd5b82018360208201111561025c57600080fd5b8035906020019184600183028401116401000000008311171561027e57600080fd5b91908080601f01602080910402602001604051908101604052809392919081815260200183838082843760009201919091525092959493602081019350359150506401000000008111156102d157600080fd5b8201836020820111156102e357600080fd5b8035906020019184600183028401116401000000008311171561030557600080fd5b91908080601f016020809104026020016040519081016040528093929190818152602001838380828437600092019190915250929594936020810193503591505064010000000081111561035857600080fd5b82018360208201111561036a57600080fd5b8035906020019184600183028401116401000000008311171561038c57600080fd5b91908080601f01602080910402602001604051908101604052809392919081815260200183838082843760009201919091525092959493602081019350359150506401000000008111156103df57600080fd5b8201836020820111156103f157600080fd5b8035906020019184600183028401116401000000008311171561041357600080fd5b91908080601f0160208091040260200160405190810160405280939291908181526020018383808284376000920191909152509295506119dc945050505050565b005b34801561046257600080fd5b50610454600480360360e081101561047957600080fd5b81019060208101813564010000000081111561049457600080fd5b8201836020820111156104a657600080fd5b803590602001918460018302840111640100000000831117156104c857600080fd5b91908080601f016020809104026020016040519081016040528093929190818152602001838380828437600092019190915250929594936020810193503591505064010000000081111561051b57600080fd5b82018360208201111561052d57600080fd5b8035906020019184600183028401116401000000008311171561054f57600080fd5b91908080601f01602080910402602001604051908101604052809392919081815260200183838082843760009201919091525092959493602081019350359150506401000000008111156105a257600080fd5b8201836020820111156105b457600080fd5b803590602001918460018302840111640100000000831117156105d657600080fd5b91908080601f016020809104026020016040519081016040528093929190818152602001838380828437600092019190915250929594936020810193503591505064010000000081111561062957600080fd5b82018360208201111561063b57600080fd5b8035906020019184600183028401116401000000008311171561065d57600080fd5b91908080601f01602080910402602001604051908101604052809392919081815260200183838082843760009201919091525092959493602081019350359150506401000000008111156106b057600080fd5b8201836020820111156106c257600080fd5b803590602001918460018302840111640100000000831117156106e457600080fd5b91908080601f016020809104026020016040519081016040528093929190818152602001838380828437600092019190915250929594936020810193503591505064010000000081111561073757600080fd5b82018360208201111561074957600080fd5b8035906020019184600183028401116401000000008311171561076b57600080fd5b91908080601f01602080910402602001604051908101604052809392919081815260200183838082843760009201919091525092959493602081019350359150506401000000008111156107be57600080fd5b8201836020820111156107d057600080fd5b803590602001918460018302840111640100000000831117156107f257600080fd5b91908080601f016020809104026020016040519081016040528093929190818152602001838380828437600092019190915250929550611bee945050505050565b60005460609073ffffffffffffffffffffffffffffffffffffffff16331461085a57600080fd5b60408051808201909152601781527f52657461696c657220446f6573206e6f742045786973740000000000000000006020820152610896611d49565b6015856040518082805190602001908083835b602083106108c85780518252601f1990920191602091820191016108a9565b518151600019602094850361010090810a820192831692199390931691909117909252949092019687526040805197889003820188208054610140601f600260018416159099029096019091169690960493840183900490920288018501905261012087018281529095508694509285925084018282801561098b5780601f106109605761010080835404028352916020019161098b565b820191906000526020600020905b81548152906001019060200180831161096e57829003601f168201915b50505050508152602001600182018054600181600116156101000203166002900480601f016020809104026020016040519081016040528092919081815260200182805460018160011615610100020316600290048015610a2d5780601f10610a0257610100808354040283529160200191610a2d565b820191906000526020600020905b815481529060010190602001808311610a1057829003601f168201915b5050509183525050600282810180546040805160206001841615610100026000190190931694909404601f81018390048302850183019091528084529381019390830182828015610abf5780601f10610a9457610100808354040283529160200191610abf565b820191906000526020600020905b815481529060010190602001808311610aa257829003601f168201915b505050918352505060038201805460408051602060026001851615610100026000190190941693909304601f8101849004840282018401909252818152938201939291830182828015610b535780601f10610b2857610100808354040283529160200191610b53565b820191906000526020600020905b815481529060010190602001808311610b3657829003601f168201915b505050918352505060048201805460408051602060026001851615610100026000190190941693909304601f8101849004840282018401909252818152938201939291830182828015610be75780601f10610bbc57610100808354040283529160200191610be7565b820191906000526020600020905b815481529060010190602001808311610bca57829003601f168201915b50505050508152602001600582015481526020016006820154815260200160078201805480602002602001604051908101604052809291908181526020016000905b8282101561106d57600084815260209081902060408051600786029092018054600260018216156101009081026000190190921604601f81018690049095028401810190925260e0830184815292939092849290918491840182828015610cd15780601f10610ca657610100808354040283529160200191610cd1565b820191906000526020600020905b815481529060010190602001808311610cb457829003601f168201915b50505050508152602001600182018054600181600116156101000203166002900480601f016020809104026020016040519081016040528092919081815260200182805460018160011615610100020316600290048015610d735780601f10610d4857610100808354040283529160200191610d73565b820191906000526020600020905b815481529060010190602001808311610d5657829003601f168201915b5050509183525050600282810180546040805160206001841615610100026000190190931694909404601f81018390048302850183019091528084529381019390830182828015610e055780601f10610dda57610100808354040283529160200191610e05565b820191906000526020600020905b815481529060010190602001808311610de857829003601f168201915b505050918352505060038201805460408051602060026001851615610100026000190190941693909304601f8101849004840282018401909252818152938201939291830182828015610e995780601f10610e6e57610100808354040283529160200191610e99565b820191906000526020600020905b815481529060010190602001808311610e7c57829003601f168201915b505050918352505060048201805460408051602060026001851615610100026000190190941693909304601f8101849004840282018401909252818152938201939291830182828015610f2d5780601f10610f0257610100808354040283529160200191610f2d565b820191906000526020600020905b815481529060010190602001808311610f1057829003601f168201915b505050918352505060058201805460408051602060026001851615610100026000190190941693909304601f8101849004840282018401909252818152938201939291830182828015610fc15780601f10610f9657610100808354040283529160200191610fc1565b820191906000526020600020905b815481529060010190602001808311610fa457829003601f168201915b505050918352505060068201805460408051602060026001851615610100026000190190941693909304601f81018490048402820184019092528181529382019392918301828280156110555780601f1061102a57610100808354040283529160200191611055565b820191906000526020600020905b81548152906001019060200180831161103857829003601f168201915b50505050508152505081526020019060010190610c29565b505050908252506008919091015460ff16151560209091015260135460125491925090850111156110d557505060408051808201909152601581527f496e73756666696369656e742070726f64756374730000000000000000000000602082015290506119d6565b61010081015115156110e9575090506119d6565b6110f5600a6000611d98565b8051805161110b91600391602090910190611dbc565b506020808201518051611122926004920190611dbc565b506040810151805161113c91600591602090910190611dbc565b506060810151805161115691600691602090910190611dbc565b506080810151805161117091600791602090910190611dbc565b50600b805460ff1916600117905560005b8160e00151518110156112bd57611196611e3a565b60e08301518051839081106111a757fe5b6020908102909101810151600a80546001810180835560009290925282518051939550919385936007929092027fc65a7bb8d6351c1cf70c95a316cc6a92839c986682d98bc35f958f4883f9d2a801926112079284929190910190611dbc565b5060208281015180516112209260018501920190611dbc565b506040820151805161123c916002840191602090910190611dbc565b5060608201518051611258916003840191602090910190611dbc565b5060808201518051611274916004840191602090910190611dbc565b5060a08201518051611290916005840191602090910190611dbc565b5060c082015180516112ac916006840191602090910190611dbc565b505060019093019250611181915050565b5060005b8481101561182a576112d1611e3a565b60136012548154811015156112e257fe5b6000918252602091829020604080516007939093029091018054600260018216156101009081026000190190921604601f81018690049095028401810190925260e08301848152929390928492909184918401828280156113845780601f1061135957610100808354040283529160200191611384565b820191906000526020600020905b81548152906001019060200180831161136757829003601f168201915b50505050508152602001600182018054600181600116156101000203166002900480601f0160208091040260200160405190810160405280929190818152602001828054600181600116156101000203166002900480156114265780601f106113fb57610100808354040283529160200191611426565b820191906000526020600020905b81548152906001019060200180831161140957829003601f168201915b5050509183525050600282810180546040805160206001841615610100026000190190931694909404601f810183900483028501830190915280845293810193908301828280156114b85780601f1061148d576101008083540402835291602001916114b8565b820191906000526020600020905b81548152906001019060200180831161149b57829003601f168201915b505050918352505060038201805460408051602060026001851615610100026000190190941693909304601f810184900484028201840190925281815293820193929183018282801561154c5780601f106115215761010080835404028352916020019161154c565b820191906000526020600020905b81548152906001019060200180831161152f57829003601f168201915b505050918352505060048201805460408051602060026001851615610100026000190190941693909304601f81018490048402820184019092528181529382019392918301828280156115e05780601f106115b5576101008083540402835291602001916115e0565b820191906000526020600020905b8154815290600101906020018083116115c357829003601f168201915b505050918352505060058201805460408051602060026001851615610100026000190190941693909304601f81018490048402820184019092528181529382019392918301828280156116745780601f1061164957610100808354040283529160200191611674565b820191906000526020600020905b81548152906001019060200180831161165757829003601f168201915b505050918352505060068201805460408051602060026001851615610100026000190190941693909304601f81018490048402820184019092528181529382019392918301828280156117085780601f106116dd57610100808354040283529160200191611708565b820191906000526020600020905b8154815290600101906020018083116116eb57829003601f168201915b505050919092525050601280546001908101909155600a80549182018082556000919091528351805194955090938593506007929092027fc65a7bb8d6351c1cf70c95a316cc6a92839c986682d98bc35f958f4883f9d2a8019161177491839160209190910190611dbc565b50602082810151805161178d9260018501920190611dbc565b50604082015180516117a9916002840191602090910190611dbc565b50606082015180516117c5916003840191602090910190611dbc565b50608082015180516117e1916004840191602090910190611dbc565b5060a082015180516117fd916005840191602090910190611dbc565b5060c08201518051611819916006840191602090910190611dbc565b5050600190930192506112c1915050565b5060036015866040518082805190602001908083835b6020831061185f5780518252601f199092019160209182019101611840565b6001836020036101000a0380198251168184511680821785525050505050509050019150509081526020016040518091039020600082018160000190805460018160011615610100020316600290046118b9929190611e78565b50600182018160010190805460018160011615610100020316600290046118e1929190611e78565b5060028281018054611906928481019291600019610100600183161502011604611e78565b506003820181600301908054600181600116156101000203166002900461192e929190611e78565b5060048201816004019080546001816001161561010002031660029004611956929190611e78565b5060058201548160050155600682015481600601556007820181600701908054611981929190611eed565b506008918201549101805460ff191660ff9092161515919091179055505060408051808201909152601c81527f50726f647563746573204164646564207375636365737366756c6c7900000000602082015290505b92915050565b60005473ffffffffffffffffffffffffffffffffffffffff163314611a0057600080fd5b8451611a13906003906020880190611dbc565b508351611a27906004906020870190611dbc565b508251611a3b906005906020860190611dbc565b508151611a4f906006906020850190611dbc565b508051611a63906007906020840190611dbc565b50600b805460ff191660011790556040518551600391601591889190819060208401908083835b60208310611aa95780518252601f199092019160209182019101611a8a565b6001836020036101000a038019825116818451168082178552505050505050905001915050908152602001604051809103902060008201816000019080546001816001161561010002031660029004611b03929190611e78565b5060018201816001019080546001816001161561010002031660029004611b2b929190611e78565b5060028281018054611b50928481019291600019610100600183161502011604611e78565b5060038201816003019080546001816001161561010002031660029004611b78929190611e78565b5060048201816004019080546001816001161561010002031660029004611ba0929190611e78565b5060058201548160050155600682015481600601556007820181600701908054611bcb929190611eed565b506008918201549101805460ff191660ff90921615159190911790555050505050565b60005473ffffffffffffffffffffffffffffffffffffffff163314611c1257600080fd5b611c1a611e3a565b878152602080820188905260408201879052606082018690526080820185905260a0820184905260c082018390526013805460018101808355600092909252835180519293859360079093027f66de8ffda797e3de9c05e8fc57b3bf0ec28a930d40b0d285d93c06501cf6a0900192611c969284920190611dbc565b506020828101518051611caf9260018501920190611dbc565b5060408201518051611ccb916002840191602090910190611dbc565b5060608201518051611ce7916003840191602090910190611dbc565b5060808201518051611d03916004840191602090910190611dbc565b5060a08201518051611d1f916005840191602090910190611dbc565b5060c08201518051611d3b916006840191602090910190611dbc565b505050505050505050505050565b6101206040519081016040528060608152602001606081526020016060815260200160608152602001606081526020016000815260200160008152602001606081526020016000151581525090565b5080546000825560070290600052602060002090810190611db9919061204d565b50565b828054600181600116156101000203166002900490600052602060002090601f016020900481019282601f10611dfd57805160ff1916838001178555611e2a565b82800160010185558215611e2a579182015b82811115611e2a578251825591602001919060010190611e0f565b50611e369291506120c7565b5090565b60e060405190810160405280606081526020016060815260200160608152602001606081526020016060815260200160608152602001606081525090565b828054600181600116156101000203166002900490600052602060002090601f016020900481019282601f10611eb15780548555611e2a565b82800160010185558215611e2a57600052602060002091601f016020900482015b82811115611e2a578254825591600101919060010190611ed2565b8280548282559060005260206000209060070281019282156120455760005260206000209160070282015b8281111561204557825483908390611f46908290849060026000196101006001841615020190911604611e78565b5060018201816001019080546001816001161561010002031660029004611f6e929190611e78565b5060028281018054611f93928481019291600019610100600183161502011604611e78565b5060038201816003019080546001816001161561010002031660029004611fbb929190611e78565b5060048201816004019080546001816001161561010002031660029004611fe3929190611e78565b506005820181600501908054600181600116156101000203166002900461200b929190611e78565b5060068201816006019080546001816001161561010002031660029004612033929190611e78565b50505091600701919060070190611f18565b50611e369291505b6120c491905b80821115611e3657600061206782826120e1565b6120756001830160006120e1565b6120836002830160006120e1565b6120916003830160006120e1565b61209f6004830160006120e1565b6120ad6005830160006120e1565b6120bb6006830160006120e1565b50600701612053565b90565b6120c491905b80821115611e3657600081556001016120cd565b50805460018160011615610100020316600290046000825580601f106121075750611db9565b601f016020900490600052602060002090810190611db991906120c756fea165627a7a723058207638cd0201900da691a14fcc0390ea51ec298d44535acadc1fc0a40a4fa2f84f0029",
  "source": "// SPDX-License-Identifier: MIT\r\npragma solidity >=0.4.22 <0.9.0;\r\n\r\ncontract BlockFeit {\r\n\r\n    struct Product {\r\n\r\n        string id;\r\n        string name;\r\n        string width;\r\n        string height;\r\n        string time_stamp;\r\n        string batch;\r\n        string ownwer;\r\n    }\r\n\r\n    struct Customer {\r\n\r\n        string id;\r\n        string name;\r\n        string phone_no;\r\n        string email;\r\n        Product[] purchesed;\r\n    }\r\n\r\n     struct Retailer {\r\n\r\n        string id;\r\n        string name;\r\n        string phone_no;\r\n        string email;\r\n        string location;\r\n        uint remaining;\r\n        uint sold;\r\n        Product[] available;\r\n        bool present;\r\n    }\r\n\r\n    address private manufacturer;\r\n    string location;\r\n    uint total_manufacturered;\r\n    Retailer tempRetailer;\r\n    Customer tempCustomer;\r\n    Product[] tempProducts;\r\n    uint indx;\r\n    Product[] manufacturered;\r\n    mapping(string => Customer) customers;\r\n    mapping(string => Retailer) retailers;\r\n\r\n    constructor(address _manufacturer) public{\r\n\r\n        manufacturer = _manufacturer;\r\n        total_manufacturered = 0;\r\n        indx = 0;\r\n    }\r\n\r\n      modifier restricted() {\r\n        require(msg.sender == manufacturer);\r\n        _;\r\n    }\r\n\r\n/*\r\n        string id;\r\n        string name;\r\n        string width;\r\n        string heigh;\r\n        string time_stamp;\r\n        string batch;\r\n        string ownwer;\r\n*/\r\n    function addProduct(string memory _id, \r\n                        string memory _name, \r\n                        string memory _width, \r\n                        string memory _height,\r\n                        string memory _time_stamp,\r\n                        string memory _batch,\r\n                        string memory _owner\r\n                        ) public restricted {\r\n\r\n            Product memory product;\r\n            product.id = _id;\r\n            product.name = _name;\r\n            product.width = _width;\r\n            product.height = _height;\r\n            product.time_stamp = _time_stamp;\r\n            product.batch = _batch;\r\n            product.ownwer = _owner;\r\n\r\n            manufacturered.push(product);\r\n    }\r\n\r\n    /*\r\n        string id;\r\n        string name;\r\n        string phone_no;\r\n        string email;\r\n        string location;\r\n        uint remaining;\r\n        uint sold;\r\n        Product[] available;\r\n    */\r\n\r\n    function sellProductsToRetailer (string memory _id, uint _quantity)  public restricted returns (string memory) {\r\n      \r\n        string memory MSG = \"Retailer Does not Exist\";\r\n        Retailer memory retailer = retailers[_id];\r\n        if(_quantity+indx > manufacturered.length) {\r\n\r\n            MSG = \"Insufficient products\";\r\n            return MSG;\r\n        }\r\n        else if(retailer.present == false) {\r\n\r\n            return MSG;\r\n        }\r\n\r\n        delete tempRetailer.available;\r\n        \r\n        \r\n        tempRetailer.id = retailer.id;\r\n        tempRetailer.name = retailer.name;\r\n        tempRetailer.phone_no = retailer.phone_no;\r\n        tempRetailer.email = retailer.email;\r\n        tempRetailer.location = retailer.location;\r\n        tempRetailer.present = true;\r\n\r\n        for(uint tt = 0; tt < retailer.available.length;  tt++) {\r\n\r\n            Product memory p = retailer.available[tt];\r\n            tempRetailer.available.push(p);\r\n        }\r\n\r\n        for(uint i = 0; i < _quantity; i++) {\r\n\r\n            // Product memory present = retailer.available[i];\r\n            Product memory present = manufacturered[indx];\r\n            indx++;\r\n            tempRetailer.available.push(present);\r\n        }\r\n        retailers[_id] = tempRetailer;\r\n        MSG = \"Productes Added successfully\";\r\n        return MSG;\r\n    }\r\n\r\n   function addRetailer(string memory _id,\r\n                        string memory _name,\r\n                        string memory _phone_no,\r\n                        string memory _email,\r\n                        string memory _location) public  restricted {\r\n\r\n\r\n            tempRetailer.id = _id;\r\n            tempRetailer.name = _name;\r\n            tempRetailer.phone_no = _phone_no;\r\n            tempRetailer.email = _email;\r\n            tempRetailer.location = _location;\r\n            tempRetailer.present = true;\r\n\r\n            retailers[_id] = tempRetailer;\r\n    }\r\n\r\n\r\n\r\n\r\n\r\n\r\n} \r\n\r\n/*\r\n\r\ntypeError: Type struct memory is not implicitly convertible to expected type struct storage pointer.\r\n\r\n\r\n*/\r\n",
  "sourcePath": "D:/BE-project/BlockFeit-BE-project/Back-End/contracts/BlockFeit.sol",
  "compiler": {
    "name": "solc",
    "version": "0.5.0+commit.1d4f565a.Emscripten.clang"
  },
  "schemaVersion": "3.0.1",
  "updatedAt": "2022-01-26T11:04:35.414Z",
  "devdoc": {
    "methods": {}
  },
  "userdoc": {
    "methods": {}
  }
}