{
  "contractName": "BlockFeit",
  "abi": [
    {
      "inputs": [],
      "payable": false,
      "stateMutability": "nonpayable",
      "type": "constructor"
    },
    {
      "constant": false,
      "inputs": [
        {
          "name": "_seller_id",
          "type": "string"
        },
        {
          "name": "_customer_id",
          "type": "string"
        }
      ],
      "name": "sellProductToCustomer",
      "outputs": [],
      "payable": false,
      "stateMutability": "nonpayable",
      "type": "function"
    },
    {
      "constant": false,
      "inputs": [
        {
          "name": "_manufacturer",
          "type": "string"
        },
        {
          "name": "_location",
          "type": "string"
        },
        {
          "name": "_brand",
          "type": "string"
        }
      ],
      "name": "addManufacturer",
      "outputs": [],
      "payable": false,
      "stateMutability": "nonpayable",
      "type": "function"
    },
    {
      "constant": false,
      "inputs": [
        {
          "name": "_id",
          "type": "string"
        },
        {
          "name": "_name",
          "type": "string"
        },
        {
          "name": "_width",
          "type": "string"
        },
        {
          "name": "_height",
          "type": "string"
        },
        {
          "name": "_time_stamp",
          "type": "string"
        },
        {
          "name": "_batch",
          "type": "string"
        },
        {
          "name": "_owner",
          "type": "string"
        }
      ],
      "name": "addProduct",
      "outputs": [],
      "payable": false,
      "stateMutability": "nonpayable",
      "type": "function"
    },
    {
      "constant": true,
      "inputs": [
        {
          "name": "_product_id",
          "type": "string"
        }
      ],
      "name": "getProductDetail",
      "outputs": [
        {
          "name": "",
          "type": "string"
        },
        {
          "name": "",
          "type": "string"
        },
        {
          "name": "",
          "type": "string"
        }
      ],
      "payable": false,
      "stateMutability": "view",
      "type": "function"
    },
    {
      "constant": false,
      "inputs": [
        {
          "name": "_id",
          "type": "string"
        },
        {
          "name": "_name",
          "type": "string"
        },
        {
          "name": "_phone_no",
          "type": "string"
        },
        {
          "name": "_email",
          "type": "string"
        }
      ],
      "name": "addCustomer",
      "outputs": [],
      "payable": false,
      "stateMutability": "nonpayable",
      "type": "function"
    },
    {
      "constant": false,
      "inputs": [
        {
          "name": "_id",
          "type": "string"
        },
        {
          "name": "_quantity",
          "type": "uint256"
        }
      ],
      "name": "sellProductsToRetailer",
      "outputs": [
        {
          "name": "",
          "type": "string"
        }
      ],
      "payable": false,
      "stateMutability": "nonpayable",
      "type": "function"
    },
    {
      "constant": false,
      "inputs": [
        {
          "name": "_id",
          "type": "string"
        },
        {
          "name": "_name",
          "type": "string"
        },
        {
          "name": "_phone_no",
          "type": "string"
        },
        {
          "name": "_email",
          "type": "string"
        },
        {
          "name": "_location",
          "type": "string"
        }
      ],
      "name": "addRetailer",
      "outputs": [],
      "payable": false,
      "stateMutability": "nonpayable",
      "type": "function"
    },
    {
      "constant": true,
      "inputs": [
        {
          "name": "retailer_id",
          "type": "string"
        }
      ],
      "name": "getRetailerDetails",
      "outputs": [
        {
          "name": "",
          "type": "string"
        },
        {
          "name": "",
          "type": "string"
        },
        {
          "name": "",
          "type": "string"
        },
        {
          "name": "",
          "type": "uint256"
        }
      ],
      "payable": false,
      "stateMutability": "view",
      "type": "function"
    },
    {
      "constant": true,
      "inputs": [
        {
          "name": "product_id",
          "type": "string"
        }
      ],
      "name": "getOwnerOfProduct",
      "outputs": [
        {
          "name": "",
          "type": "string"
        },
        {
          "name": "",
          "type": "string"
        }
      ],
      "payable": false,
      "stateMutability": "view",
      "type": "function"
    },
    {
      "constant": true,
      "inputs": [
        {
          "name": "owner_id",
          "type": "string"
        }
      ],
      "name": "verifyOwnership",
      "outputs": [
        {
          "name": "",
          "type": "bool"
        }
      ],
      "payable": false,
      "stateMutability": "view",
      "type": "function"
    }
  ],
  "bytecode": "0x60c0604052601760808190527f52657461696c657220446f6573206e6f7420457869737400000000000000000060a09081526200004091601f91906200005f565b503480156200004e57600080fd5b5060006003819055601a5562000104565b828054600181600116156101000203166002900490600052602060002090601f016020900481019282601f10620000a257805160ff1916838001178555620000d2565b82800160010185558215620000d2579182015b82811115620000d2578251825591602001919060010190620000b5565b50620000e0929150620000e4565b5090565b6200010191905b80821115620000e05760008155600101620000eb565b90565b61437b80620001146000396000f3fe6080604052600436106100a35763ffffffff7c01000000000000000000000000000000000000000000000000000000006000350416631b41292781146100a8578063293f854e146101d25780635c025f9414610299578063619cce0f146104e357806367a6377a146107b25780639fd42e6414610b8f578063bc544e7d14610d20578063ea788dd114610ee1578063ee786260146110df578063ffad4f0d146112d6575b600080fd5b3480156100b457600080fd5b5061015d600480360360408110156100cb57600080fd5b8101906020810181356401000000008111156100e657600080fd5b8201836020820111156100f857600080fd5b8035906020019184600183028401116401000000008311171561011a57600080fd5b91908080601f0160208091040260200160405190810160405280939291908181526020018383808284376000920191909152509295505091359250611410915050565b6040805160208082528351818301528351919283929083019185019080838360005b8381101561019757818101518382015260200161017f565b50505050905090810190601f1680156101c45780820380516001836020036101000a031916815260200191505b509250505060405180910390f35b3480156101de57600080fd5b50610285600480360360208110156101f557600080fd5b81019060208101813564010000000081111561021057600080fd5b82018360208201111561022257600080fd5b8035906020019184600183028401116401000000008311171561024457600080fd5b91908080601f016020809104026020016040519081016040528093929190818152602001838380828437600092019190915250929550612767945050505050565b604080519115158252519081900360200190f35b3480156102a557600080fd5b506104e1600480360360808110156102bc57600080fd5b8101906020810181356401000000008111156102d757600080fd5b8201836020820111156102e957600080fd5b8035906020019184600183028401116401000000008311171561030b57600080fd5b91908080601f016020809104026020016040519081016040528093929190818152602001838380828437600092019190915250929594936020810193503591505064010000000081111561035e57600080fd5b82018360208201111561037057600080fd5b8035906020019184600183028401116401000000008311171561039257600080fd5b91908080601f01602080910402602001604051908101604052809392919081815260200183838082843760009201919091525092959493602081019350359150506401000000008111156103e557600080fd5b8201836020820111156103f757600080fd5b8035906020019184600183028401116401000000008311171561041957600080fd5b91908080601f016020809104026020016040519081016040528093929190818152602001838380828437600092019190915250929594936020810193503591505064010000000081111561046c57600080fd5b82018360208201111561047e57600080fd5b803590602001918460018302840111640100000000831117156104a057600080fd5b91908080601f016020809104026020016040519081016040528093929190818152602001838380828437600092019190915250929550612849945050505050565b005b3480156104ef57600080fd5b506104e1600480360360a081101561050657600080fd5b81019060208101813564010000000081111561052157600080fd5b82018360208201111561053357600080fd5b8035906020019184600183028401116401000000008311171561055557600080fd5b91908080601f01602080910402602001604051908101604052809392919081815260200183838082843760009201919091525092959493602081019350359150506401000000008111156105a857600080fd5b8201836020820111156105ba57600080fd5b803590602001918460018302840111640100000000831117156105dc57600080fd5b91908080601f016020809104026020016040519081016040528093929190818152602001838380828437600092019190915250929594936020810193503591505064010000000081111561062f57600080fd5b82018360208201111561064157600080fd5b8035906020019184600183028401116401000000008311171561066357600080fd5b91908080601f01602080910402602001604051908101604052809392919081815260200183838082843760009201919091525092959493602081019350359150506401000000008111156106b657600080fd5b8201836020820111156106c857600080fd5b803590602001918460018302840111640100000000831117156106ea57600080fd5b91908080601f016020809104026020016040519081016040528093929190818152602001838380828437600092019190915250929594936020810193503591505064010000000081111561073d57600080fd5b82018360208201111561074f57600080fd5b8035906020019184600183028401116401000000008311171561077157600080fd5b91908080601f0160208091040260200160405190810160405280939291908181526020018383808284376000920191909152509295506129c6945050505050565b3480156107be57600080fd5b506104e1600480360360e08110156107d557600080fd5b8101906020810181356401000000008111156107f057600080fd5b82018360208201111561080257600080fd5b8035906020019184600183028401116401000000008311171561082457600080fd5b91908080601f016020809104026020016040519081016040528093929190818152602001838380828437600092019190915250929594936020810193503591505064010000000081111561087757600080fd5b82018360208201111561088957600080fd5b803590602001918460018302840111640100000000831117156108ab57600080fd5b91908080601f01602080910402602001604051908101604052809392919081815260200183838082843760009201919091525092959493602081019350359150506401000000008111156108fe57600080fd5b82018360208201111561091057600080fd5b8035906020019184600183028401116401000000008311171561093257600080fd5b91908080601f016020809104026020016040519081016040528093929190818152602001838380828437600092019190915250929594936020810193503591505064010000000081111561098557600080fd5b82018360208201111561099757600080fd5b803590602001918460018302840111640100000000831117156109b957600080fd5b91908080601f0160208091040260200160405190810160405280939291908181526020018383808284376000920191909152509295949360208101935035915050640100000000811115610a0c57600080fd5b820183602082011115610a1e57600080fd5b80359060200191846001830284011164010000000083111715610a4057600080fd5b91908080601f0160208091040260200160405190810160405280939291908181526020018383808284376000920191909152509295949360208101935035915050640100000000811115610a9357600080fd5b820183602082011115610aa557600080fd5b80359060200191846001830284011164010000000083111715610ac757600080fd5b91908080601f0160208091040260200160405190810160405280939291908181526020018383808284376000920191909152509295949360208101935035915050640100000000811115610b1a57600080fd5b820183602082011115610b2c57600080fd5b80359060200191846001830284011164010000000083111715610b4e57600080fd5b91908080601f016020809104026020016040519081016040528093929190818152602001838380828437600092019190915250929550612bb4945050505050565b348015610b9b57600080fd5b50610c4260048036036020811015610bb257600080fd5b810190602081018135640100000000811115610bcd57600080fd5b820183602082011115610bdf57600080fd5b80359060200191846001830284011164010000000083111715610c0157600080fd5b91908080601f016020809104026020016040519081016040528093929190818152602001838380828437600092019190915250929550612e0f945050505050565b604051808060200180602001838103835285818151815260200191508051906020019080838360005b83811015610c83578181015183820152602001610c6b565b50505050905090810190601f168015610cb05780820380516001836020036101000a031916815260200191505b50838103825284518152845160209182019186019080838360005b83811015610ce3578181015183820152602001610ccb565b50505050905090810190601f168015610d105780820380516001836020036101000a031916815260200191505b5094505050505060405180910390f35b348015610d2c57600080fd5b506104e160048036036060811015610d4357600080fd5b810190602081018135640100000000811115610d5e57600080fd5b820183602082011115610d7057600080fd5b80359060200191846001830284011164010000000083111715610d9257600080fd5b91908080601f0160208091040260200160405190810160405280939291908181526020018383808284376000920191909152509295949360208101935035915050640100000000811115610de557600080fd5b820183602082011115610df757600080fd5b80359060200191846001830284011164010000000083111715610e1957600080fd5b91908080601f0160208091040260200160405190810160405280939291908181526020018383808284376000920191909152509295949360208101935035915050640100000000811115610e6c57600080fd5b820183602082011115610e7e57600080fd5b80359060200191846001830284011164010000000083111715610ea057600080fd5b91908080601f016020809104026020016040519081016040528093929190818152602001838380828437600092019190915250929550613006945050505050565b348015610eed57600080fd5b50610f9460048036036020811015610f0457600080fd5b810190602081018135640100000000811115610f1f57600080fd5b820183602082011115610f3157600080fd5b80359060200191846001830284011164010000000083111715610f5357600080fd5b91908080601f016020809104026020016040519081016040528093929190818152602001838380828437600092019190915250929550613047945050505050565b60405180806020018060200180602001858152602001848103845288818151815260200191508051906020019080838360005b83811015610fdf578181015183820152602001610fc7565b50505050905090810190601f16801561100c5780820380516001836020036101000a031916815260200191505b50848103835287518152875160209182019189019080838360005b8381101561103f578181015183820152602001611027565b50505050905090810190601f16801561106c5780820380516001836020036101000a031916815260200191505b50848103825286518152865160209182019188019080838360005b8381101561109f578181015183820152602001611087565b50505050905090810190601f1680156110cc5780820380516001836020036101000a031916815260200191505b5097505050505050505060405180910390f35b3480156110eb57600080fd5b506111926004803603602081101561110257600080fd5b81019060208101813564010000000081111561111d57600080fd5b82018360208201111561112f57600080fd5b8035906020019184600183028401116401000000008311171561115157600080fd5b91908080601f0160208091040260200160405190810160405280939291908181526020018383808284376000920191909152509295506133a6945050505050565b60405180806020018060200180602001848103845287818151815260200191508051906020019080838360005b838110156111d75781810151838201526020016111bf565b50505050905090810190601f1680156112045780820380516001836020036101000a031916815260200191505b50848103835286518152865160209182019188019080838360005b8381101561123757818101518382015260200161121f565b50505050905090810190601f1680156112645780820380516001836020036101000a031916815260200191505b50848103825285518152855160209182019187019080838360005b8381101561129757818101518382015260200161127f565b50505050905090810190601f1680156112c45780820380516001836020036101000a031916815260200191505b50965050505050505060405180910390f35b3480156112e257600080fd5b506104e1600480360360408110156112f957600080fd5b81019060208101813564010000000081111561131457600080fd5b82018360208201111561132657600080fd5b8035906020019184600183028401116401000000008311171561134857600080fd5b91908080601f016020809104026020016040519081016040528093929190818152602001838380828437600092019190915250929594936020810193503591505064010000000081111561139b57600080fd5b8201836020820111156113ad57600080fd5b803590602001918460018302840111640100000000831117156113cf57600080fd5b91908080601f016020809104026020016040519081016040528093929190818152602001838380828437600092019190915250929550613691945050505050565b606061141a613f73565b601e846040518082805190602001908083835b6020831061144c5780518252601f19909201916020918201910161142d565b518151600019602094850361010090810a820192831692199390931691909117909252949092019687526040805197889003820188208054610140601f600260018416159099029096019091169690960493840183900490920288018501905261012087018281529095508694509285925084018282801561150f5780601f106114e45761010080835404028352916020019161150f565b820191906000526020600020905b8154815290600101906020018083116114f257829003601f168201915b50505050508152602001600182018054600181600116156101000203166002900480601f0160208091040260200160405190810160405280929190818152602001828054600181600116156101000203166002900480156115b15780601f10611586576101008083540402835291602001916115b1565b820191906000526020600020905b81548152906001019060200180831161159457829003601f168201915b5050509183525050600282810180546040805160206001841615610100026000190190931694909404601f810183900483028501830190915280845293810193908301828280156116435780601f1061161857610100808354040283529160200191611643565b820191906000526020600020905b81548152906001019060200180831161162657829003601f168201915b505050918352505060038201805460408051602060026001851615610100026000190190941693909304601f81018490048402820184019092528181529382019392918301828280156116d75780601f106116ac576101008083540402835291602001916116d7565b820191906000526020600020905b8154815290600101906020018083116116ba57829003601f168201915b505050918352505060048201805460408051602060026001851615610100026000190190941693909304601f810184900484028201840190925281815293820193929183018282801561176b5780601f106117405761010080835404028352916020019161176b565b820191906000526020600020905b81548152906001019060200180831161174e57829003601f168201915b50505050508152602001600582015481526020016006820154815260200160078201805480602002602001604051908101604052809291908181526020016000905b82821015611bf157600084815260209081902060408051600786029092018054600260018216156101009081026000190190921604601f81018690049095028401810190925260e08301848152929390928492909184918401828280156118555780601f1061182a57610100808354040283529160200191611855565b820191906000526020600020905b81548152906001019060200180831161183857829003601f168201915b50505050508152602001600182018054600181600116156101000203166002900480601f0160208091040260200160405190810160405280929190818152602001828054600181600116156101000203166002900480156118f75780601f106118cc576101008083540402835291602001916118f7565b820191906000526020600020905b8154815290600101906020018083116118da57829003601f168201915b5050509183525050600282810180546040805160206001841615610100026000190190931694909404601f810183900483028501830190915280845293810193908301828280156119895780601f1061195e57610100808354040283529160200191611989565b820191906000526020600020905b81548152906001019060200180831161196c57829003601f168201915b505050918352505060038201805460408051602060026001851615610100026000190190941693909304601f8101849004840282018401909252818152938201939291830182828015611a1d5780601f106119f257610100808354040283529160200191611a1d565b820191906000526020600020905b815481529060010190602001808311611a0057829003601f168201915b505050918352505060048201805460408051602060026001851615610100026000190190941693909304601f8101849004840282018401909252818152938201939291830182828015611ab15780601f10611a8657610100808354040283529160200191611ab1565b820191906000526020600020905b815481529060010190602001808311611a9457829003601f168201915b505050918352505060058201805460408051602060026001851615610100026000190190941693909304601f8101849004840282018401909252818152938201939291830182828015611b455780601f10611b1a57610100808354040283529160200191611b45565b820191906000526020600020905b815481529060010190602001808311611b2857829003601f168201915b505050918352505060068201805460408051602060026001851615610100026000190190941693909304601f8101849004840282018401909252818152938201939291830182828015611bd95780601f10611bae57610100808354040283529160200191611bd9565b820191906000526020600020905b815481529060010190602001808311611bbc57829003601f168201915b505050505081525050815260200190600101906117ad565b505050908252506008919091015460ff161515602090910152601b54601a549192509084011115611cf3576040805180820190915260158082527f496e73756666696369656e742070726f647563747300000000000000000000006020909201918252611c6091601f91613fc2565b50601f8054604080516020600260001961010060018716150201909416939093048085018490048402820184019092528181529291830182828015611ce65780601f10611cbb57610100808354040283529160200191611ce6565b820191906000526020600020905b815481529060010190602001808311611cc957829003601f168201915b5050505050915050612761565b6101008101511515611d5957601f8054604080516020600260001961010060018716150201909416939093048085018490048402820184019092528181529291830182828015611ce65780601f10611cbb57610100808354040283529160200191611ce6565b611d65600b6000614040565b80518051611d7b91600491602090910190613fc2565b506020808201518051611d92926005920190613fc2565b5060408101518051611dac91600691602090910190613fc2565b5060608101518051611dc691600791602090910190613fc2565b5060808101518051611de091600891602090910190613fc2565b50600c805460ff1916600117905560005b8160e0015151811015611f2d57611e06614064565b60e0830151805183908110611e1757fe5b6020908102909101810151600b80546001810180835560009290925282518051939550919385936007929092027f0175b7a638427703f0dbe7bb9bbf987a2551717b34e79f33b5b1008d1fa01db90192611e779284929190910190613fc2565b506020828101518051611e909260018501920190613fc2565b5060408201518051611eac916002840191602090910190613fc2565b5060608201518051611ec8916003840191602090910190613fc2565b5060808201518051611ee4916004840191602090910190613fc2565b5060a08201518051611f00916005840191602090910190613fc2565b5060c08201518051611f1c916006840191602090910190613fc2565b505060019093019250611df1915050565b5060005b8381101561251b57611f41614064565b601b601a54815481101515611f5257fe5b6000918252602091829020604080516007939093029091018054600260018216156101009081026000190190921604601f81018690049095028401810190925260e0830184815292939092849290918491840182828015611ff45780601f10611fc957610100808354040283529160200191611ff4565b820191906000526020600020905b815481529060010190602001808311611fd757829003601f168201915b50505050508152602001600182018054600181600116156101000203166002900480601f0160208091040260200160405190810160405280929190818152602001828054600181600116156101000203166002900480156120965780601f1061206b57610100808354040283529160200191612096565b820191906000526020600020905b81548152906001019060200180831161207957829003601f168201915b5050509183525050600282810180546040805160206001841615610100026000190190931694909404601f810183900483028501830190915280845293810193908301828280156121285780601f106120fd57610100808354040283529160200191612128565b820191906000526020600020905b81548152906001019060200180831161210b57829003601f168201915b505050918352505060038201805460408051602060026001851615610100026000190190941693909304601f81018490048402820184019092528181529382019392918301828280156121bc5780601f10612191576101008083540402835291602001916121bc565b820191906000526020600020905b81548152906001019060200180831161219f57829003601f168201915b505050918352505060048201805460408051602060026001851615610100026000190190941693909304601f81018490048402820184019092528181529382019392918301828280156122505780601f1061222557610100808354040283529160200191612250565b820191906000526020600020905b81548152906001019060200180831161223357829003601f168201915b505050918352505060058201805460408051602060026001851615610100026000190190941693909304601f81018490048402820184019092528181529382019392918301828280156122e45780601f106122b9576101008083540402835291602001916122e4565b820191906000526020600020905b8154815290600101906020018083116122c757829003601f168201915b505050918352505060068201805460408051602060026001851615610100026000190190941693909304601f81018490048402820184019092528181529382019392918301828280156123785780601f1061234d57610100808354040283529160200191612378565b820191906000526020600020905b81548152906001019060200180831161235b57829003601f168201915b5050505050815250509050858160c0018190525085601c82600001516040518082805190602001908083835b602083106123c35780518252601f1990920191602091820191016123a4565b51815160209384036101000a60001901801990921691161790529201948552506040519384900381019093208451612408956006909201949190910192509050613fc2565b50601a80546001908101909155600b805491820180825560009190915282518051919284926007919091027f0175b7a638427703f0dbe7bb9bbf987a2551717b34e79f33b5b1008d1fa01db9019161246591839160200190613fc2565b50602082810151805161247e9260018501920190613fc2565b506040820151805161249a916002840191602090910190613fc2565b50606082015180516124b6916003840191602090910190613fc2565b50608082015180516124d2916004840191602090910190613fc2565b5060a082015180516124ee916005840191602090910190613fc2565b5060c0820151805161250a916006840191602090910190613fc2565b505060019093019250611f31915050565b506004601e856040518082805190602001908083835b602083106125505780518252601f199092019160209182019101612531565b6001836020036101000a0380198251168184511680821785525050505050509050019150509081526020016040518091039020600082018160000190805460018160011615610100020316600290046125aa9291906140a2565b50600182018160010190805460018160011615610100020316600290046125d29291906140a2565b50600282810180546125f79284810192916000196101006001831615020116046140a2565b506003820181600301908054600181600116156101000203166002900461261f9291906140a2565b50600482018160040190805460018160011615610100020316600290046126479291906140a2565b5060058201548160050155600682015481600601556007820181600701908054612672929190614117565b506008918201549101805460ff191660ff909216151591909117905560408051808201909152601c8082527f50726f647563746573204164646564207375636365737366756c6c790000000060209092019182526126d291601f91613fc2565b50601f80546040805160206002600019610100600187161502019094169390930480850184900484028201840190925281815292918301828280156127585780601f1061272d57610100808354040283529160200191612758565b820191906000526020600020905b81548152906001019060200180831161273b57829003601f168201915b50505050509150505b92915050565b60008180519060200120601c836040518082805190602001908083835b602083106127a35780518252601f199092019160209182019101612784565b6001836020036101000a038019825116818451168082178552505050505050905001915050908152602001604051809103902060060160405180828054600181600116156101000203166002900480156128345780601f10612812576101008083540402835291820191612834565b820191906000526020600020905b815481529060010190602001808311612820575b50509150506040518091039020149050919050565b835161285c90600d906020870190613fc2565b50825161287090600e906020860190613fc2565b50815161288490600f906020850190613fc2565b508051612898906010906020840190613fc2565b506128a560116000614040565b600d601d826040518082805190602001908083835b602083106128d95780518252601f1990920191602091820191016128ba565b6001836020036101000a0380198251168184511680821785525050505050509050019150509081526020016040518091039020600082018160000190805460018160011615610100020316600290046129339291906140a2565b506001820181600101908054600181600116156101000203166002900461295b9291906140a2565b50600282810180546129809284810192916000196101006001831615020116046140a2565b50600382018160030190805460018160011615610100020316600290046129a89291906140a2565b50600482810180546129bd9284019190614117565b50505050505050565b84516129d9906004906020880190613fc2565b5083516129ed906005906020870190613fc2565b508251612a01906006906020860190613fc2565b508151612a15906007906020850190613fc2565b508051612a29906008906020840190613fc2565b50600c805460ff191660011790556040518551600491601e91889190819060208401908083835b60208310612a6f5780518252601f199092019160209182019101612a50565b6001836020036101000a038019825116818451168082178552505050505050905001915050908152602001604051809103902060008201816000019080546001816001161561010002031660029004612ac99291906140a2565b5060018201816001019080546001816001161561010002031660029004612af19291906140a2565b5060028281018054612b169284810192916000196101006001831615020116046140a2565b5060038201816003019080546001816001161561010002031660029004612b3e9291906140a2565b5060048201816004019080546001816001161561010002031660029004612b669291906140a2565b5060058201548160050155600682015481600601556007820181600701908054612b91929190614117565b506008918201549101805460ff191660ff90921615159190911790555050505050565b612bbc614064565b87815260208082018890526040808301889052606083018790526080830186905260a0830185905260c083018490525189518392601c928c9290918291908401908083835b60208310612c205780518252601f199092019160209182019101612c01565b51815160209384036101000a6000190180199092169116179052920194855250604051938490038101909320845180519194612c6194508593500190613fc2565b506020828101518051612c7a9260018501920190613fc2565b5060408201518051612c96916002840191602090910190613fc2565b5060608201518051612cb2916003840191602090910190613fc2565b5060808201518051612cce916004840191602090910190613fc2565b5060a08201518051612cea916005840191602090910190613fc2565b5060c08201518051612d06916006840191602090910190613fc2565b5050601b80546001810180835560009290925283518051929350849260079092027f3ad8aa4f87544323a9d1e5dd902f40c356527a7955687113db5f9a85ad579dc10191612d5c91839160209190910190613fc2565b506020828101518051612d759260018501920190613fc2565b5060408201518051612d91916002840191602090910190613fc2565b5060608201518051612dad916003840191602090910190613fc2565b5060808201518051612dc9916004840191602090910190613fc2565b5060a08201518051612de5916005840191602090910190613fc2565b5060c08201518051612e01916006840191602090910190613fc2565b505050505050505050505050565b606080601c836040518082805190602001908083835b60208310612e445780518252601f199092019160209182019101612e25565b6001836020036101000a0380198251168184511680821785525050505050509050019150509081526020016040518091039020600101601c846040518082805190602001908083835b60208310612eac5780518252601f199092019160209182019101612e8d565b518151600019602094850361010090810a820192831692199390931691909117909252949092019687526040805197889003820188208954601f60026001831615909802909501169590950492830182900482028801820190528187526006909301959450869350918401905082828015612f685780601f10612f3d57610100808354040283529160200191612f68565b820191906000526020600020905b815481529060010190602001808311612f4b57829003601f168201915b5050845460408051602060026001851615610100026000190190941693909304601f810184900484028201840190925281815295975086945092508401905082828015612ff65780601f10612fcb57610100808354040283529160200191612ff6565b820191906000526020600020905b815481529060010190602001808311612fd957829003601f168201915b5050505050905091509150915091565b8251613019906000906020860190613fc2565b50815161302d906002906020850190613fc2565b508051613041906001906020840190613fc2565b50505050565b60608060606000601e856040518082805190602001908083835b602083106130805780518252601f199092019160209182019101613061565b6001836020036101000a0380198251168184511680821785525050505050509050019150509081526020016040518091039020600101601e866040518082805190602001908083835b602083106130e85780518252601f1990920191602091820191016130c9565b6001836020036101000a0380198251168184511680821785525050505050509050019150509081526020016040518091039020600301601e876040518082805190602001908083835b602083106131505780518252601f199092019160209182019101613131565b6001836020036101000a0380198251168184511680821785525050505050509050019150509081526020016040518091039020600401601e886040518082805190602001908083835b602083106131b85780518252601f199092019160209182019101613199565b518151600019602094850361010090810a82019283169219939093169190911790925294909201968752604080519788900382018820600701548b54601f6002600183161590980290950116959095049283018290048202880182019052818752929594508893509184019050828280156132745780601f1061324957610100808354040283529160200191613274565b820191906000526020600020905b81548152906001019060200180831161325757829003601f168201915b5050865460408051602060026001851615610100026000190190941693909304601f8101849004840282018401909252818152959950889450925084019050828280156133025780601f106132d757610100808354040283529160200191613302565b820191906000526020600020905b8154815290600101906020018083116132e557829003601f168201915b5050855460408051602060026001851615610100026000190190941693909304601f8101849004840282018401909252818152959850879450925084019050828280156133905780601f1061336557610100808354040283529160200191613390565b820191906000526020600020905b81548152906001019060200180831161337357829003601f168201915b5050505050915093509350935093509193509193565b6060806060601c846040518082805190602001908083835b602083106133dd5780518252601f1990920191602091820191016133be565b51815160209384036101000a6000190180199092169116179052920194855250604051938490038101842088519094601c9450899350918291908401908083835b6020831061343d5780518252601f19909201916020918201910161341e565b6001836020036101000a0380198251168184511680821785525050505050509050019150509081526020016040518091039020600101601c866040518082805190602001908083835b602083106134a55780518252601f199092019160209182019101613486565b518151600019602094850361010090810a820192831692199390931691909117909252949092019687526040805197889003820188208a54601f600260018316159098029095011695909504928301829004820288018201905281875260069093019594508793509184019050828280156135615780601f1061353657610100808354040283529160200191613561565b820191906000526020600020905b81548152906001019060200180831161354457829003601f168201915b5050855460408051602060026001851615610100026000190190941693909304601f8101849004840282018401909252818152959850879450925084019050828280156135ef5780601f106135c4576101008083540402835291602001916135ef565b820191906000526020600020905b8154815290600101906020018083116135d257829003601f168201915b5050845460408051602060026001851615610100026000190190941693909304601f81018490048402820184019092528181529597508694509250840190508282801561367d5780601f106136525761010080835404028352916020019161367d565b820191906000526020600020905b81548152906001019060200180831161366057829003601f168201915b505050505090509250925092509193909250565b61369d600b6000614040565b601e826040518082805190602001908083835b602083106136cf5780518252601f1990920191602091820191016136b0565b6001836020036101000a038019825116818451168082178552505050505050905001915050908152602001604051809103902060046000820181600001908054600181600116156101000203166002900461372b9291906140a2565b50600182018160010190805460018160011615610100020316600290046137539291906140a2565b50600282810180546137789284810192916000196101006001831615020116046140a2565b50600382018160030190805460018160011615610100020316600290046137a09291906140a2565b50600482018160040190805460018160011615610100020316600290046137c89291906140a2565b50600582015481600501556006820154816006015560078201816007019080546137f3929190614117565b506008918201549101805460ff191660ff909216151591909117905561381b60116000614040565b601d816040518082805190602001908083835b6020831061384d5780518252601f19909201916020918201910161382e565b6001836020036101000a0380198251168184511680821785525050505050509050019150509081526020016040518091039020600d600082018160000190805460018160011615610100020316600290046138a99291906140a2565b50600182018160010190805460018160011615610100020316600290046138d19291906140a2565b50600282810180546138f69284810192916000196101006001831615020116046140a2565b506003820181600301908054600181600116156101000203166002900461391e9291906140a2565b50600482810180546139339284019190614117565b5050600b8054909150600090811061394757fe5b906000526020600020906007020160136000820181600001908054600181600116156101000203166002900461397e9291906140a2565b50600182018160010190805460018160011615610100020316600290046139a69291906140a2565b50600282810180546139cb9284810192916000196101006001831615020116046140a2565b50600382018160030190805460018160011615610100020316600290046139f39291906140a2565b5060048201816004019080546001816001161561010002031660029004613a1b9291906140a2565b5060058201816005019080546001816001161561010002031660029004613a439291906140a2565b5060068201816006019080546001816001161561010002031660029004613a6b9291906140a2565b5060009150505b600b5460001901811015613bde57600b805460018301908110613a9157fe5b9060005260206000209060070201600460070182815481101515613ab157fe5b906000526020600020906007020160008201816000019080546001816001161561010002031660029004613ae69291906140a2565b5060018201816001019080546001816001161561010002031660029004613b0e9291906140a2565b5060028281018054613b339284810192916000196101006001831615020116046140a2565b5060038201816003019080546001816001161561010002031660029004613b5b9291906140a2565b5060048201816004019080546001816001161561010002031660029004613b839291906140a2565b5060058201816005019080546001816001161561010002031660029004613bab9291906140a2565b5060068201816006019080546001816001161561010002031660029004613bd39291906140a2565b505050600101613a72565b50600b8054801515613bec57fe5b60008281526020812060001990920191600783020190613c0c828261427b565b613c1a60018301600061427b565b613c2860028301600061427b565b613c3660038301600061427b565b613c4460048301600061427b565b613c5260058301600061427b565b613c6060068301600061427b565b505090556004601e836040518082805190602001908083835b60208310613c985780518252601f199092019160209182019101613c79565b6001836020036101000a038019825116818451168082178552505050505050905001915050908152602001604051809103902060008201816000019080546001816001161561010002031660029004613cf29291906140a2565b5060018201816001019080546001816001161561010002031660029004613d1a9291906140a2565b5060028281018054613d3f9284810192916000196101006001831615020116046140a2565b5060038201816003019080546001816001161561010002031660029004613d679291906140a2565b5060048201816004019080546001816001161561010002031660029004613d8f9291906140a2565b5060058201548160050155600682015481600601556007820181600701908054613dba929190614117565b506008918201549101805460ff191660ff90921615159190911790556040518151601d918391819060208401908083835b60208310613e0a5780518252601f199092019160209182019101613deb565b518151602093840361010090810a600019908101801990941693909216929092179092529290940196875260405196879003810190962060040180546001808201808455600093845298909220601380549098506007909202019550613e7e948694508793600293831615020116046140a2565b5060018201816001019080546001816001161561010002031660029004613ea69291906140a2565b5060028281018054613ecb9284810192916000196101006001831615020116046140a2565b5060038201816003019080546001816001161561010002031660029004613ef39291906140a2565b5060048201816004019080546001816001161561010002031660029004613f1b9291906140a2565b5060058201816005019080546001816001161561010002031660029004613f439291906140a2565b5060068201816006019080546001816001161561010002031660029004613f6b9291906140a2565b505050505050565b6101206040519081016040528060608152602001606081526020016060815260200160608152602001606081526020016000815260200160008152602001606081526020016000151581525090565b828054600181600116156101000203166002900490600052602060002090601f016020900481019282601f1061400357805160ff1916838001178555614030565b82800160010185558215614030579182015b82811115614030578251825591602001919060010190614015565b5061403c9291506142bb565b5090565b508054600082556007029060005260206000209081019061406191906142d8565b50565b60e060405190810160405280606081526020016060815260200160608152602001606081526020016060815260200160608152602001606081525090565b828054600181600116156101000203166002900490600052602060002090601f016020900481019282601f106140db5780548555614030565b8280016001018555821561403057600052602060002091601f016020900482015b828111156140305782548255916001019190600101906140fc565b82805482825590600052602060002090600702810192821561426f5760005260206000209160070282015b8281111561426f578254839083906141709082908490600260001961010060018416150201909116046140a2565b50600182018160010190805460018160011615610100020316600290046141989291906140a2565b50600282810180546141bd9284810192916000196101006001831615020116046140a2565b50600382018160030190805460018160011615610100020316600290046141e59291906140a2565b506004820181600401908054600181600116156101000203166002900461420d9291906140a2565b50600582018160050190805460018160011615610100020316600290046142359291906140a2565b506006820181600601908054600181600116156101000203166002900461425d9291906140a2565b50505091600701919060070190614142565b5061403c9291506142d8565b50805460018160011615610100020316600290046000825580601f106142a15750614061565b601f01602090049060005260206000209081019061406191905b6142d591905b8082111561403c57600081556001016142c1565b90565b6142d591905b8082111561403c5760006142f2828261427b565b61430060018301600061427b565b61430e60028301600061427b565b61431c60038301600061427b565b61432a60048301600061427b565b61433860058301600061427b565b61434660068301600061427b565b506007016142de56fea165627a7a7230582016cf9a2c9043ccc5ef3edf3ea64dc4e0aeafc62f34ebe64efc0c24fcff18d5b50029",
  "source": "// SPDX-License-Identifier: MIT\r\npragma solidity >=0.4.22 <0.9.0;\r\n\r\ncontract BlockFeit {\r\n\r\n    struct Product {\r\n\r\n        string id;\r\n        string name;\r\n        string width;\r\n        string height;\r\n        string time_stamp;\r\n        string batch;\r\n        string ownwer;\r\n    }\r\n\r\n    struct Customer {\r\n\r\n        string id;\r\n        string name;\r\n        string phone_no;\r\n        string email;\r\n        Product[] purchesed;\r\n    }\r\n\r\n     struct Retailer {\r\n\r\n        string id;\r\n        string name;\r\n        string phone_no;\r\n        string email;\r\n        string location;\r\n        uint remaining;\r\n        uint sold;\r\n        Product[] available;\r\n        bool present;\r\n    }\r\n\r\n    string private manufacturer;\r\n    string brand;\r\n    string location;\r\n    uint total_manufacturered;\r\n    Retailer tempRetailer;\r\n    Customer tempCustomer;\r\n    Product[] tempProducts;\r\n    Product tempProduct;\r\n    uint indx;\r\n    Product[] manufacturered;\r\n    \r\n    mapping(string => Product) productMapping;\r\n    mapping(string => Customer) customers;\r\n    mapping(string => Retailer) retailers;\r\n\r\n\r\n    function sellProductToCustomer(string memory _seller_id, string memory _customer_id) public {\r\n\r\n        delete tempRetailer.available;\r\n        tempRetailer =  retailers[_seller_id];\r\n        delete tempCustomer.purchesed;\r\n        tempCustomer = customers[_customer_id];\r\n        tempProduct = tempRetailer.available[0];\r\n\r\n        for(uint i = 0; i < tempRetailer.available.length-1; i++) {\r\n\r\n            tempRetailer.available[i] = tempRetailer.available[i+1];\r\n        }\r\n\r\n        tempRetailer.available.pop();\r\n        retailers[_seller_id] = tempRetailer;\r\n        customers[_customer_id].purchesed.push(tempProduct);\r\n    }\r\n\r\n\r\n\r\n\r\n\r\n    constructor() public{\r\n\r\n        total_manufacturered = 0;\r\n        indx = 0;\r\n    }\r\n\r\n    function addManufacturer(string memory _manufacturer, string memory _location, string memory _brand) public {\r\n\r\n        manufacturer = _manufacturer;\r\n        location = _location;\r\n        brand = _brand;\r\n\r\n    }\r\n\r\n    \r\n    function addProduct(string memory _id, \r\n                        string memory _name, \r\n                        string memory _width, \r\n                        string memory _height,\r\n                        string memory _time_stamp,\r\n                        string memory _batch,\r\n                        string memory _owner\r\n                        ) public {\r\n\r\n            Product memory product;\r\n            product.id = _id;\r\n            product.name = _name;\r\n            product.width = _width;\r\n            product.height = _height;\r\n            product.time_stamp = _time_stamp;\r\n            product.batch = _batch;\r\n            product.ownwer = _owner;\r\n\r\n            productMapping[_id] = product;\r\n            manufacturered.push(product);\r\n    }\r\n\r\n    function getProductDetail(string memory _product_id) public view returns(string memory, string memory, string memory) {\r\n\r\n        return(productMapping[_product_id].id, productMapping[_product_id].name, productMapping[_product_id].ownwer);\r\n    }\r\n\r\n\r\n    function addCustomer(string memory _id,\r\n                        string memory _name,\r\n                        string memory _phone_no,\r\n                        string memory _email\r\n                        ) public {\r\n\r\n            tempCustomer.id = _id;\r\n            tempCustomer.name = _name;\r\n            tempCustomer.phone_no = _phone_no;\r\n            tempCustomer.email = _email;\r\n            delete tempCustomer.purchesed;\r\n            customers[_email] = tempCustomer;\r\n    }\r\n\r\n    string MSG = \"Retailer Does not Exist\";\r\n    function sellProductsToRetailer (string memory _id, uint _quantity)  public returns(string memory) {\r\n      \r\n        Retailer memory retailer = retailers[_id];\r\n        if((_quantity+indx) > manufacturered.length) {\r\n\r\n            MSG = \"Insufficient products\";\r\n            return (MSG);\r\n        }\r\n        else if(retailer.present == false) {\r\n\r\n            return (MSG);\r\n        }\r\n\r\n        delete tempRetailer.available;\r\n        \r\n        \r\n        tempRetailer.id = retailer.id;\r\n        tempRetailer.name = retailer.name;\r\n        tempRetailer.phone_no = retailer.phone_no;\r\n        tempRetailer.email = retailer.email;\r\n        tempRetailer.location = retailer.location;\r\n        tempRetailer.present = true;\r\n\r\n        for(uint tt = 0; tt < retailer.available.length;  tt++) {\r\n\r\n            Product memory p = retailer.available[tt];\r\n            tempRetailer.available.push(p);\r\n        }\r\n\r\n        for(uint i = 0; i < _quantity; i++) {\r\n\r\n            // Product memory present = retailer.available[i];\r\n            Product memory present = manufacturered[indx];\r\n            present.ownwer = _id;\r\n            productMapping[present.id].ownwer = _id;\r\n            indx++;\r\n            tempRetailer.available.push(present);\r\n        }\r\n        retailers[_id] = tempRetailer;\r\n        MSG = \"Productes Added successfully\";\r\n        return MSG;\r\n    }\r\n\r\n\r\n   function addRetailer(string memory _id,\r\n                        string memory _name,\r\n                        string memory _phone_no,\r\n                        string memory _email,\r\n                        string memory _location) public  {\r\n\r\n\r\n            tempRetailer.id = _id;\r\n            tempRetailer.name = _name;\r\n            tempRetailer.phone_no = _phone_no;\r\n            tempRetailer.email = _email;\r\n            tempRetailer.location = _location;\r\n            tempRetailer.present = true;\r\n            retailers[_id] = tempRetailer;\r\n    }\r\n\r\n\r\n\r\n\r\n\r\n    function getRetailerDetails(string memory retailer_id) public view returns(string memory, string memory, string memory, uint) {\r\n\r\n\r\n        return(retailers[retailer_id].name, retailers[retailer_id].email, retailers[retailer_id].location, retailers[retailer_id].available.length);\r\n\r\n    }\r\n\r\n\r\n   \r\n   function getOwnerOfProduct(string memory product_id) public view returns(string memory, string memory) {\r\n\r\n        return(productMapping[product_id].name, productMapping[product_id].ownwer);\r\n    }\r\n\r\n\r\n    function verifyOwnership(string memory owner_id) public view returns(bool) {\r\n\r\n        return(keccak256(bytes(productMapping[owner_id].ownwer)) == keccak256(bytes(owner_id)));\r\n\r\n    }\r\n} \r\n",
  "sourcePath": "D:/BE-project/BlockFeit-BE-project/Back-end/contracts/BlockFeit.sol",
  "compiler": {
    "name": "solc",
    "version": "0.5.0+commit.1d4f565a.Emscripten.clang"
  },
  "schemaVersion": "3.0.1",
  "updatedAt": "2022-01-29T07:00:16.616Z",
  "devdoc": {
    "methods": {}
  },
  "userdoc": {
    "methods": {}
  }
}