{
  "contractName": "BlockFeit",
  "abi": [
    {
      "inputs": [],
      "payable": false,
      "stateMutability": "nonpayable",
      "type": "constructor",
      "signature": "constructor"
    },
    {
      "constant": false,
      "inputs": [
        {
          "name": "_manufacturer",
          "type": "string"
        },
        {
          "name": "_location",
          "type": "string"
        },
        {
          "name": "_brand",
          "type": "string"
        }
      ],
      "name": "addManufacturer",
      "outputs": [],
      "payable": false,
      "stateMutability": "nonpayable",
      "type": "function",
      "signature": "0xbc544e7d"
    },
    {
      "constant": false,
      "inputs": [
        {
          "name": "_id",
          "type": "string"
        },
        {
          "name": "_name",
          "type": "string"
        },
        {
          "name": "_phone_no",
          "type": "string"
        },
        {
          "name": "_email",
          "type": "string"
        },
        {
          "name": "_location",
          "type": "string"
        }
      ],
      "name": "addRetailer",
      "outputs": [],
      "payable": false,
      "stateMutability": "nonpayable",
      "type": "function",
      "signature": "0x619cce0f"
    },
    {
      "constant": false,
      "inputs": [
        {
          "name": "_id",
          "type": "string"
        },
        {
          "name": "_name",
          "type": "string"
        },
        {
          "name": "_phone_no",
          "type": "string"
        },
        {
          "name": "_email",
          "type": "string"
        }
      ],
      "name": "addCustomer",
      "outputs": [],
      "payable": false,
      "stateMutability": "nonpayable",
      "type": "function",
      "signature": "0x5c025f94"
    },
    {
      "constant": false,
      "inputs": [
        {
          "name": "_id",
          "type": "string"
        },
        {
          "name": "_quantity",
          "type": "uint256"
        }
      ],
      "name": "sellProductsToRetailer",
      "outputs": [
        {
          "name": "",
          "type": "string"
        }
      ],
      "payable": false,
      "stateMutability": "nonpayable",
      "type": "function",
      "signature": "0x1b412927"
    },
    {
      "constant": false,
      "inputs": [
        {
          "name": "_seller_id",
          "type": "string"
        },
        {
          "name": "_customer_id",
          "type": "string"
        }
      ],
      "name": "sellProductToCustomer",
      "outputs": [],
      "payable": false,
      "stateMutability": "nonpayable",
      "type": "function",
      "signature": "0xffad4f0d"
    },
    {
      "constant": false,
      "inputs": [
        {
          "name": "_id",
          "type": "string"
        },
        {
          "name": "_name",
          "type": "string"
        },
        {
          "name": "_width",
          "type": "string"
        },
        {
          "name": "_height",
          "type": "string"
        },
        {
          "name": "_time_stamp",
          "type": "string"
        },
        {
          "name": "_batch",
          "type": "string"
        },
        {
          "name": "_owner",
          "type": "string"
        }
      ],
      "name": "addProduct",
      "outputs": [],
      "payable": false,
      "stateMutability": "nonpayable",
      "type": "function",
      "signature": "0x67a6377a"
    },
    {
      "constant": true,
      "inputs": [
        {
          "name": "_product_id",
          "type": "string"
        }
      ],
      "name": "getProductDetail",
      "outputs": [
        {
          "name": "",
          "type": "string"
        },
        {
          "name": "",
          "type": "string"
        },
        {
          "name": "",
          "type": "string"
        },
        {
          "name": "",
          "type": "string"
        },
        {
          "name": "",
          "type": "string"
        },
        {
          "name": "",
          "type": "string"
        },
        {
          "name": "",
          "type": "string"
        }
      ],
      "payable": false,
      "stateMutability": "view",
      "type": "function",
      "signature": "0xee786260"
    },
    {
      "constant": true,
      "inputs": [
        {
          "name": "_retailer_id",
          "type": "string"
        }
      ],
      "name": "getRetailerProductCount",
      "outputs": [
        {
          "name": "",
          "type": "uint256"
        }
      ],
      "payable": false,
      "stateMutability": "view",
      "type": "function",
      "signature": "0x3215769e"
    },
    {
      "constant": true,
      "inputs": [
        {
          "name": "_customer_id",
          "type": "string"
        }
      ],
      "name": "getCustomerProductCount",
      "outputs": [
        {
          "name": "",
          "type": "uint256"
        }
      ],
      "payable": false,
      "stateMutability": "view",
      "type": "function",
      "signature": "0x301574c0"
    },
    {
      "constant": true,
      "inputs": [],
      "name": "getManufacturerCount",
      "outputs": [
        {
          "name": "",
          "type": "uint256"
        }
      ],
      "payable": false,
      "stateMutability": "view",
      "type": "function",
      "signature": "0xa9416c9e"
    },
    {
      "constant": true,
      "inputs": [
        {
          "name": "retailer_id",
          "type": "string"
        }
      ],
      "name": "getRetailerDetails",
      "outputs": [
        {
          "name": "",
          "type": "string"
        },
        {
          "name": "",
          "type": "string"
        },
        {
          "name": "",
          "type": "string"
        },
        {
          "name": "",
          "type": "string"
        },
        {
          "name": "",
          "type": "string"
        },
        {
          "name": "",
          "type": "uint256"
        }
      ],
      "payable": false,
      "stateMutability": "view",
      "type": "function",
      "signature": "0xea788dd1"
    },
    {
      "constant": true,
      "inputs": [
        {
          "name": "product_id",
          "type": "string"
        }
      ],
      "name": "getOwnerOfProduct",
      "outputs": [
        {
          "name": "",
          "type": "string"
        },
        {
          "name": "",
          "type": "string"
        }
      ],
      "payable": false,
      "stateMutability": "view",
      "type": "function",
      "signature": "0x9fd42e64"
    },
    {
      "constant": true,
      "inputs": [
        {
          "name": "product_id",
          "type": "string"
        },
        {
          "name": "owner_id",
          "type": "string"
        }
      ],
      "name": "verifyOwnership",
      "outputs": [
        {
          "name": "",
          "type": "bool"
        }
      ],
      "payable": false,
      "stateMutability": "view",
      "type": "function",
      "signature": "0xc196b082"
    }
  ],
  "bytecode": "0x60c0604052601760808190527f52657461696c657220446f6573206e6f7420457869737400000000000000000060a09081526200004091601f91906200005f565b503480156200004e57600080fd5b506000600281905560045562000104565b828054600181600116156101000203166002900490600052602060002090601f016020900481019282601f10620000a257805160ff1916838001178555620000d2565b82800160010185558215620000d2579182015b82811115620000d2578251825591602001919060010190620000b5565b50620000e0929150620000e4565b5090565b6200010191905b80821115620000e05760008155600101620000eb565b90565b614f6580620001146000396000f3fe6080604052600436106100c45763ffffffff7c01000000000000000000000000000000000000000000000000000000006000350416631b41292781146100c9578063301574c0146101f35780633215769e146102b85780635c025f941461036b578063619cce0f146105b557806367a6377a146108845780639fd42e6414610c61578063a9416c9e14610df2578063bc544e7d14610e07578063c196b08214610fc8578063ea788dd114611116578063ee786260146113e0578063ffad4f0d14611772575b600080fd5b3480156100d557600080fd5b5061017e600480360360408110156100ec57600080fd5b81019060208101813564010000000081111561010757600080fd5b82018360208201111561011957600080fd5b8035906020019184600183028401116401000000008311171561013b57600080fd5b91908080601f01602080910402602001604051908101604052809392919081815260200183838082843760009201919091525092955050913592506118ac915050565b6040805160208082528351818301528351919283929083019185019080838360005b838110156101b85781810151838201526020016101a0565b50505050905090810190601f1680156101e55780820380516001836020036101000a031916815260200191505b509250505060405180910390f35b3480156101ff57600080fd5b506102a66004803603602081101561021657600080fd5b81019060208101813564010000000081111561023157600080fd5b82018360208201111561024357600080fd5b8035906020019184600183028401116401000000008311171561026557600080fd5b91908080601f016020809104026020016040519081016040528093929190818152602001838380828437600092019190915250929550612c03945050505050565b60408051918252519081900360200190f35b3480156102c457600080fd5b506102a6600480360360208110156102db57600080fd5b8101906020810181356401000000008111156102f657600080fd5b82018360208201111561030857600080fd5b8035906020019184600183028401116401000000008311171561032a57600080fd5b91908080601f016020809104026020016040519081016040528093929190818152602001838380828437600092019190915250929550612c6e945050505050565b34801561037757600080fd5b506105b36004803603608081101561038e57600080fd5b8101906020810181356401000000008111156103a957600080fd5b8201836020820111156103bb57600080fd5b803590602001918460018302840111640100000000831117156103dd57600080fd5b91908080601f016020809104026020016040519081016040528093929190818152602001838380828437600092019190915250929594936020810193503591505064010000000081111561043057600080fd5b82018360208201111561044257600080fd5b8035906020019184600183028401116401000000008311171561046457600080fd5b91908080601f01602080910402602001604051908101604052809392919081815260200183838082843760009201919091525092959493602081019350359150506401000000008111156104b757600080fd5b8201836020820111156104c957600080fd5b803590602001918460018302840111640100000000831117156104eb57600080fd5b91908080601f016020809104026020016040519081016040528093929190818152602001838380828437600092019190915250929594936020810193503591505064010000000081111561053e57600080fd5b82018360208201111561055057600080fd5b8035906020019184600183028401116401000000008311171561057257600080fd5b91908080601f016020809104026020016040519081016040528093929190818152602001838380828437600092019190915250929550612cd9945050505050565b005b3480156105c157600080fd5b506105b3600480360360a08110156105d857600080fd5b8101906020810181356401000000008111156105f357600080fd5b82018360208201111561060557600080fd5b8035906020019184600183028401116401000000008311171561062757600080fd5b91908080601f016020809104026020016040519081016040528093929190818152602001838380828437600092019190915250929594936020810193503591505064010000000081111561067a57600080fd5b82018360208201111561068c57600080fd5b803590602001918460018302840111640100000000831117156106ae57600080fd5b91908080601f016020809104026020016040519081016040528093929190818152602001838380828437600092019190915250929594936020810193503591505064010000000081111561070157600080fd5b82018360208201111561071357600080fd5b8035906020019184600183028401116401000000008311171561073557600080fd5b91908080601f016020809104026020016040519081016040528093929190818152602001838380828437600092019190915250929594936020810193503591505064010000000081111561078857600080fd5b82018360208201111561079a57600080fd5b803590602001918460018302840111640100000000831117156107bc57600080fd5b91908080601f016020809104026020016040519081016040528093929190818152602001838380828437600092019190915250929594936020810193503591505064010000000081111561080f57600080fd5b82018360208201111561082157600080fd5b8035906020019184600183028401116401000000008311171561084357600080fd5b91908080601f016020809104026020016040519081016040528093929190818152602001838380828437600092019190915250929550612e56945050505050565b34801561089057600080fd5b506105b3600480360360e08110156108a757600080fd5b8101906020810181356401000000008111156108c257600080fd5b8201836020820111156108d457600080fd5b803590602001918460018302840111640100000000831117156108f657600080fd5b91908080601f016020809104026020016040519081016040528093929190818152602001838380828437600092019190915250929594936020810193503591505064010000000081111561094957600080fd5b82018360208201111561095b57600080fd5b8035906020019184600183028401116401000000008311171561097d57600080fd5b91908080601f01602080910402602001604051908101604052809392919081815260200183838082843760009201919091525092959493602081019350359150506401000000008111156109d057600080fd5b8201836020820111156109e257600080fd5b80359060200191846001830284011164010000000083111715610a0457600080fd5b91908080601f0160208091040260200160405190810160405280939291908181526020018383808284376000920191909152509295949360208101935035915050640100000000811115610a5757600080fd5b820183602082011115610a6957600080fd5b80359060200191846001830284011164010000000083111715610a8b57600080fd5b91908080601f0160208091040260200160405190810160405280939291908181526020018383808284376000920191909152509295949360208101935035915050640100000000811115610ade57600080fd5b820183602082011115610af057600080fd5b80359060200191846001830284011164010000000083111715610b1257600080fd5b91908080601f0160208091040260200160405190810160405280939291908181526020018383808284376000920191909152509295949360208101935035915050640100000000811115610b6557600080fd5b820183602082011115610b7757600080fd5b80359060200191846001830284011164010000000083111715610b9957600080fd5b91908080601f0160208091040260200160405190810160405280939291908181526020018383808284376000920191909152509295949360208101935035915050640100000000811115610bec57600080fd5b820183602082011115610bfe57600080fd5b80359060200191846001830284011164010000000083111715610c2057600080fd5b91908080601f016020809104026020016040519081016040528093929190818152602001838380828437600092019190915250929550613044945050505050565b348015610c6d57600080fd5b50610d1460048036036020811015610c8457600080fd5b810190602081018135640100000000811115610c9f57600080fd5b820183602082011115610cb157600080fd5b80359060200191846001830284011164010000000083111715610cd357600080fd5b91908080601f0160208091040260200160405190810160405280939291908181526020018383808284376000920191909152509295506132a8945050505050565b604051808060200180602001838103835285818151815260200191508051906020019080838360005b83811015610d55578181015183820152602001610d3d565b50505050905090810190601f168015610d825780820380516001836020036101000a031916815260200191505b50838103825284518152845160209182019186019080838360005b83811015610db5578181015183820152602001610d9d565b50505050905090810190601f168015610de25780820380516001836020036101000a031916815260200191505b5094505050505060405180910390f35b348015610dfe57600080fd5b506102a661349f565b348015610e1357600080fd5b506105b360048036036060811015610e2a57600080fd5b810190602081018135640100000000811115610e4557600080fd5b820183602082011115610e5757600080fd5b80359060200191846001830284011164010000000083111715610e7957600080fd5b91908080601f0160208091040260200160405190810160405280939291908181526020018383808284376000920191909152509295949360208101935035915050640100000000811115610ecc57600080fd5b820183602082011115610ede57600080fd5b80359060200191846001830284011164010000000083111715610f0057600080fd5b91908080601f0160208091040260200160405190810160405280939291908181526020018383808284376000920191909152509295949360208101935035915050640100000000811115610f5357600080fd5b820183602082011115610f6557600080fd5b80359060200191846001830284011164010000000083111715610f8757600080fd5b91908080601f0160208091040260200160405190810160405280939291908181526020018383808284376000920191909152509295506134aa945050505050565b348015610fd457600080fd5b5061110260048036036040811015610feb57600080fd5b81019060208101813564010000000081111561100657600080fd5b82018360208201111561101857600080fd5b8035906020019184600183028401116401000000008311171561103a57600080fd5b91908080601f016020809104026020016040519081016040528093929190818152602001838380828437600092019190915250929594936020810193503591505064010000000081111561108d57600080fd5b82018360208201111561109f57600080fd5b803590602001918460018302840111640100000000831117156110c157600080fd5b91908080601f0160208091040260200160405190810160405280939291908181526020018383808284376000920191909152509295506134eb945050505050565b604080519115158252519081900360200190f35b34801561112257600080fd5b506111c96004803603602081101561113957600080fd5b81019060208101813564010000000081111561115457600080fd5b82018360208201111561116657600080fd5b8035906020019184600183028401116401000000008311171561118857600080fd5b91908080601f0160208091040260200160405190810160405280939291908181526020018383808284376000920191909152509295506135ce945050505050565b60405180806020018060200180602001806020018060200187815260200186810386528c818151815260200191508051906020019080838360005b8381101561121c578181015183820152602001611204565b50505050905090810190601f1680156112495780820380516001836020036101000a031916815260200191505b5086810385528b5181528b516020918201918d019080838360005b8381101561127c578181015183820152602001611264565b50505050905090810190601f1680156112a95780820380516001836020036101000a031916815260200191505b5086810384528a5181528a516020918201918c019080838360005b838110156112dc5781810151838201526020016112c4565b50505050905090810190601f1680156113095780820380516001836020036101000a031916815260200191505b5086810383528951815289516020918201918b019080838360005b8381101561133c578181015183820152602001611324565b50505050905090810190601f1680156113695780820380516001836020036101000a031916815260200191505b5086810382528851815288516020918201918a019080838360005b8381101561139c578181015183820152602001611384565b50505050905090810190601f1680156113c95780820380516001836020036101000a031916815260200191505b509b50505050505050505050505060405180910390f35b3480156113ec57600080fd5b506114936004803603602081101561140357600080fd5b81019060208101813564010000000081111561141e57600080fd5b82018360208201111561143057600080fd5b8035906020019184600183028401116401000000008311171561145257600080fd5b91908080601f016020809104026020016040519081016040528093929190818152602001838380828437600092019190915250929550613b1a945050505050565b604051808060200180602001806020018060200180602001806020018060200188810388528f818151815260200191508051906020019080838360005b838110156114e85781810151838201526020016114d0565b50505050905090810190601f1680156115155780820380516001836020036101000a031916815260200191505b5088810387528e818151815260200191508051906020019080838360005b8381101561154b578181015183820152602001611533565b50505050905090810190601f1680156115785780820380516001836020036101000a031916815260200191505b5088810386528d5181528d516020918201918f019080838360005b838110156115ab578181015183820152602001611593565b50505050905090810190601f1680156115d85780820380516001836020036101000a031916815260200191505b5088810385528c5181528c516020918201918e019080838360005b8381101561160b5781810151838201526020016115f3565b50505050905090810190601f1680156116385780820380516001836020036101000a031916815260200191505b5088810384528b5181528b516020918201918d019080838360005b8381101561166b578181015183820152602001611653565b50505050905090810190601f1680156116985780820380516001836020036101000a031916815260200191505b5088810383528a5181528a516020918201918c019080838360005b838110156116cb5781810151838201526020016116b3565b50505050905090810190601f1680156116f85780820380516001836020036101000a031916815260200191505b5088810382528951815289516020918201918b019080838360005b8381101561172b578181015183820152602001611713565b50505050905090810190601f1680156117585780820380516001836020036101000a031916815260200191505b509e50505050505050505050505050505060405180910390f35b34801561177e57600080fd5b506105b36004803603604081101561179557600080fd5b8101906020810181356401000000008111156117b057600080fd5b8201836020820111156117c257600080fd5b803590602001918460018302840111640100000000831117156117e457600080fd5b91908080601f016020809104026020016040519081016040528093929190818152602001838380828437600092019190915250929594936020810193503591505064010000000081111561183757600080fd5b82018360208201111561184957600080fd5b8035906020019184600183028401116401000000008311171561186b57600080fd5b91908080601f0160208091040260200160405190810160405280939291908181526020018383808284376000920191909152509295506141ef945050505050565b60606118b6614b60565b601d846040518082805190602001908083835b602083106118e85780518252601f1990920191602091820191016118c9565b518151600019602094850361010090810a820192831692199390931691909117909252949092019687526040805197889003820188208054610140601f60026001841615909902909601909116969096049384018390049092028801850190526101208701828152909550869450928592508401828280156119ab5780601f10611980576101008083540402835291602001916119ab565b820191906000526020600020905b81548152906001019060200180831161198e57829003601f168201915b50505050508152602001600182018054600181600116156101000203166002900480601f016020809104026020016040519081016040528092919081815260200182805460018160011615610100020316600290048015611a4d5780601f10611a2257610100808354040283529160200191611a4d565b820191906000526020600020905b815481529060010190602001808311611a3057829003601f168201915b5050509183525050600282810180546040805160206001841615610100026000190190931694909404601f81018390048302850183019091528084529381019390830182828015611adf5780601f10611ab457610100808354040283529160200191611adf565b820191906000526020600020905b815481529060010190602001808311611ac257829003601f168201915b505050918352505060038201805460408051602060026001851615610100026000190190941693909304601f8101849004840282018401909252818152938201939291830182828015611b735780601f10611b4857610100808354040283529160200191611b73565b820191906000526020600020905b815481529060010190602001808311611b5657829003601f168201915b505050918352505060048201805460408051602060026001851615610100026000190190941693909304601f8101849004840282018401909252818152938201939291830182828015611c075780601f10611bdc57610100808354040283529160200191611c07565b820191906000526020600020905b815481529060010190602001808311611bea57829003601f168201915b50505050508152602001600582015481526020016006820154815260200160078201805480602002602001604051908101604052809291908181526020016000905b8282101561208d57600084815260209081902060408051600786029092018054600260018216156101009081026000190190921604601f81018690049095028401810190925260e0830184815292939092849290918491840182828015611cf15780601f10611cc657610100808354040283529160200191611cf1565b820191906000526020600020905b815481529060010190602001808311611cd457829003601f168201915b50505050508152602001600182018054600181600116156101000203166002900480601f016020809104026020016040519081016040528092919081815260200182805460018160011615610100020316600290048015611d935780601f10611d6857610100808354040283529160200191611d93565b820191906000526020600020905b815481529060010190602001808311611d7657829003601f168201915b5050509183525050600282810180546040805160206001841615610100026000190190931694909404601f81018390048302850183019091528084529381019390830182828015611e255780601f10611dfa57610100808354040283529160200191611e25565b820191906000526020600020905b815481529060010190602001808311611e0857829003601f168201915b505050918352505060038201805460408051602060026001851615610100026000190190941693909304601f8101849004840282018401909252818152938201939291830182828015611eb95780601f10611e8e57610100808354040283529160200191611eb9565b820191906000526020600020905b815481529060010190602001808311611e9c57829003601f168201915b505050918352505060048201805460408051602060026001851615610100026000190190941693909304601f8101849004840282018401909252818152938201939291830182828015611f4d5780601f10611f2257610100808354040283529160200191611f4d565b820191906000526020600020905b815481529060010190602001808311611f3057829003601f168201915b505050918352505060058201805460408051602060026001851615610100026000190190941693909304601f8101849004840282018401909252818152938201939291830182828015611fe15780601f10611fb657610100808354040283529160200191611fe1565b820191906000526020600020905b815481529060010190602001808311611fc457829003601f168201915b505050918352505060068201805460408051602060026001851615610100026000190190941693909304601f81018490048402820184019092528181529382019392918301828280156120755780601f1061204a57610100808354040283529160200191612075565b820191906000526020600020905b81548152906001019060200180831161205857829003601f168201915b50505050508152505081526020019060010190611c49565b505050908252506008919091015460ff161515602090910152601b54600454919250908401111561218f576040805180820190915260158082527f496e73756666696369656e742070726f6475637473000000000000000000000060209092019182526120fc91601f91614baf565b50601f80546040805160206002600019610100600187161502019094169390930480850184900484028201840190925281815292918301828280156121825780601f1061215757610100808354040283529160200191612182565b820191906000526020600020905b81548152906001019060200180831161216557829003601f168201915b5050505050915050612bfd565b61010081015115156121f557601f80546040805160206002600019610100600187161502019094169390930480850184900484028201840190925281815292918301828280156121825780601f1061215757610100808354040283529160200191612182565b61220160136000614c2d565b8051805161221791600c91602090910190614baf565b50602080820151805161222e92600d920190614baf565b506040810151805161224891600e91602090910190614baf565b506060810151805161226291600f91602090910190614baf565b506080810151805161227c91601091602090910190614baf565b506014805460ff1916600117905560005b8160e00151518110156123c9576122a2614c51565b60e08301518051839081106122b357fe5b6020908102909101810151601380546001810180835560009290925282518051939550919385936007929092027f66de8ffda797e3de9c05e8fc57b3bf0ec28a930d40b0d285d93c06501cf6a09001926123139284929190910190614baf565b50602082810151805161232c9260018501920190614baf565b5060408201518051612348916002840191602090910190614baf565b5060608201518051612364916003840191602090910190614baf565b5060808201518051612380916004840191602090910190614baf565b5060a0820151805161239c916005840191602090910190614baf565b5060c082015180516123b8916006840191602090910190614baf565b50506001909301925061228d915050565b5060005b838110156129b7576123dd614c51565b601b6004548154811015156123ee57fe5b6000918252602091829020604080516007939093029091018054600260018216156101009081026000190190921604601f81018690049095028401810190925260e08301848152929390928492909184918401828280156124905780601f1061246557610100808354040283529160200191612490565b820191906000526020600020905b81548152906001019060200180831161247357829003601f168201915b50505050508152602001600182018054600181600116156101000203166002900480601f0160208091040260200160405190810160405280929190818152602001828054600181600116156101000203166002900480156125325780601f1061250757610100808354040283529160200191612532565b820191906000526020600020905b81548152906001019060200180831161251557829003601f168201915b5050509183525050600282810180546040805160206001841615610100026000190190931694909404601f810183900483028501830190915280845293810193908301828280156125c45780601f10612599576101008083540402835291602001916125c4565b820191906000526020600020905b8154815290600101906020018083116125a757829003601f168201915b505050918352505060038201805460408051602060026001851615610100026000190190941693909304601f81018490048402820184019092528181529382019392918301828280156126585780601f1061262d57610100808354040283529160200191612658565b820191906000526020600020905b81548152906001019060200180831161263b57829003601f168201915b505050918352505060048201805460408051602060026001851615610100026000190190941693909304601f81018490048402820184019092528181529382019392918301828280156126ec5780601f106126c1576101008083540402835291602001916126ec565b820191906000526020600020905b8154815290600101906020018083116126cf57829003601f168201915b505050918352505060058201805460408051602060026001851615610100026000190190941693909304601f81018490048402820184019092528181529382019392918301828280156127805780601f1061275557610100808354040283529160200191612780565b820191906000526020600020905b81548152906001019060200180831161276357829003601f168201915b505050918352505060068201805460408051602060026001851615610100026000190190941693909304601f81018490048402820184019092528181529382019392918301828280156128145780601f106127e957610100808354040283529160200191612814565b820191906000526020600020905b8154815290600101906020018083116127f757829003601f168201915b5050505050815250509050858160c0018190525085601e82600001516040518082805190602001908083835b6020831061285f5780518252601f199092019160209182019101612840565b51815160209384036101000a600019018019909216911617905292019485525060405193849003810190932084516128a4956006909201949190910192509050614baf565b506004805460019081019091556013805491820180825560009190915282518051919284926007919091027f66de8ffda797e3de9c05e8fc57b3bf0ec28a930d40b0d285d93c06501cf6a090019161290191839160200190614baf565b50602082810151805161291a9260018501920190614baf565b5060408201518051612936916002840191602090910190614baf565b5060608201518051612952916003840191602090910190614baf565b506080820151805161296e916004840191602090910190614baf565b5060a0820151805161298a916005840191602090910190614baf565b5060c082015180516129a6916006840191602090910190614baf565b5050600190930192506123cd915050565b50600c601d856040518082805190602001908083835b602083106129ec5780518252601f1990920191602091820191016129cd565b6001836020036101000a038019825116818451168082178552505050505050905001915050908152602001604051809103902060008201816000019080546001816001161561010002031660029004612a46929190614c8f565b5060018201816001019080546001816001161561010002031660029004612a6e929190614c8f565b5060028281018054612a93928481019291600019610100600183161502011604614c8f565b5060038201816003019080546001816001161561010002031660029004612abb929190614c8f565b5060048201816004019080546001816001161561010002031660029004612ae3929190614c8f565b5060058201548160050155600682015481600601556007820181600701908054612b0e929190614d04565b506008918201549101805460ff191660ff909216151591909117905560408051808201909152601c8082527f50726f647563746573204164646564207375636365737366756c6c79000000006020909201918252612b6e91601f91614baf565b50601f8054604080516020600260001961010060018716150201909416939093048085018490048402820184019092528181529291830182828015612bf45780601f10612bc957610100808354040283529160200191612bf4565b820191906000526020600020905b815481529060010190602001808311612bd757829003601f168201915b50505050509150505b92915050565b6000601c826040518082805190602001908083835b60208310612c375780518252601f199092019160209182019101612c18565b51815160209384036101000a6000190180199092169116179052920194855250604051938490030190922060040154949350505050565b6000601d826040518082805190602001908083835b60208310612ca25780518252601f199092019160209182019101612c83565b51815160209384036101000a6000190180199092169116179052920194855250604051938490030190922060070154949350505050565b8351612cec906015906020870190614baf565b508251612d00906016906020860190614baf565b508151612d14906017906020850190614baf565b508051612d28906018906020840190614baf565b50612d3560196000614c2d565b6015601c856040518082805190602001908083835b60208310612d695780518252601f199092019160209182019101612d4a565b6001836020036101000a038019825116818451168082178552505050505050905001915050908152602001604051809103902060008201816000019080546001816001161561010002031660029004612dc3929190614c8f565b5060018201816001019080546001816001161561010002031660029004612deb929190614c8f565b5060028281018054612e10928481019291600019610100600183161502011604614c8f565b5060038201816003019080546001816001161561010002031660029004612e38929190614c8f565b5060048281018054612e4d9284019190614d04565b50505050505050565b8451612e6990600c906020880190614baf565b508351612e7d90600d906020870190614baf565b508251612e9190600e906020860190614baf565b508151612ea590600f906020850190614baf565b508051612eb9906010906020840190614baf565b506014805460ff191660011790556040518551600c91601d91889190819060208401908083835b60208310612eff5780518252601f199092019160209182019101612ee0565b6001836020036101000a038019825116818451168082178552505050505050905001915050908152602001604051809103902060008201816000019080546001816001161561010002031660029004612f59929190614c8f565b5060018201816001019080546001816001161561010002031660029004612f81929190614c8f565b5060028281018054612fa6928481019291600019610100600183161502011604614c8f565b5060038201816003019080546001816001161561010002031660029004612fce929190614c8f565b5060048201816004019080546001816001161561010002031660029004612ff6929190614c8f565b5060058201548160050155600682015481600601556007820181600701908054613021929190614d04565b506008918201549101805460ff191660ff90921615159190911790555050505050565b61304c614c51565b87815260208082018890526040808301889052606083018790526080830186905260a0830185905260c083018490526002805460010190555189518392601e928c9290918291908401908083835b602083106130b95780518252601f19909201916020918201910161309a565b51815160209384036101000a60001901801990921691161790529201948552506040519384900381019093208451805191946130fa94508593500190614baf565b5060208281015180516131139260018501920190614baf565b506040820151805161312f916002840191602090910190614baf565b506060820151805161314b916003840191602090910190614baf565b5060808201518051613167916004840191602090910190614baf565b5060a08201518051613183916005840191602090910190614baf565b5060c0820151805161319f916006840191602090910190614baf565b5050601b80546001810180835560009290925283518051929350849260079092027f3ad8aa4f87544323a9d1e5dd902f40c356527a7955687113db5f9a85ad579dc101916131f591839160209190910190614baf565b50602082810151805161320e9260018501920190614baf565b506040820151805161322a916002840191602090910190614baf565b5060608201518051613246916003840191602090910190614baf565b5060808201518051613262916004840191602090910190614baf565b5060a0820151805161327e916005840191602090910190614baf565b5060c0820151805161329a916006840191602090910190614baf565b505050505050505050505050565b606080601e836040518082805190602001908083835b602083106132dd5780518252601f1990920191602091820191016132be565b6001836020036101000a0380198251168184511680821785525050505050509050019150509081526020016040518091039020600101601e846040518082805190602001908083835b602083106133455780518252601f199092019160209182019101613326565b518151600019602094850361010090810a820192831692199390931691909117909252949092019687526040805197889003820188208954601f600260018316159098029095011695909504928301829004820288018201905281875260069093019594508693509184019050828280156134015780601f106133d657610100808354040283529160200191613401565b820191906000526020600020905b8154815290600101906020018083116133e457829003601f168201915b5050845460408051602060026001851615610100026000190190941693909304601f81018490048402820184019092528181529597508694509250840190508282801561348f5780601f106134645761010080835404028352916020019161348f565b820191906000526020600020905b81548152906001019060200180831161347257829003601f168201915b5050505050905091509150915091565b600454600254035b90565b82516134bd906003906020860190614baf565b5081516134d1906001906020850190614baf565b5080516134e5906000906020840190614baf565b50505050565b60008180519060200120601e846040518082805190602001908083835b602083106135275780518252601f199092019160209182019101613508565b6001836020036101000a038019825116818451168082178552505050505050905001915050908152602001604051809103902060060160405180828054600181600116156101000203166002900480156135b85780601f106135965761010080835404028352918201916135b8565b820191906000526020600020905b8154815290600101906020018083116135a4575b5050915050604051809103902014905092915050565b60608060608060606000601d876040518082805190602001908083835b6020831061360a5780518252601f1990920191602091820191016135eb565b51815160209384036101000a600019018019909216911617905292019485525060405193849003810184208b519094601d94508c9350918291908401908083835b6020831061366a5780518252601f19909201916020918201910161364b565b6001836020036101000a0380198251168184511680821785525050505050509050019150509081526020016040518091039020600101601d896040518082805190602001908083835b602083106136d25780518252601f1990920191602091820191016136b3565b6001836020036101000a0380198251168184511680821785525050505050509050019150509081526020016040518091039020600201601d8a6040518082805190602001908083835b6020831061373a5780518252601f19909201916020918201910161371b565b6001836020036101000a0380198251168184511680821785525050505050509050019150509081526020016040518091039020600301601d8b6040518082805190602001908083835b602083106137a25780518252601f199092019160209182019101613783565b6001836020036101000a0380198251168184511680821785525050505050509050019150509081526020016040518091039020600401601d8c6040518082805190602001908083835b6020831061380a5780518252601f1990920191602091820191016137eb565b518151600019602094850361010090810a82019283169219939093169190911790925294909201968752604080519788900382018820600701548d54601f6002600183161590980290950116959095049283018290048202880182019052818752929594508a93509184019050828280156138c65780601f1061389b576101008083540402835291602001916138c6565b820191906000526020600020905b8154815290600101906020018083116138a957829003601f168201915b5050885460408051602060026001851615610100026000190190941693909304601f8101849004840282018401909252818152959b508a9450925084019050828280156139545780601f1061392957610100808354040283529160200191613954565b820191906000526020600020905b81548152906001019060200180831161393757829003601f168201915b5050875460408051602060026001851615610100026000190190941693909304601f8101849004840282018401909252818152959a50899450925084019050828280156139e25780601f106139b7576101008083540402835291602001916139e2565b820191906000526020600020905b8154815290600101906020018083116139c557829003601f168201915b5050865460408051602060026001851615610100026000190190941693909304601f810184900484028201840190925281815295995088945092508401905082828015613a705780601f10613a4557610100808354040283529160200191613a70565b820191906000526020600020905b815481529060010190602001808311613a5357829003601f168201915b5050855460408051602060026001851615610100026000190190941693909304601f810184900484028201840190925281815295985087945092508401905082828015613afe5780601f10613ad357610100808354040283529160200191613afe565b820191906000526020600020905b815481529060010190602001808311613ae157829003601f168201915b5050505050915095509550955095509550955091939550919395565b6060806060806060806060601e886040518082805190602001908083835b60208310613b575780518252601f199092019160209182019101613b38565b51815160209384036101000a600019018019909216911617905292019485525060405193849003810184208c519094601e94508d9350918291908401908083835b60208310613bb75780518252601f199092019160209182019101613b98565b6001836020036101000a0380198251168184511680821785525050505050509050019150509081526020016040518091039020600101601e8a6040518082805190602001908083835b60208310613c1f5780518252601f199092019160209182019101613c00565b6001836020036101000a0380198251168184511680821785525050505050509050019150509081526020016040518091039020600601601e8b6040518082805190602001908083835b60208310613c875780518252601f199092019160209182019101613c68565b6001836020036101000a0380198251168184511680821785525050505050509050019150509081526020016040518091039020600201601e8c6040518082805190602001908083835b60208310613cef5780518252601f199092019160209182019101613cd0565b6001836020036101000a0380198251168184511680821785525050505050509050019150509081526020016040518091039020600301601e8d6040518082805190602001908083835b60208310613d575780518252601f199092019160209182019101613d38565b6001836020036101000a0380198251168184511680821785525050505050509050019150509081526020016040518091039020600401601e8e6040518082805190602001908083835b60208310613dbf5780518252601f199092019160209182019101613da0565b518151600019602094850361010090810a820192831692199390931691909117909252949092019687526040805197889003820188208e54601f600260018316159098029095011695909504928301829004820288018201905281875260059093019594508b9350918401905082828015613e7b5780601f10613e5057610100808354040283529160200191613e7b565b820191906000526020600020905b815481529060010190602001808311613e5e57829003601f168201915b5050895460408051602060026001851615610100026000190190941693909304601f8101849004840282018401909252818152959c508b945092508401905082828015613f095780601f10613ede57610100808354040283529160200191613f09565b820191906000526020600020905b815481529060010190602001808311613eec57829003601f168201915b5050885460408051602060026001851615610100026000190190941693909304601f8101849004840282018401909252818152959b508a945092508401905082828015613f975780601f10613f6c57610100808354040283529160200191613f97565b820191906000526020600020905b815481529060010190602001808311613f7a57829003601f168201915b5050875460408051602060026001851615610100026000190190941693909304601f8101849004840282018401909252818152959a50899450925084019050828280156140255780601f10613ffa57610100808354040283529160200191614025565b820191906000526020600020905b81548152906001019060200180831161400857829003601f168201915b5050865460408051602060026001851615610100026000190190941693909304601f8101849004840282018401909252818152959950889450925084019050828280156140b35780601f10614088576101008083540402835291602001916140b3565b820191906000526020600020905b81548152906001019060200180831161409657829003601f168201915b5050855460408051602060026001851615610100026000190190941693909304601f8101849004840282018401909252818152959850879450925084019050828280156141415780601f1061411657610100808354040283529160200191614141565b820191906000526020600020905b81548152906001019060200180831161412457829003601f168201915b5050845460408051602060026001851615610100026000190190941693909304601f8101849004840282018401909252818152959750869450925084019050828280156141cf5780601f106141a4576101008083540402835291602001916141cf565b820191906000526020600020905b8154815290600101906020018083116141b257829003601f168201915b505050505090509650965096509650965096509650919395979092949650565b6141fb60136000614c2d565b601d826040518082805190602001908083835b6020831061422d5780518252601f19909201916020918201910161420e565b6001836020036101000a0380198251168184511680821785525050505050509050019150509081526020016040518091039020600c60008201816000019080546001816001161561010002031660029004614289929190614c8f565b50600182018160010190805460018160011615610100020316600290046142b1929190614c8f565b50600282810180546142d6928481019291600019610100600183161502011604614c8f565b50600382018160030190805460018160011615610100020316600290046142fe929190614c8f565b5060048201816004019080546001816001161561010002031660029004614326929190614c8f565b5060058201548160050155600682015481600601556007820181600701908054614351929190614d04565b506008918201549101805460ff191660ff909216151591909117905561437960196000614c2d565b601c816040518082805190602001908083835b602083106143ab5780518252601f19909201916020918201910161438c565b6001836020036101000a0380198251168184511680821785525050505050509050019150509081526020016040518091039020601560008201816000019080546001816001161561010002031660029004614407929190614c8f565b506001820181600101908054600181600116156101000203166002900461442f929190614c8f565b5060028281018054614454928481019291600019610100600183161502011604614c8f565b506003820181600301908054600181600116156101000203166002900461447c929190614c8f565b50600482810180546144919284019190614d04565b50506013805490915060009081106144a557fe5b90600052602060002090600702016005600082018160000190805460018160011615610100020316600290046144dc929190614c8f565b5060018201816001019080546001816001161561010002031660029004614504929190614c8f565b5060028281018054614529928481019291600019610100600183161502011604614c8f565b5060038201816003019080546001816001161561010002031660029004614551929190614c8f565b5060048201816004019080546001816001161561010002031660029004614579929190614c8f565b50600582018160050190805460018160011615610100020316600290046145a1929190614c8f565b50600682018160060190805460018160011615610100020316600290046145c9929190614c8f565b5060009150505b6013546000190181101561473c5760138054600183019081106145ef57fe5b9060005260206000209060070201600c6007018281548110151561460f57fe5b906000526020600020906007020160008201816000019080546001816001161561010002031660029004614644929190614c8f565b506001820181600101908054600181600116156101000203166002900461466c929190614c8f565b5060028281018054614691928481019291600019610100600183161502011604614c8f565b50600382018160030190805460018160011615610100020316600290046146b9929190614c8f565b50600482018160040190805460018160011615610100020316600290046146e1929190614c8f565b5060058201816005019080546001816001161561010002031660029004614709929190614c8f565b5060068201816006019080546001816001161561010002031660029004614731929190614c8f565b5050506001016145d0565b506013805480151561474a57fe5b6000828152602081206000199092019160078302019061476a8282614e68565b614778600183016000614e68565b614786600283016000614e68565b614794600383016000614e68565b6147a2600483016000614e68565b6147b0600583016000614e68565b6147be600683016000614e68565b50509055600c601d836040518082805190602001908083835b602083106147f65780518252601f1990920191602091820191016147d7565b6001836020036101000a038019825116818451168082178552505050505050905001915050908152602001604051809103902060008201816000019080546001816001161561010002031660029004614850929190614c8f565b5060018201816001019080546001816001161561010002031660029004614878929190614c8f565b506002828101805461489d928481019291600019610100600183161502011604614c8f565b50600382018160030190805460018160011615610100020316600290046148c5929190614c8f565b50600482018160040190805460018160011615610100020316600290046148ed929190614c8f565b5060058201548160050155600682015481600601556007820181600701908054614918929190614d04565b506008918201549101805460ff191660ff9092161515919091179055604051600580548392601e92918190839060026101006001831615026000190190911604801561499b5780601f1061497957610100808354040283529182019161499b565b820191906000526020600020905b815481529060010190602001808311614987575b5050915050908152602001604051809103902060060190805190602001906149c4929190614baf565b50601c816040518082805190602001908083835b602083106149f75780518252601f1990920191602091820191016149d8565b518151602093840361010090810a600019908101801990941693909216929092179092529290940196875260405196879003810190962060040180546001808201808455600093845298909220600580549098506007909202019550614a6b94869450879360029383161502011604614c8f565b5060018201816001019080546001816001161561010002031660029004614a93929190614c8f565b5060028281018054614ab8928481019291600019610100600183161502011604614c8f565b5060038201816003019080546001816001161561010002031660029004614ae0929190614c8f565b5060048201816004019080546001816001161561010002031660029004614b08929190614c8f565b5060058201816005019080546001816001161561010002031660029004614b30929190614c8f565b5060068201816006019080546001816001161561010002031660029004614b58929190614c8f565b505050505050565b6101206040519081016040528060608152602001606081526020016060815260200160608152602001606081526020016000815260200160008152602001606081526020016000151581525090565b828054600181600116156101000203166002900490600052602060002090601f016020900481019282601f10614bf057805160ff1916838001178555614c1d565b82800160010185558215614c1d579182015b82811115614c1d578251825591602001919060010190614c02565b50614c29929150614ea8565b5090565b5080546000825560070290600052602060002090810190614c4e9190614ec2565b50565b60e060405190810160405280606081526020016060815260200160608152602001606081526020016060815260200160608152602001606081525090565b828054600181600116156101000203166002900490600052602060002090601f016020900481019282601f10614cc85780548555614c1d565b82800160010185558215614c1d57600052602060002091601f016020900482015b82811115614c1d578254825591600101919060010190614ce9565b828054828255906000526020600020906007028101928215614e5c5760005260206000209160070282015b82811115614e5c57825483908390614d5d908290849060026000196101006001841615020190911604614c8f565b5060018201816001019080546001816001161561010002031660029004614d85929190614c8f565b5060028281018054614daa928481019291600019610100600183161502011604614c8f565b5060038201816003019080546001816001161561010002031660029004614dd2929190614c8f565b5060048201816004019080546001816001161561010002031660029004614dfa929190614c8f565b5060058201816005019080546001816001161561010002031660029004614e22929190614c8f565b5060068201816006019080546001816001161561010002031660029004614e4a929190614c8f565b50505091600701919060070190614d2f565b50614c29929150614ec2565b50805460018160011615610100020316600290046000825580601f10614e8e5750614c4e565b601f016020900490600052602060002090810190614c4e91905b6134a791905b80821115614c295760008155600101614eae565b6134a791905b80821115614c29576000614edc8282614e68565b614eea600183016000614e68565b614ef8600283016000614e68565b614f06600383016000614e68565b614f14600483016000614e68565b614f22600583016000614e68565b614f30600683016000614e68565b50600701614ec856fea165627a7a723058208a8fc433b0e80e9f14a6e976db56bac8c2ed898c5ff29f68911eb1d4aa9c33180029",
  "source": "// SPDX-License-Identifier: MIT\r\npragma solidity >=0.4.22 <0.9.0;\r\n\r\ncontract BlockFeit {\r\n\r\n\r\n    // product structure\r\n    struct Product {\r\n\r\n        string id;\r\n        string name;\r\n        string width;\r\n        string height;\r\n        string time_stamp;\r\n        string batch;\r\n        string ownwer;\r\n    }\r\n\r\n\r\n    // Customer/User structure\r\n    struct Customer {\r\n\r\n        string id;\r\n        string name;\r\n        string phone_no;\r\n        string email;\r\n        Product[] purchesed;\r\n    }\r\n\r\n    // Retailer\r\n     struct Retailer {\r\n\r\n        string id;\r\n        string name;\r\n        string phone_no;\r\n        string email;\r\n        string location;\r\n        uint remaining;\r\n        uint sold;\r\n        Product[] available;\r\n        bool present;\r\n    }\r\n\r\n    // manufacturer Details\r\n    string brand;\r\n    string location;\r\n    uint total_manufacturered;\r\n    string private manufacturer;\r\n    \r\n    // Contract variables\r\n    uint indx;\r\n    Product tempProduct;\r\n    Retailer tempRetailer;\r\n    Customer tempCustomer;\r\n    Product[] tempProducts;\r\n    Product[] manufacturered;\r\n    \r\n    // mapping\r\n    mapping(string => Customer) customers;\r\n    mapping(string => Retailer) retailers;\r\n    mapping(string => Product) productMapping;\r\n\r\n\r\n\r\n    // initialize Contract\r\n    constructor() public{\r\n\r\n        total_manufacturered = 0;\r\n        indx = 0;\r\n    }\r\n\r\n    /*\r\n        this fuction set manufacturer into system\r\n        @params= _manufacturer name, location, brand\r\n    */\r\n    function addManufacturer(string memory _manufacturer, string memory _location, string memory _brand) public {\r\n\r\n        manufacturer = _manufacturer;\r\n        location = _location;\r\n        brand = _brand;\r\n    }\r\n\r\n    /*\r\n        This function add Vendor/ Retailer into system\r\n        Expects Retailer details as parameters\r\n        @params= id, name, phone_no, email, location\r\n    */\r\n    function addRetailer(string memory _id,\r\n                        string memory _name,\r\n                        string memory _phone_no,\r\n                        string memory _email,\r\n                        string memory _location) public  {\r\n\r\n\r\n            tempRetailer.id = _id;\r\n            tempRetailer.name = _name;\r\n            tempRetailer.phone_no = _phone_no;\r\n            tempRetailer.email = _email;\r\n            tempRetailer.location = _location;\r\n            tempRetailer.present = true;\r\n            retailers[_id] = tempRetailer;\r\n    }\r\n\r\n    /*\r\n        This function add Customer/user into system\r\n        Expects Customer details as parameters\r\n        @params= id, name, phone_no, email\r\n    */\r\n    function addCustomer(string memory _id,\r\n                        string memory _name,\r\n                        string memory _phone_no,\r\n                        string memory _email\r\n                        ) public {\r\n\r\n            tempCustomer.id = _id;\r\n            tempCustomer.name = _name;\r\n            tempCustomer.phone_no = _phone_no;\r\n            tempCustomer.email = _email;\r\n            delete tempCustomer.purchesed;\r\n            customers[_id] = tempCustomer;\r\n    }\r\n\r\n    /*\r\n        This function sells product to Vendor/Retailer by manufacturer\r\n        Expects Retailer id and Quantity as parameters\r\n        @params= _id, _quantity \r\n    */\r\n    string MSG = \"Retailer Does not Exist\";\r\n    function sellProductsToRetailer (string memory _id, uint _quantity)  public returns(string memory) {\r\n      \r\n        Retailer memory retailer = retailers[_id];\r\n        if((_quantity+indx) > manufacturered.length) {\r\n\r\n            MSG = \"Insufficient products\";\r\n            return (MSG);\r\n        }\r\n        else if(retailer.present == false) {\r\n\r\n            return (MSG);\r\n        }\r\n\r\n        delete tempRetailer.available;\r\n        \r\n        \r\n        tempRetailer.id = retailer.id;\r\n        tempRetailer.name = retailer.name;\r\n        tempRetailer.phone_no = retailer.phone_no;\r\n        tempRetailer.email = retailer.email;\r\n        tempRetailer.location = retailer.location;\r\n        tempRetailer.present = true;\r\n\r\n        for(uint tt = 0; tt < retailer.available.length;  tt++) {\r\n\r\n            Product memory p = retailer.available[tt];\r\n            tempRetailer.available.push(p);\r\n        }\r\n\r\n        for(uint i = 0; i < _quantity; i++) {\r\n\r\n            // Product memory present = retailer.available[i];\r\n            Product memory present = manufacturered[indx];\r\n            present.ownwer = _id;\r\n            productMapping[present.id].ownwer = _id;\r\n            indx++;\r\n            tempRetailer.available.push(present);\r\n        }\r\n        retailers[_id] = tempRetailer;\r\n        MSG = \"Productes Added successfully\";\r\n        return MSG;\r\n    }\r\n\r\n    /*\r\n        This function sells product to Customer  by Vendor/Retailer \r\n        Expects Retailer id and customer_id as parameters\r\n        @params= _seller_id, _customer_id\r\n    */\r\n    function sellProductToCustomer(string memory _seller_id, string memory _customer_id) public {\r\n\r\n        delete tempRetailer.available;\r\n        tempRetailer =  retailers[_seller_id];\r\n        delete tempCustomer.purchesed;\r\n        tempCustomer = customers[_customer_id];\r\n        tempProduct = tempRetailer.available[0];\r\n\r\n        for(uint i = 0; i < tempRetailer.available.length-1; i++) {\r\n\r\n            tempRetailer.available[i] = tempRetailer.available[i+1];\r\n        }\r\n\r\n        tempRetailer.available.pop();\r\n        retailers[_seller_id] = tempRetailer;\r\n        productMapping[tempProduct.id].ownwer =  _customer_id;\r\n        customers[_customer_id].purchesed.push(tempProduct);\r\n    }\r\n\r\n    /*\r\n        This function add product into system\r\n        Expects product details as parameters\r\n        @params= id, name, width, height, time_stamp, batch, owner\r\n    */\r\n    function addProduct(string memory _id, \r\n                        string memory _name, \r\n                        string memory _width, \r\n                        string memory _height,\r\n                        string memory _time_stamp,\r\n                        string memory _batch,\r\n                        string memory _owner\r\n                        ) public {\r\n\r\n            Product memory product;\r\n            product.id = _id;\r\n            product.name = _name;\r\n            product.width = _width;\r\n            product.height = _height;\r\n            product.time_stamp = _time_stamp;\r\n            product.batch = _batch;\r\n            product.ownwer = _owner;\r\n\r\n            total_manufacturered++;\r\n            productMapping[_id] = product;\r\n            manufacturered.push(product);\r\n    }\r\n\r\n\r\n    /*\r\n        @params : product id\r\n        returns product info\r\n        id, owner, name, width, height, time_stamp, batch\r\n    */\r\n    function getProductDetail(string memory _product_id) public view returns(\r\n                                string memory, string memory, \r\n                                string memory, string memory, \r\n                                string memory, string memory, string memory) {\r\n\r\n            return(productMapping[_product_id].id, \r\n                productMapping[_product_id].name, \r\n                productMapping[_product_id].ownwer, \r\n                productMapping[_product_id].width, \r\n                productMapping[_product_id].height, \r\n                productMapping[_product_id].time_stamp, \r\n                productMapping[_product_id].batch);\r\n    }\r\n\r\n\r\n    /*\r\n        Function name : getRetailerProductCount\r\n        @params : retailer_id\r\n        returns how many products are availabe to vendor\r\n    */\r\n    function getRetailerProductCount(string memory _retailer_id) public view returns(uint) {\r\n    \r\n        return (retailers[_retailer_id].available.length);\r\n    }\r\n\r\n\r\n    /*\r\n        Function name : getCustomerProductCount\r\n        @params : customer_id\r\n        returns how many products purched by customer\r\n    */\r\n    function getCustomerProductCount(string memory _customer_id) public view returns(uint) {\r\n    \r\n        return(customers[_customer_id].purchesed.length);\r\n    }\r\n\r\n    /*\r\n        Function name : getManufacturerCount\r\n        @params :none\r\n        returns how many products availabe to manufacturer\r\n    */\r\n    function getManufacturerCount() public view returns(uint) {\r\n\r\n        return(total_manufacturered-indx);\r\n    }\r\n\r\n\r\n    /*\r\n        function name : getRetailerDetails\r\n        @params : retailer_id\r\n        returns retailer info\r\n        like : id, name, phone_no, email, location, products available\r\n    */\r\n    function getRetailerDetails(string memory retailer_id) public view returns(string memory, string memory,\r\n     string memory, string memory, string memory, uint) {\r\n\r\n        return(retailers[retailer_id].id,\r\n                retailers[retailer_id].name,\r\n                retailers[retailer_id].phone_no,\r\n                retailers[retailer_id].email,\r\n                retailers[retailer_id].location, \r\n                retailers[retailer_id].available.length\r\n            );\r\n    }\r\n   \r\n\r\n    /*\r\n       fuction name: getOwnerOfProduct\r\n        Expected product_id as parameters\r\n        @params= product_id\r\n        returns product name and product owner\r\n\r\n    */\r\n    \r\n   function getOwnerOfProduct(string memory product_id) public view returns(string memory, string memory) {\r\n\r\n        return(productMapping[product_id].name, productMapping[product_id].ownwer);\r\n    }\r\n\r\n    /*\r\n        This function verify ownership of produt\r\n        Expected product id, owner id ad parameters\r\n        @params= product_id, owner_id\r\n        returns Boolean value if ownership matched with product owner\r\n    */\r\n    function verifyOwnership(string memory product_id, string memory owner_id) public view returns(bool) {\r\n\r\n        return(keccak256(bytes(productMapping[product_id].ownwer)) == keccak256(bytes(owner_id)));\r\n    }\r\n\r\n} \r\n",
  "sourcePath": "C:/Users/Lenovo/BlockFeit-BE-project/Back-End/contracts/BlockFeit.sol",
  "compiler": {
    "name": "solc",
    "version": "0.5.0+commit.1d4f565a.Emscripten.clang"
  },
  "schemaVersion": "3.0.1",
  "updatedAt": "2022-01-30T12:59:23.331Z",
  "devdoc": {
    "methods": {}
  },
  "userdoc": {
    "methods": {}
  }
}