{
  "contractName": "BlockFeit",
  "abi": [
    {
      "constant": true,
      "inputs": [],
      "name": "brand",
      "outputs": [
        {
          "name": "",
          "type": "string"
        }
      ],
      "payable": false,
      "stateMutability": "view",
      "type": "function",
      "signature": "0x2d9fff01"
    },
    {
      "constant": true,
      "inputs": [],
      "name": "val",
      "outputs": [
        {
          "name": "",
          "type": "uint256"
        }
      ],
      "payable": false,
      "stateMutability": "view",
      "type": "function",
      "signature": "0x3c6bb436"
    },
    {
      "constant": true,
      "inputs": [],
      "name": "location",
      "outputs": [
        {
          "name": "",
          "type": "string"
        }
      ],
      "payable": false,
      "stateMutability": "view",
      "type": "function",
      "signature": "0x516f279e"
    },
    {
      "inputs": [],
      "payable": false,
      "stateMutability": "nonpayable",
      "type": "constructor",
      "signature": "constructor"
    },
    {
      "constant": false,
      "inputs": [
        {
          "name": "_x",
          "type": "uint256"
        }
      ],
      "name": "setVal",
      "outputs": [],
      "payable": false,
      "stateMutability": "nonpayable",
      "type": "function",
      "signature": "0x3d4197f0"
    },
    {
      "constant": false,
      "inputs": [
        {
          "name": "_manufacturer",
          "type": "string"
        },
        {
          "name": "_location",
          "type": "string"
        },
        {
          "name": "_brand",
          "type": "string"
        }
      ],
      "name": "addManufacturer",
      "outputs": [],
      "payable": false,
      "stateMutability": "nonpayable",
      "type": "function",
      "signature": "0xbc544e7d"
    },
    {
      "constant": true,
      "inputs": [],
      "name": "getManufacture",
      "outputs": [
        {
          "name": "",
          "type": "string"
        },
        {
          "name": "",
          "type": "string"
        },
        {
          "name": "",
          "type": "string"
        }
      ],
      "payable": false,
      "stateMutability": "view",
      "type": "function",
      "signature": "0xb4bfaea0"
    },
    {
      "constant": false,
      "inputs": [
        {
          "name": "_id",
          "type": "string"
        },
        {
          "name": "_name",
          "type": "string"
        },
        {
          "name": "_phone_no",
          "type": "string"
        },
        {
          "name": "_email",
          "type": "string"
        },
        {
          "name": "_location",
          "type": "string"
        }
      ],
      "name": "addRetailer",
      "outputs": [],
      "payable": false,
      "stateMutability": "nonpayable",
      "type": "function",
      "signature": "0x619cce0f"
    },
    {
      "constant": false,
      "inputs": [
        {
          "name": "_id",
          "type": "string"
        },
        {
          "name": "_name",
          "type": "string"
        },
        {
          "name": "_phone_no",
          "type": "string"
        },
        {
          "name": "_email",
          "type": "string"
        }
      ],
      "name": "addCustomer",
      "outputs": [],
      "payable": false,
      "stateMutability": "nonpayable",
      "type": "function",
      "signature": "0x5c025f94"
    },
    {
      "constant": false,
      "inputs": [
        {
          "name": "_id",
          "type": "string"
        },
        {
          "name": "_quantity",
          "type": "uint256"
        }
      ],
      "name": "sellProductsToRetailer",
      "outputs": [
        {
          "name": "",
          "type": "string"
        }
      ],
      "payable": false,
      "stateMutability": "nonpayable",
      "type": "function",
      "signature": "0x1b412927"
    },
    {
      "constant": false,
      "inputs": [
        {
          "name": "_seller_id",
          "type": "string"
        },
        {
          "name": "_customer_id",
          "type": "string"
        }
      ],
      "name": "sellProductToCustomer",
      "outputs": [
        {
          "name": "",
          "type": "uint256"
        }
      ],
      "payable": false,
      "stateMutability": "nonpayable",
      "type": "function",
      "signature": "0xffad4f0d"
    },
    {
      "constant": false,
      "inputs": [
        {
          "name": "_id",
          "type": "string"
        },
        {
          "name": "_name",
          "type": "string"
        },
        {
          "name": "_width",
          "type": "string"
        },
        {
          "name": "_height",
          "type": "string"
        },
        {
          "name": "_time_stamp",
          "type": "string"
        },
        {
          "name": "_batch",
          "type": "string"
        },
        {
          "name": "_owner",
          "type": "string"
        }
      ],
      "name": "addProduct",
      "outputs": [],
      "payable": false,
      "stateMutability": "nonpayable",
      "type": "function",
      "signature": "0x67a6377a"
    },
    {
      "constant": true,
      "inputs": [
        {
          "name": "_product_id",
          "type": "string"
        }
      ],
      "name": "getProductDetail",
      "outputs": [
        {
          "name": "",
          "type": "string"
        },
        {
          "name": "",
          "type": "string"
        },
        {
          "name": "",
          "type": "string"
        },
        {
          "name": "",
          "type": "string"
        },
        {
          "name": "",
          "type": "string"
        },
        {
          "name": "",
          "type": "string"
        },
        {
          "name": "",
          "type": "string"
        }
      ],
      "payable": false,
      "stateMutability": "view",
      "type": "function",
      "signature": "0xee786260"
    },
    {
      "constant": true,
      "inputs": [
        {
          "name": "_retailer_id",
          "type": "string"
        }
      ],
      "name": "getRetailerProductCount",
      "outputs": [
        {
          "name": "",
          "type": "uint256"
        }
      ],
      "payable": false,
      "stateMutability": "view",
      "type": "function",
      "signature": "0x3215769e"
    },
    {
      "constant": true,
      "inputs": [
        {
          "name": "_customer_id",
          "type": "string"
        }
      ],
      "name": "getCustomerProductCount",
      "outputs": [
        {
          "name": "",
          "type": "uint256"
        }
      ],
      "payable": false,
      "stateMutability": "view",
      "type": "function",
      "signature": "0x301574c0"
    },
    {
      "constant": true,
      "inputs": [
        {
          "name": "_customer_id",
          "type": "string"
        }
      ],
      "name": "getCustomerDetail",
      "outputs": [
        {
          "name": "",
          "type": "string"
        },
        {
          "name": "",
          "type": "string"
        },
        {
          "name": "",
          "type": "string"
        }
      ],
      "payable": false,
      "stateMutability": "view",
      "type": "function",
      "signature": "0xbc26ec53"
    },
    {
      "constant": true,
      "inputs": [],
      "name": "getManufacturerCount",
      "outputs": [
        {
          "name": "",
          "type": "uint256"
        }
      ],
      "payable": false,
      "stateMutability": "view",
      "type": "function",
      "signature": "0xa9416c9e"
    },
    {
      "constant": true,
      "inputs": [
        {
          "name": "retailer_id",
          "type": "string"
        }
      ],
      "name": "getRetailerDetails",
      "outputs": [
        {
          "name": "",
          "type": "string"
        },
        {
          "name": "",
          "type": "string"
        },
        {
          "name": "",
          "type": "string"
        },
        {
          "name": "",
          "type": "string"
        },
        {
          "name": "",
          "type": "string"
        },
        {
          "name": "",
          "type": "uint256"
        }
      ],
      "payable": false,
      "stateMutability": "view",
      "type": "function",
      "signature": "0xea788dd1"
    },
    {
      "constant": true,
      "inputs": [
        {
          "name": "product_id",
          "type": "string"
        }
      ],
      "name": "getOwnerOfProduct",
      "outputs": [
        {
          "name": "",
          "type": "string"
        },
        {
          "name": "",
          "type": "string"
        }
      ],
      "payable": false,
      "stateMutability": "view",
      "type": "function",
      "signature": "0x9fd42e64"
    },
    {
      "constant": true,
      "inputs": [
        {
          "name": "product_id",
          "type": "string"
        },
        {
          "name": "owner_id",
          "type": "string"
        }
      ],
      "name": "verifyOwnership",
      "outputs": [
        {
          "name": "",
          "type": "bool"
        }
      ],
      "payable": false,
      "stateMutability": "view",
      "type": "function",
      "signature": "0xc196b082"
    }
  ],
  "bytecode": "0x600a601c5560c0604052601760808190527f52657461696c657220446f6573206e6f7420457869737400000000000000000060a090815262000045916020919062000064565b503480156200005357600080fd5b506000600281905560045562000109565b828054600181600116156101000203166002900490600052602060002090601f016020900481019282601f10620000a757805160ff1916838001178555620000d7565b82800160010185558215620000d7579182015b82811115620000d7578251825591602001919060010190620000ba565b50620000e5929150620000e9565b5090565b6200010691905b80821115620000e55760008155600101620000f0565b90565b6158ec80620001196000396000f3fe6080604052600436106101065763ffffffff7c01000000000000000000000000000000000000000000000000000000006000350416631b412927811461010b5780632d9fff0114610235578063301574c01461024a5780633215769e1461030f5780633c6bb436146103c25780633d4197f0146103d7578063516f279e146104035780635c025f9414610418578063619cce0f1461066057806367a6377a1461092f5780639fd42e6414610d0c578063a9416c9e14610e9d578063b4bfaea014610eb2578063bc26ec531461100b578063bc544e7d146110be578063c196b0821461127f578063ea788dd1146113cd578063ee78626014611697578063ffad4f0d14611a29575b600080fd5b34801561011757600080fd5b506101c06004803603604081101561012e57600080fd5b81019060208101813564010000000081111561014957600080fd5b82018360208201111561015b57600080fd5b8035906020019184600183028401116401000000008311171561017d57600080fd5b91908080601f0160208091040260200160405190810160405280939291908181526020018383808284376000920191909152509295505091359250611b63915050565b6040805160208082528351818301528351919283929083019185019080838360005b838110156101fa5781810151838201526020016101e2565b50505050905090810190601f1680156102275780820380516001836020036101000a031916815260200191505b509250505060405180910390f35b34801561024157600080fd5b506101c0612eb9565b34801561025657600080fd5b506102fd6004803603602081101561026d57600080fd5b81019060208101813564010000000081111561028857600080fd5b82018360208201111561029a57600080fd5b803590602001918460018302840111640100000000831117156102bc57600080fd5b91908080601f016020809104026020016040519081016040528093929190818152602001838380828437600092019190915250929550612f47945050505050565b60408051918252519081900360200190f35b34801561031b57600080fd5b506102fd6004803603602081101561033257600080fd5b81019060208101813564010000000081111561034d57600080fd5b82018360208201111561035f57600080fd5b8035906020019184600183028401116401000000008311171561038157600080fd5b91908080601f016020809104026020016040519081016040528093929190818152602001838380828437600092019190915250929550612fb2945050505050565b3480156103ce57600080fd5b506102fd61301d565b3480156103e357600080fd5b50610401600480360360208110156103fa57600080fd5b5035613023565b005b34801561040f57600080fd5b506101c0613028565b34801561042457600080fd5b506104016004803603608081101561043b57600080fd5b81019060208101813564010000000081111561045657600080fd5b82018360208201111561046857600080fd5b8035906020019184600183028401116401000000008311171561048a57600080fd5b91908080601f01602080910402602001604051908101604052809392919081815260200183838082843760009201919091525092959493602081019350359150506401000000008111156104dd57600080fd5b8201836020820111156104ef57600080fd5b8035906020019184600183028401116401000000008311171561051157600080fd5b91908080601f016020809104026020016040519081016040528093929190818152602001838380828437600092019190915250929594936020810193503591505064010000000081111561056457600080fd5b82018360208201111561057657600080fd5b8035906020019184600183028401116401000000008311171561059857600080fd5b91908080601f01602080910402602001604051908101604052809392919081815260200183838082843760009201919091525092959493602081019350359150506401000000008111156105eb57600080fd5b8201836020820111156105fd57600080fd5b8035906020019184600183028401116401000000008311171561061f57600080fd5b91908080601f016020809104026020016040519081016040528093929190818152602001838380828437600092019190915250929550613082945050505050565b34801561066c57600080fd5b50610401600480360360a081101561068357600080fd5b81019060208101813564010000000081111561069e57600080fd5b8201836020820111156106b057600080fd5b803590602001918460018302840111640100000000831117156106d257600080fd5b91908080601f016020809104026020016040519081016040528093929190818152602001838380828437600092019190915250929594936020810193503591505064010000000081111561072557600080fd5b82018360208201111561073757600080fd5b8035906020019184600183028401116401000000008311171561075957600080fd5b91908080601f01602080910402602001604051908101604052809392919081815260200183838082843760009201919091525092959493602081019350359150506401000000008111156107ac57600080fd5b8201836020820111156107be57600080fd5b803590602001918460018302840111640100000000831117156107e057600080fd5b91908080601f016020809104026020016040519081016040528093929190818152602001838380828437600092019190915250929594936020810193503591505064010000000081111561083357600080fd5b82018360208201111561084557600080fd5b8035906020019184600183028401116401000000008311171561086757600080fd5b91908080601f01602080910402602001604051908101604052809392919081815260200183838082843760009201919091525092959493602081019350359150506401000000008111156108ba57600080fd5b8201836020820111156108cc57600080fd5b803590602001918460018302840111640100000000831117156108ee57600080fd5b91908080601f0160208091040260200160405190810160405280939291908181526020018383808284376000920191909152509295506131ff945050505050565b34801561093b57600080fd5b50610401600480360360e081101561095257600080fd5b81019060208101813564010000000081111561096d57600080fd5b82018360208201111561097f57600080fd5b803590602001918460018302840111640100000000831117156109a157600080fd5b91908080601f01602080910402602001604051908101604052809392919081815260200183838082843760009201919091525092959493602081019350359150506401000000008111156109f457600080fd5b820183602082011115610a0657600080fd5b80359060200191846001830284011164010000000083111715610a2857600080fd5b91908080601f0160208091040260200160405190810160405280939291908181526020018383808284376000920191909152509295949360208101935035915050640100000000811115610a7b57600080fd5b820183602082011115610a8d57600080fd5b80359060200191846001830284011164010000000083111715610aaf57600080fd5b91908080601f0160208091040260200160405190810160405280939291908181526020018383808284376000920191909152509295949360208101935035915050640100000000811115610b0257600080fd5b820183602082011115610b1457600080fd5b80359060200191846001830284011164010000000083111715610b3657600080fd5b91908080601f0160208091040260200160405190810160405280939291908181526020018383808284376000920191909152509295949360208101935035915050640100000000811115610b8957600080fd5b820183602082011115610b9b57600080fd5b80359060200191846001830284011164010000000083111715610bbd57600080fd5b91908080601f0160208091040260200160405190810160405280939291908181526020018383808284376000920191909152509295949360208101935035915050640100000000811115610c1057600080fd5b820183602082011115610c2257600080fd5b80359060200191846001830284011164010000000083111715610c4457600080fd5b91908080601f0160208091040260200160405190810160405280939291908181526020018383808284376000920191909152509295949360208101935035915050640100000000811115610c9757600080fd5b820183602082011115610ca957600080fd5b80359060200191846001830284011164010000000083111715610ccb57600080fd5b91908080601f0160208091040260200160405190810160405280939291908181526020018383808284376000920191909152509295506133fe945050505050565b348015610d1857600080fd5b50610dbf60048036036020811015610d2f57600080fd5b810190602081018135640100000000811115610d4a57600080fd5b820183602082011115610d5c57600080fd5b80359060200191846001830284011164010000000083111715610d7e57600080fd5b91908080601f016020809104026020016040519081016040528093929190818152602001838380828437600092019190915250929550613662945050505050565b604051808060200180602001838103835285818151815260200191508051906020019080838360005b83811015610e00578181015183820152602001610de8565b50505050905090810190601f168015610e2d5780820380516001836020036101000a031916815260200191505b50838103825284518152845160209182019186019080838360005b83811015610e60578181015183820152602001610e48565b50505050905090810190601f168015610e8d5780820380516001836020036101000a031916815260200191505b5094505050505060405180910390f35b348015610ea957600080fd5b506102fd613859565b348015610ebe57600080fd5b50610ec7613864565b60405180806020018060200180602001848103845287818151815260200191508051906020019080838360005b83811015610f0c578181015183820152602001610ef4565b50505050905090810190601f168015610f395780820380516001836020036101000a031916815260200191505b50848103835286518152865160209182019188019080838360005b83811015610f6c578181015183820152602001610f54565b50505050905090810190601f168015610f995780820380516001836020036101000a031916815260200191505b50848103825285518152855160209182019187019080838360005b83811015610fcc578181015183820152602001610fb4565b50505050905090810190601f168015610ff95780820380516001836020036101000a031916815260200191505b50965050505050505060405180910390f35b34801561101757600080fd5b50610ec76004803603602081101561102e57600080fd5b81019060208101813564010000000081111561104957600080fd5b82018360208201111561105b57600080fd5b8035906020019184600183028401116401000000008311171561107d57600080fd5b91908080601f016020809104026020016040519081016040528093929190818152602001838380828437600092019190915250929550613a32945050505050565b3480156110ca57600080fd5b50610401600480360360608110156110e157600080fd5b8101906020810181356401000000008111156110fc57600080fd5b82018360208201111561110e57600080fd5b8035906020019184600183028401116401000000008311171561113057600080fd5b91908080601f016020809104026020016040519081016040528093929190818152602001838380828437600092019190915250929594936020810193503591505064010000000081111561118357600080fd5b82018360208201111561119557600080fd5b803590602001918460018302840111640100000000831117156111b757600080fd5b91908080601f016020809104026020016040519081016040528093929190818152602001838380828437600092019190915250929594936020810193503591505064010000000081111561120a57600080fd5b82018360208201111561121c57600080fd5b8035906020019184600183028401116401000000008311171561123e57600080fd5b91908080601f016020809104026020016040519081016040528093929190818152602001838380828437600092019190915250929550613d25945050505050565b34801561128b57600080fd5b506113b9600480360360408110156112a257600080fd5b8101906020810181356401000000008111156112bd57600080fd5b8201836020820111156112cf57600080fd5b803590602001918460018302840111640100000000831117156112f157600080fd5b91908080601f016020809104026020016040519081016040528093929190818152602001838380828437600092019190915250929594936020810193503591505064010000000081111561134457600080fd5b82018360208201111561135657600080fd5b8035906020019184600183028401116401000000008311171561137857600080fd5b91908080601f016020809104026020016040519081016040528093929190818152602001838380828437600092019190915250929550613d66945050505050565b604080519115158252519081900360200190f35b3480156113d957600080fd5b50611480600480360360208110156113f057600080fd5b81019060208101813564010000000081111561140b57600080fd5b82018360208201111561141d57600080fd5b8035906020019184600183028401116401000000008311171561143f57600080fd5b91908080601f016020809104026020016040519081016040528093929190818152602001838380828437600092019190915250929550613f40945050505050565b60405180806020018060200180602001806020018060200187815260200186810386528c818151815260200191508051906020019080838360005b838110156114d35781810151838201526020016114bb565b50505050905090810190601f1680156115005780820380516001836020036101000a031916815260200191505b5086810385528b5181528b516020918201918d019080838360005b8381101561153357818101518382015260200161151b565b50505050905090810190601f1680156115605780820380516001836020036101000a031916815260200191505b5086810384528a5181528a516020918201918c019080838360005b8381101561159357818101518382015260200161157b565b50505050905090810190601f1680156115c05780820380516001836020036101000a031916815260200191505b5086810383528951815289516020918201918b019080838360005b838110156115f35781810151838201526020016115db565b50505050905090810190601f1680156116205780820380516001836020036101000a031916815260200191505b5086810382528851815288516020918201918a019080838360005b8381101561165357818101518382015260200161163b565b50505050905090810190601f1680156116805780820380516001836020036101000a031916815260200191505b509b50505050505050505050505060405180910390f35b3480156116a357600080fd5b5061174a600480360360208110156116ba57600080fd5b8101906020810181356401000000008111156116d557600080fd5b8201836020820111156116e757600080fd5b8035906020019184600183028401116401000000008311171561170957600080fd5b91908080601f01602080910402602001604051908101604052809392919081815260200183838082843760009201919091525092955061448c945050505050565b604051808060200180602001806020018060200180602001806020018060200188810388528f818151815260200191508051906020019080838360005b8381101561179f578181015183820152602001611787565b50505050905090810190601f1680156117cc5780820380516001836020036101000a031916815260200191505b5088810387528e818151815260200191508051906020019080838360005b838110156118025781810151838201526020016117ea565b50505050905090810190601f16801561182f5780820380516001836020036101000a031916815260200191505b5088810386528d5181528d516020918201918f019080838360005b8381101561186257818101518382015260200161184a565b50505050905090810190601f16801561188f5780820380516001836020036101000a031916815260200191505b5088810385528c5181528c516020918201918e019080838360005b838110156118c25781810151838201526020016118aa565b50505050905090810190601f1680156118ef5780820380516001836020036101000a031916815260200191505b5088810384528b5181528b516020918201918d019080838360005b8381101561192257818101518382015260200161190a565b50505050905090810190601f16801561194f5780820380516001836020036101000a031916815260200191505b5088810383528a5181528a516020918201918c019080838360005b8381101561198257818101518382015260200161196a565b50505050905090810190601f1680156119af5780820380516001836020036101000a031916815260200191505b5088810382528951815289516020918201918b019080838360005b838110156119e25781810151838201526020016119ca565b50505050905090810190601f168015611a0f5780820380516001836020036101000a031916815260200191505b509e50505050505050505050505050505060405180910390f35b348015611a3557600080fd5b506102fd60048036036040811015611a4c57600080fd5b810190602081018135640100000000811115611a6757600080fd5b820183602082011115611a7957600080fd5b80359060200191846001830284011164010000000083111715611a9b57600080fd5b91908080601f0160208091040260200160405190810160405280939291908181526020018383808284376000920191909152509295949360208101935035915050640100000000811115611aee57600080fd5b820183602082011115611b0057600080fd5b80359060200191846001830284011164010000000083111715611b2257600080fd5b91908080601f016020809104026020016040519081016040528093929190818152602001838380828437600092019190915250929550614b61945050505050565b6060611b6d6154e7565b601e846040518082805190602001908083835b60208310611b9f5780518252601f199092019160209182019101611b80565b518151600019602094850361010090810a820192831692199390931691909117909252949092019687526040805197889003820188208054610140601f6002600184161590990290960190911696909604938401839004909202880185019052610120870182815290955086945092859250840182828015611c625780601f10611c3757610100808354040283529160200191611c62565b820191906000526020600020905b815481529060010190602001808311611c4557829003601f168201915b50505050508152602001600182018054600181600116156101000203166002900480601f016020809104026020016040519081016040528092919081815260200182805460018160011615610100020316600290048015611d045780601f10611cd957610100808354040283529160200191611d04565b820191906000526020600020905b815481529060010190602001808311611ce757829003601f168201915b5050509183525050600282810180546040805160206001841615610100026000190190931694909404601f81018390048302850183019091528084529381019390830182828015611d965780601f10611d6b57610100808354040283529160200191611d96565b820191906000526020600020905b815481529060010190602001808311611d7957829003601f168201915b505050918352505060038201805460408051602060026001851615610100026000190190941693909304601f8101849004840282018401909252818152938201939291830182828015611e2a5780601f10611dff57610100808354040283529160200191611e2a565b820191906000526020600020905b815481529060010190602001808311611e0d57829003601f168201915b505050918352505060048201805460408051602060026001851615610100026000190190941693909304601f8101849004840282018401909252818152938201939291830182828015611ebe5780601f10611e9357610100808354040283529160200191611ebe565b820191906000526020600020905b815481529060010190602001808311611ea157829003601f168201915b50505050508152602001600582015481526020016006820154815260200160078201805480602002602001604051908101604052809291908181526020016000905b8282101561234457600084815260209081902060408051600786029092018054600260018216156101009081026000190190921604601f81018690049095028401810190925260e0830184815292939092849290918491840182828015611fa85780601f10611f7d57610100808354040283529160200191611fa8565b820191906000526020600020905b815481529060010190602001808311611f8b57829003601f168201915b50505050508152602001600182018054600181600116156101000203166002900480601f01602080910402602001604051908101604052809291908181526020018280546001816001161561010002031660029004801561204a5780601f1061201f5761010080835404028352916020019161204a565b820191906000526020600020905b81548152906001019060200180831161202d57829003601f168201915b5050509183525050600282810180546040805160206001841615610100026000190190931694909404601f810183900483028501830190915280845293810193908301828280156120dc5780601f106120b1576101008083540402835291602001916120dc565b820191906000526020600020905b8154815290600101906020018083116120bf57829003601f168201915b505050918352505060038201805460408051602060026001851615610100026000190190941693909304601f81018490048402820184019092528181529382019392918301828280156121705780601f1061214557610100808354040283529160200191612170565b820191906000526020600020905b81548152906001019060200180831161215357829003601f168201915b505050918352505060048201805460408051602060026001851615610100026000190190941693909304601f81018490048402820184019092528181529382019392918301828280156122045780601f106121d957610100808354040283529160200191612204565b820191906000526020600020905b8154815290600101906020018083116121e757829003601f168201915b505050918352505060058201805460408051602060026001851615610100026000190190941693909304601f81018490048402820184019092528181529382019392918301828280156122985780601f1061226d57610100808354040283529160200191612298565b820191906000526020600020905b81548152906001019060200180831161227b57829003601f168201915b505050918352505060068201805460408051602060026001851615610100026000190190941693909304601f810184900484028201840190925281815293820193929183018282801561232c5780601f106123015761010080835404028352916020019161232c565b820191906000526020600020905b81548152906001019060200180831161230f57829003601f168201915b50505050508152505081526020019060010190611f00565b505050908252506008919091015460ff161515602090910152601b546004549192509084011115612445576040805180820190915260158082527f496e73756666696369656e742070726f6475637473000000000000000000000060209283019081526123b19291615536565b506020805460408051601f600260001961010060018716150201909416939093049283018490048402810184019091528181529190828201828280156124385780601f1061240d57610100808354040283529160200191612438565b820191906000526020600020905b81548152906001019060200180831161241b57829003601f168201915b5050505050915050612eb3565b61010081015115156124ac576020805460408051601f600260001961010060018716150201909416939093049283018490048402810184019091528181529190828201828280156124385780601f1061240d57610100808354040283529160200191612438565b6124b8601360006155b4565b805180516124ce91600c91602090910190615536565b5060208082015180516124e592600d920190615536565b50604081015180516124ff91600e91602090910190615536565b506060810151805161251991600f91602090910190615536565b506080810151805161253391601091602090910190615536565b506014805460ff1916600117905560005b8160e0015151811015612680576125596155d8565b60e083015180518390811061256a57fe5b6020908102909101810151601380546001810180835560009290925282518051939550919385936007929092027f66de8ffda797e3de9c05e8fc57b3bf0ec28a930d40b0d285d93c06501cf6a09001926125ca9284929190910190615536565b5060208281015180516125e39260018501920190615536565b50604082015180516125ff916002840191602090910190615536565b506060820151805161261b916003840191602090910190615536565b5060808201518051612637916004840191602090910190615536565b5060a08201518051612653916005840191602090910190615536565b5060c0820151805161266f916006840191602090910190615536565b505060019093019250612544915050565b5060005b83811015612c6e576126946155d8565b601b6004548154811015156126a557fe5b6000918252602091829020604080516007939093029091018054600260018216156101009081026000190190921604601f81018690049095028401810190925260e08301848152929390928492909184918401828280156127475780601f1061271c57610100808354040283529160200191612747565b820191906000526020600020905b81548152906001019060200180831161272a57829003601f168201915b50505050508152602001600182018054600181600116156101000203166002900480601f0160208091040260200160405190810160405280929190818152602001828054600181600116156101000203166002900480156127e95780601f106127be576101008083540402835291602001916127e9565b820191906000526020600020905b8154815290600101906020018083116127cc57829003601f168201915b5050509183525050600282810180546040805160206001841615610100026000190190931694909404601f8101839004830285018301909152808452938101939083018282801561287b5780601f106128505761010080835404028352916020019161287b565b820191906000526020600020905b81548152906001019060200180831161285e57829003601f168201915b505050918352505060038201805460408051602060026001851615610100026000190190941693909304601f810184900484028201840190925281815293820193929183018282801561290f5780601f106128e45761010080835404028352916020019161290f565b820191906000526020600020905b8154815290600101906020018083116128f257829003601f168201915b505050918352505060048201805460408051602060026001851615610100026000190190941693909304601f81018490048402820184019092528181529382019392918301828280156129a35780601f10612978576101008083540402835291602001916129a3565b820191906000526020600020905b81548152906001019060200180831161298657829003601f168201915b505050918352505060058201805460408051602060026001851615610100026000190190941693909304601f8101849004840282018401909252818152938201939291830182828015612a375780601f10612a0c57610100808354040283529160200191612a37565b820191906000526020600020905b815481529060010190602001808311612a1a57829003601f168201915b505050918352505060068201805460408051602060026001851615610100026000190190941693909304601f8101849004840282018401909252818152938201939291830182828015612acb5780601f10612aa057610100808354040283529160200191612acb565b820191906000526020600020905b815481529060010190602001808311612aae57829003601f168201915b5050505050815250509050858160c0018190525085601f82600001516040518082805190602001908083835b60208310612b165780518252601f199092019160209182019101612af7565b51815160209384036101000a60001901801990921691161790529201948552506040519384900381019093208451612b5b956006909201949190910192509050615536565b506004805460019081019091556013805491820180825560009190915282518051919284926007919091027f66de8ffda797e3de9c05e8fc57b3bf0ec28a930d40b0d285d93c06501cf6a0900191612bb891839160200190615536565b506020828101518051612bd19260018501920190615536565b5060408201518051612bed916002840191602090910190615536565b5060608201518051612c09916003840191602090910190615536565b5060808201518051612c25916004840191602090910190615536565b5060a08201518051612c41916005840191602090910190615536565b5060c08201518051612c5d916006840191602090910190615536565b505060019093019250612684915050565b50600c601e856040518082805190602001908083835b60208310612ca35780518252601f199092019160209182019101612c84565b6001836020036101000a038019825116818451168082178552505050505050905001915050908152602001604051809103902060008201816000019080546001816001161561010002031660029004612cfd929190615616565b5060018201816001019080546001816001161561010002031660029004612d25929190615616565b5060028281018054612d4a928481019291600019610100600183161502011604615616565b5060038201816003019080546001816001161561010002031660029004612d72929190615616565b5060048201816004019080546001816001161561010002031660029004612d9a929190615616565b5060058201548160050155600682015481600601556007820181600701908054612dc592919061568b565b506008918201549101805460ff191660ff909216151591909117905560408051808201909152601c8082527f50726f647563746573204164646564207375636365737366756c6c79000000006020928301908152612e239291615536565b506020805460408051601f60026000196101006001871615020190941693909304928301849004840281018401909152818152919082820182828015612eaa5780601f10612e7f57610100808354040283529160200191612eaa565b820191906000526020600020905b815481529060010190602001808311612e8d57829003601f168201915b50505050509150505b92915050565b6000805460408051602060026001851615610100026000190190941693909304601f81018490048402820184019092528181529291830182828015612f3f5780601f10612f1457610100808354040283529160200191612f3f565b820191906000526020600020905b815481529060010190602001808311612f2257829003601f168201915b505050505081565b6000601d826040518082805190602001908083835b60208310612f7b5780518252601f199092019160209182019101612f5c565b51815160209384036101000a6000190180199092169116179052920194855250604051938490030190922060040154949350505050565b6000601e826040518082805190602001908083835b60208310612fe65780518252601f199092019160209182019101612fc7565b51815160209384036101000a6000190180199092169116179052920194855250604051938490030190922060070154949350505050565b601c5481565b601c55565b60018054604080516020600284861615610100026000190190941693909304601f81018490048402820184019092528181529291830182828015612f3f5780601f10612f1457610100808354040283529160200191612f3f565b8351613095906015906020870190615536565b5082516130a9906016906020860190615536565b5081516130bd906017906020850190615536565b5080516130d1906018906020840190615536565b506130de601960006155b4565b6015601d856040518082805190602001908083835b602083106131125780518252601f1990920191602091820191016130f3565b6001836020036101000a03801982511681845116808217855250505050505090500191505090815260200160405180910390206000820181600001908054600181600116156101000203166002900461316c929190615616565b5060018201816001019080546001816001161561010002031660029004613194929190615616565b50600282810180546131b9928481019291600019610100600183161502011604615616565b50600382018160030190805460018160011615610100020316600290046131e1929190615616565b50600482810180546131f6928401919061568b565b50505050505050565b845161321290600c906020880190615536565b50835161322690600d906020870190615536565b50825161323a90600e906020860190615536565b50815161324e90600f906020850190615536565b508051613262906010906020840190615536565b506014805460ff1916600117905561327c601360006155b4565b60006012556040518551600c91601e91889190819060208401908083835b602083106132b95780518252601f19909201916020918201910161329a565b6001836020036101000a038019825116818451168082178552505050505050905001915050908152602001604051809103902060008201816000019080546001816001161561010002031660029004613313929190615616565b506001820181600101908054600181600116156101000203166002900461333b929190615616565b5060028281018054613360928481019291600019610100600183161502011604615616565b5060038201816003019080546001816001161561010002031660029004613388929190615616565b50600482018160040190805460018160011615610100020316600290046133b0929190615616565b50600582015481600501556006820154816006015560078201816007019080546133db92919061568b565b506008918201549101805460ff191660ff90921615159190911790555050505050565b6134066155d8565b87815260208082018890526040808301889052606083018790526080830186905260a0830185905260c083018490526002805460010190555189518392601f928c9290918291908401908083835b602083106134735780518252601f199092019160209182019101613454565b51815160209384036101000a60001901801990921691161790529201948552506040519384900381019093208451805191946134b494508593500190615536565b5060208281015180516134cd9260018501920190615536565b50604082015180516134e9916002840191602090910190615536565b5060608201518051613505916003840191602090910190615536565b5060808201518051613521916004840191602090910190615536565b5060a0820151805161353d916005840191602090910190615536565b5060c08201518051613559916006840191602090910190615536565b5050601b80546001810180835560009290925283518051929350849260079092027f3ad8aa4f87544323a9d1e5dd902f40c356527a7955687113db5f9a85ad579dc101916135af91839160209190910190615536565b5060208281015180516135c89260018501920190615536565b50604082015180516135e4916002840191602090910190615536565b5060608201518051613600916003840191602090910190615536565b506080820151805161361c916004840191602090910190615536565b5060a08201518051613638916005840191602090910190615536565b5060c08201518051613654916006840191602090910190615536565b505050505050505050505050565b606080601f836040518082805190602001908083835b602083106136975780518252601f199092019160209182019101613678565b6001836020036101000a0380198251168184511680821785525050505050509050019150509081526020016040518091039020600101601f846040518082805190602001908083835b602083106136ff5780518252601f1990920191602091820191016136e0565b518151600019602094850361010090810a820192831692199390931691909117909252949092019687526040805197889003820188208954601f600260018316159098029095011695909504928301829004820288018201905281875260069093019594508693509184019050828280156137bb5780601f10613790576101008083540402835291602001916137bb565b820191906000526020600020905b81548152906001019060200180831161379e57829003601f168201915b5050845460408051602060026001851615610100026000190190941693909304601f8101849004840282018401909252818152959750869450925084019050828280156138495780601f1061381e57610100808354040283529160200191613849565b820191906000526020600020905b81548152906001019060200180831161382c57829003601f168201915b5050505050905091509150915091565b600454600254035b90565b6060806060600360016000828054600181600116156101000203166002900480601f0160208091040260200160405190810160405280929190818152602001828054600181600116156101000203166002900480156139045780601f106138d957610100808354040283529160200191613904565b820191906000526020600020905b8154815290600101906020018083116138e757829003601f168201915b5050855460408051602060026001851615610100026000190190941693909304601f8101849004840282018401909252818152959850879450925084019050828280156139925780601f1061396757610100808354040283529160200191613992565b820191906000526020600020905b81548152906001019060200180831161397557829003601f168201915b5050845460408051602060026001851615610100026000190190941693909304601f810184900484028201840190925281815295975086945092508401905082828015613a205780601f106139f557610100808354040283529160200191613a20565b820191906000526020600020905b815481529060010190602001808311613a0357829003601f168201915b50505050509050925092509250909192565b6060806060601d846040518082805190602001908083835b60208310613a695780518252601f199092019160209182019101613a4a565b6001836020036101000a0380198251168184511680821785525050505050509050019150509081526020016040518091039020600101601d856040518082805190602001908083835b60208310613ad15780518252601f199092019160209182019101613ab2565b6001836020036101000a0380198251168184511680821785525050505050509050019150509081526020016040518091039020600201601d866040518082805190602001908083835b60208310613b395780518252601f199092019160209182019101613b1a565b518151600019602094850361010090810a820192831692199390931691909117909252949092019687526040805197889003820188208a54601f60026001831615909802909501169590950492830182900482028801820190528187526003909301959450879350918401905082828015613bf55780601f10613bca57610100808354040283529160200191613bf5565b820191906000526020600020905b815481529060010190602001808311613bd857829003601f168201915b5050855460408051602060026001851615610100026000190190941693909304601f810184900484028201840190925281815295985087945092508401905082828015613c835780601f10613c5857610100808354040283529160200191613c83565b820191906000526020600020905b815481529060010190602001808311613c6657829003601f168201915b5050845460408051602060026001851615610100026000190190941693909304601f810184900484028201840190925281815295975086945092508401905082828015613d115780601f10613ce657610100808354040283529160200191613d11565b820191906000526020600020905b815481529060010190602001808311613cf457829003601f168201915b505050505090509250925092509193909250565b8251613d38906003906020860190615536565b508151613d4c906001906020850190615536565b508051613d60906000906020840190615536565b50505050565b60006060601f846040518082805190602001908083835b60208310613d9c5780518252601f199092019160209182019101613d7d565b518151600019602094850361010090810a820192831692199390931691909117909252949092019687526040805197889003820188206006018054601f6002600183161590980290950116959095049283018290048202880182019052818752929450925050830182828015613e535780601f10613e2857610100808354040283529160200191613e53565b820191906000526020600020905b815481529060010190602001808311613e3657829003601f168201915b50505050509050826040516020018082805190602001908083835b60208310613e8d5780518252601f199092019160209182019101613e6e565b6001836020036101000a03801982511681845116808217855250505050505090500191505060405160208183030381529060405280519060200120816040516020018082805190602001908083835b60208310613efb5780518252601f199092019160209182019101613edc565b6001836020036101000a038019825116818451168082178552505050505050905001915050604051602081830303815290604052805190602001201491505092915050565b60608060608060606000601e876040518082805190602001908083835b60208310613f7c5780518252601f199092019160209182019101613f5d565b51815160209384036101000a600019018019909216911617905292019485525060405193849003810184208b519094601e94508c9350918291908401908083835b60208310613fdc5780518252601f199092019160209182019101613fbd565b6001836020036101000a0380198251168184511680821785525050505050509050019150509081526020016040518091039020600101601e896040518082805190602001908083835b602083106140445780518252601f199092019160209182019101614025565b6001836020036101000a0380198251168184511680821785525050505050509050019150509081526020016040518091039020600201601e8a6040518082805190602001908083835b602083106140ac5780518252601f19909201916020918201910161408d565b6001836020036101000a0380198251168184511680821785525050505050509050019150509081526020016040518091039020600301601e8b6040518082805190602001908083835b602083106141145780518252601f1990920191602091820191016140f5565b6001836020036101000a0380198251168184511680821785525050505050509050019150509081526020016040518091039020600401601e8c6040518082805190602001908083835b6020831061417c5780518252601f19909201916020918201910161415d565b518151600019602094850361010090810a82019283169219939093169190911790925294909201968752604080519788900382018820600701548d54601f6002600183161590980290950116959095049283018290048202880182019052818752929594508a93509184019050828280156142385780601f1061420d57610100808354040283529160200191614238565b820191906000526020600020905b81548152906001019060200180831161421b57829003601f168201915b5050885460408051602060026001851615610100026000190190941693909304601f8101849004840282018401909252818152959b508a9450925084019050828280156142c65780601f1061429b576101008083540402835291602001916142c6565b820191906000526020600020905b8154815290600101906020018083116142a957829003601f168201915b5050875460408051602060026001851615610100026000190190941693909304601f8101849004840282018401909252818152959a50899450925084019050828280156143545780601f1061432957610100808354040283529160200191614354565b820191906000526020600020905b81548152906001019060200180831161433757829003601f168201915b5050865460408051602060026001851615610100026000190190941693909304601f8101849004840282018401909252818152959950889450925084019050828280156143e25780601f106143b7576101008083540402835291602001916143e2565b820191906000526020600020905b8154815290600101906020018083116143c557829003601f168201915b5050855460408051602060026001851615610100026000190190941693909304601f8101849004840282018401909252818152959850879450925084019050828280156144705780601f1061444557610100808354040283529160200191614470565b820191906000526020600020905b81548152906001019060200180831161445357829003601f168201915b5050505050915095509550955095509550955091939550919395565b6060806060806060806060601f886040518082805190602001908083835b602083106144c95780518252601f1990920191602091820191016144aa565b51815160209384036101000a600019018019909216911617905292019485525060405193849003810184208c519094601f94508d9350918291908401908083835b602083106145295780518252601f19909201916020918201910161450a565b6001836020036101000a0380198251168184511680821785525050505050509050019150509081526020016040518091039020600101601f8a6040518082805190602001908083835b602083106145915780518252601f199092019160209182019101614572565b6001836020036101000a0380198251168184511680821785525050505050509050019150509081526020016040518091039020600601601f8b6040518082805190602001908083835b602083106145f95780518252601f1990920191602091820191016145da565b6001836020036101000a0380198251168184511680821785525050505050509050019150509081526020016040518091039020600201601f8c6040518082805190602001908083835b602083106146615780518252601f199092019160209182019101614642565b6001836020036101000a0380198251168184511680821785525050505050509050019150509081526020016040518091039020600301601f8d6040518082805190602001908083835b602083106146c95780518252601f1990920191602091820191016146aa565b6001836020036101000a0380198251168184511680821785525050505050509050019150509081526020016040518091039020600401601f8e6040518082805190602001908083835b602083106147315780518252601f199092019160209182019101614712565b518151600019602094850361010090810a820192831692199390931691909117909252949092019687526040805197889003820188208e54601f600260018316159098029095011695909504928301829004820288018201905281875260059093019594508b93509184019050828280156147ed5780601f106147c2576101008083540402835291602001916147ed565b820191906000526020600020905b8154815290600101906020018083116147d057829003601f168201915b5050895460408051602060026001851615610100026000190190941693909304601f8101849004840282018401909252818152959c508b94509250840190508282801561487b5780601f106148505761010080835404028352916020019161487b565b820191906000526020600020905b81548152906001019060200180831161485e57829003601f168201915b5050885460408051602060026001851615610100026000190190941693909304601f8101849004840282018401909252818152959b508a9450925084019050828280156149095780601f106148de57610100808354040283529160200191614909565b820191906000526020600020905b8154815290600101906020018083116148ec57829003601f168201915b5050875460408051602060026001851615610100026000190190941693909304601f8101849004840282018401909252818152959a50899450925084019050828280156149975780601f1061496c57610100808354040283529160200191614997565b820191906000526020600020905b81548152906001019060200180831161497a57829003601f168201915b5050865460408051602060026001851615610100026000190190941693909304601f810184900484028201840190925281815295995088945092508401905082828015614a255780601f106149fa57610100808354040283529160200191614a25565b820191906000526020600020905b815481529060010190602001808311614a0857829003601f168201915b5050855460408051602060026001851615610100026000190190941693909304601f810184900484028201840190925281815295985087945092508401905082828015614ab35780601f10614a8857610100808354040283529160200191614ab3565b820191906000526020600020905b815481529060010190602001808311614a9657829003601f168201915b5050845460408051602060026001851615610100026000190190941693909304601f810184900484028201840190925281815295975086945092508401905082828015614b415780601f10614b1657610100808354040283529160200191614b41565b820191906000526020600020905b815481529060010190602001808311614b2457829003601f168201915b505050505090509650965096509650965096509650919395979092949650565b6000614b6e6013826155b4565b601e836040518082805190602001908083835b60208310614ba05780518252601f199092019160209182019101614b81565b6001836020036101000a0380198251168184511680821785525050505050509050019150509081526020016040518091039020600c60008201816000019080546001816001161561010002031660029004614bfc929190615616565b5060018201816001019080546001816001161561010002031660029004614c24929190615616565b5060028281018054614c49928481019291600019610100600183161502011604615616565b5060038201816003019080546001816001161561010002031660029004614c71929190615616565b5060048201816004019080546001816001161561010002031660029004614c99929190615616565b5060058201548160050155600682015481600601556007820181600701908054614cc492919061568b565b506008918201549101805460ff191660ff9283161515179055601454161515614cef57506000612eb3565b614cfb601960006155b4565b601d826040518082805190602001908083835b60208310614d2d5780518252601f199092019160209182019101614d0e565b6001836020036101000a0380198251168184511680821785525050505050509050019150509081526020016040518091039020601560008201816000019080546001816001161561010002031660029004614d89929190615616565b5060018201816001019080546001816001161561010002031660029004614db1929190615616565b5060028281018054614dd6928481019291600019610100600183161502011604615616565b5060038201816003019080546001816001161561010002031660029004614dfe929190615616565b5060048281018054614e13928401919061568b565b5050601380549091506000908110614e2757fe5b9060005260206000209060070201600560008201816000019080546001816001161561010002031660029004614e5e929190615616565b5060018201816001019080546001816001161561010002031660029004614e86929190615616565b5060028281018054614eab928481019291600019610100600183161502011604615616565b5060038201816003019080546001816001161561010002031660029004614ed3929190615616565b5060048201816004019080546001816001161561010002031660029004614efb929190615616565b5060058201816005019080546001816001161561010002031660029004614f23929190615616565b5060068201816006019080546001816001161561010002031660029004614f4b929190615616565b5060009150505b601354600019018110156150be576013805460018301908110614f7157fe5b9060005260206000209060070201600c60070182815481101515614f9157fe5b906000526020600020906007020160008201816000019080546001816001161561010002031660029004614fc6929190615616565b5060018201816001019080546001816001161561010002031660029004614fee929190615616565b5060028281018054615013928481019291600019610100600183161502011604615616565b506003820181600301908054600181600116156101000203166002900461503b929190615616565b5060048201816004019080546001816001161561010002031660029004615063929190615616565b506005820181600501908054600181600116156101000203166002900461508b929190615616565b50600682018160060190805460018160011615610100020316600290046150b3929190615616565b505050600101614f52565b50601380548015156150cc57fe5b600082815260208120600019909201916007830201906150ec82826157ef565b6150fa6001830160006157ef565b6151086002830160006157ef565b6151166003830160006157ef565b6151246004830160006157ef565b6151326005830160006157ef565b6151406006830160006157ef565b50509055600c601e846040518082805190602001908083835b602083106151785780518252601f199092019160209182019101615159565b6001836020036101000a0380198251168184511680821785525050505050509050019150509081526020016040518091039020600082018160000190805460018160011615610100020316600290046151d2929190615616565b50600182018160010190805460018160011615610100020316600290046151fa929190615616565b506002828101805461521f928481019291600019610100600183161502011604615616565b5060038201816003019080546001816001161561010002031660029004615247929190615616565b506004820181600401908054600181600116156101000203166002900461526f929190615616565b506005820154816005015560068201548160060155600782018160070190805461529a92919061568b565b506008918201549101805460ff191660ff9092161515919091179055604051600580548492601f92918190839060026101006001831615026000190190911604801561531d5780601f106152fb57610100808354040283529182019161531d565b820191906000526020600020905b815481529060010190602001808311615309575b505091505090815260200160405180910390206006019080519060200190615346929190615536565b50601d826040518082805190602001908083835b602083106153795780518252601f19909201916020918201910161535a565b518151602093840361010090810a6000199081018019909416939092169290921790925292909401968752604051968790038101909620600401805460018082018084556000938452989092206005805490985060079092020195506153ed94869450879360029383161502011604615616565b5060018201816001019080546001816001161561010002031660029004615415929190615616565b506002828101805461543a928481019291600019610100600183161502011604615616565b5060038201816003019080546001816001161561010002031660029004615462929190615616565b506004820181600401908054600181600116156101000203166002900461548a929190615616565b50600582018160050190805460018160011615610100020316600290046154b2929190615616565b50600682018160060190805460018160011615610100020316600290046154da929190615616565b5060019695505050505050565b6101206040519081016040528060608152602001606081526020016060815260200160608152602001606081526020016000815260200160008152602001606081526020016000151581525090565b828054600181600116156101000203166002900490600052602060002090601f016020900481019282601f1061557757805160ff19168380011785556155a4565b828001600101855582156155a4579182015b828111156155a4578251825591602001919060010190615589565b506155b092915061582f565b5090565b50805460008255600702906000526020600020908101906155d59190615849565b50565b60e060405190810160405280606081526020016060815260200160608152602001606081526020016060815260200160608152602001606081525090565b828054600181600116156101000203166002900490600052602060002090601f016020900481019282601f1061564f57805485556155a4565b828001600101855582156155a457600052602060002091601f016020900482015b828111156155a4578254825591600101919060010190615670565b8280548282559060005260206000209060070281019282156157e35760005260206000209160070282015b828111156157e3578254839083906156e4908290849060026000196101006001841615020190911604615616565b506001820181600101908054600181600116156101000203166002900461570c929190615616565b5060028281018054615731928481019291600019610100600183161502011604615616565b5060038201816003019080546001816001161561010002031660029004615759929190615616565b5060048201816004019080546001816001161561010002031660029004615781929190615616565b50600582018160050190805460018160011615610100020316600290046157a9929190615616565b50600682018160060190805460018160011615610100020316600290046157d1929190615616565b505050916007019190600701906156b6565b506155b0929150615849565b50805460018160011615610100020316600290046000825580601f1061581557506155d5565b601f0160209004906000526020600020908101906155d591905b61386191905b808211156155b05760008155600101615835565b61386191905b808211156155b057600061586382826157ef565b6158716001830160006157ef565b61587f6002830160006157ef565b61588d6003830160006157ef565b61589b6004830160006157ef565b6158a96005830160006157ef565b6158b76006830160006157ef565b5060070161584f56fea165627a7a72305820c9e0826ef7227b19d598e69c7c26948194581da86aedc91af42bef54716011b10029",
  "source": "// SPDX-License-Identifier: MIT\r\npragma solidity >=0.4.22 <0.9.0;\r\n\r\ncontract BlockFeit {\r\n    // product structure\r\n    struct Product {\r\n        string id;\r\n        string name;\r\n        string width;\r\n        string height;\r\n        string time_stamp;\r\n        string batch;\r\n        string ownwer;\r\n    }\r\n\r\n    // Customer/User structure\r\n    struct Customer {\r\n        string id;\r\n        string name;\r\n        string phone_no;\r\n        string email;\r\n        Product[] purchesed;\r\n    }\r\n\r\n    // Retailer\r\n    struct Retailer {\r\n        string id;\r\n        string name;\r\n        string phone_no;\r\n        string email;\r\n        string location;\r\n        uint256 remaining;\r\n        uint256 sold;\r\n        Product[] available;\r\n        bool present;\r\n    }\r\n\r\n    // manufacturer Details\r\n    string public brand;\r\n    string public location;\r\n    uint256 total_manufacturered;\r\n    string private manufacturer;\r\n\r\n    // Contract variables\r\n    uint256 indx;\r\n    Product tempProduct;\r\n    Retailer tempRetailer;\r\n    Customer tempCustomer;\r\n    Product[] tempProducts;\r\n    Product[] manufacturered;\r\n\r\n    uint256 public val = 10;\r\n\r\n    function setVal(uint256 _x) public {\r\n        val = _x;\r\n    }\r\n\r\n    // mapping\r\n    mapping(string => Customer) customers;\r\n    mapping(string => Retailer) retailers;\r\n    mapping(string => Product) productMapping;\r\n\r\n    // initialize Contract\r\n    constructor() public {\r\n        total_manufacturered = 0;\r\n        indx = 0;\r\n    }\r\n\r\n    /*\r\n        this fuction set manufacturer into system\r\n        @params= _manufacturer name, location, brand\r\n    */\r\n    function addManufacturer(\r\n        string memory _manufacturer,\r\n        string memory _location,\r\n        string memory _brand\r\n    ) public {\r\n        manufacturer = _manufacturer;\r\n        location = _location;\r\n        brand = _brand;\r\n    }\r\n\r\n    function getManufacture()\r\n        public\r\n        view\r\n        returns (\r\n            string memory,\r\n            string memory,\r\n            string memory\r\n        )\r\n    {\r\n        return (manufacturer, location, brand);\r\n    }\r\n\r\n    /*\r\n        This function add Vendor/ Retailer into system\r\n        Expects Retailer details as parameters\r\n        @params= id, name, phone_no, email, location\r\n    */\r\n    function addRetailer(\r\n        string memory _id,\r\n        string memory _name,\r\n        string memory _phone_no,\r\n        string memory _email,\r\n        string memory _location\r\n    ) public {\r\n        /*\r\n    struct Retailer {\r\n        string id;\r\n        string name;\r\n        string phone_no;\r\n        string email;\r\n        string location;\r\n        uint256 remaining;\r\n        uint256 sold;\r\n        Product[] available;\r\n        bool present;\r\n    }\r\n\r\n        */\r\n        tempRetailer.id = _id;\r\n        tempRetailer.name = _name;\r\n        tempRetailer.phone_no = _phone_no;\r\n        tempRetailer.email = _email;\r\n        tempRetailer.location = _location;\r\n        tempRetailer.present = true;\r\n        delete tempRetailer.available;\r\n        tempRetailer.sold = 0;\r\n        retailers[_id] = tempRetailer;\r\n    }\r\n\r\n    /*\r\n        This function add Customer/user into system\r\n        Expects Customer details as parameters\r\n        @params= id, name, phone_no, email\r\n    */\r\n    function addCustomer(\r\n        string memory _id,\r\n        string memory _name,\r\n        string memory _phone_no,\r\n        string memory _email\r\n    ) public {\r\n        tempCustomer.id = _id;\r\n        tempCustomer.name = _name;\r\n        tempCustomer.phone_no = _phone_no;\r\n        tempCustomer.email = _email;\r\n        delete tempCustomer.purchesed;\r\n        customers[_id] = tempCustomer;\r\n    }\r\n\r\n    /*\r\n        This function sells product to Vendor/Retailer by manufacturer\r\n        Expects Retailer id and Quantity as parameters\r\n        @params= _id, _quantity \r\n    */\r\n    string MSG = \"Retailer Does not Exist\";\r\n\r\n    function sellProductsToRetailer(string memory _id, uint256 _quantity)\r\n        public\r\n        returns (string memory)\r\n    {\r\n        Retailer memory retailer = retailers[_id];\r\n        if ((_quantity + indx) > manufacturered.length) {\r\n            MSG = \"Insufficient products\";\r\n            return (MSG);\r\n        } else if (retailer.present == false) {\r\n            return (MSG);\r\n        }\r\n\r\n        delete tempRetailer.available;\r\n\r\n        tempRetailer.id = retailer.id;\r\n        tempRetailer.name = retailer.name;\r\n        tempRetailer.phone_no = retailer.phone_no;\r\n        tempRetailer.email = retailer.email;\r\n        tempRetailer.location = retailer.location;\r\n        tempRetailer.present = true;\r\n\r\n        for (uint256 tt = 0; tt < retailer.available.length; tt++) {\r\n            Product memory p = retailer.available[tt];\r\n            tempRetailer.available.push(p);\r\n        }\r\n\r\n        for (uint256 i = 0; i < _quantity; i++) {\r\n            // Product memory present = retailer.available[i];\r\n            Product memory present = manufacturered[indx];\r\n            present.ownwer = _id;\r\n            productMapping[present.id].ownwer = _id;\r\n            indx++;\r\n            tempRetailer.available.push(present);\r\n        }\r\n        retailers[_id] = tempRetailer;\r\n        MSG = \"Productes Added successfully\";\r\n        return MSG;\r\n    }\r\n\r\n    /*\r\n        This function sells product to Customer  by Vendor/Retailer \r\n        Expects Retailer id and customer_id as parameters\r\n        @params= _seller_id, _customer_id\r\n    */\r\n    function sellProductToCustomer(\r\n        string memory _seller_id,\r\n        string memory _customer_id\r\n    ) public returns (uint256) {\r\n        delete tempRetailer.available;\r\n        tempRetailer = retailers[_seller_id];\r\n\r\n        if (tempRetailer.present == false) return (0);\r\n\r\n        delete tempCustomer.purchesed;\r\n        tempCustomer = customers[_customer_id];\r\n\r\n        tempProduct = tempRetailer.available[0];\r\n\r\n        for (uint256 i = 0; i < tempRetailer.available.length - 1; i++) {\r\n            tempRetailer.available[i] = tempRetailer.available[i + 1];\r\n        }\r\n\r\n        tempRetailer.available.pop();\r\n        retailers[_seller_id] = tempRetailer;\r\n        productMapping[tempProduct.id].ownwer = _customer_id;\r\n        customers[_customer_id].purchesed.push(tempProduct);\r\n\r\n        return 1;\r\n    }\r\n\r\n    /*\r\n        This function add product into system\r\n        Expects product details as parameters\r\n        @params= id, name, width, height, time_stamp, batch, owner\r\n    */\r\n    function addProduct(\r\n        string memory _id,\r\n        string memory _name,\r\n        string memory _width,\r\n        string memory _height,\r\n        string memory _time_stamp,\r\n        string memory _batch,\r\n        string memory _owner\r\n    ) public {\r\n        Product memory product;\r\n        product.id = _id;\r\n        product.name = _name;\r\n        product.width = _width;\r\n        product.height = _height;\r\n        product.time_stamp = _time_stamp;\r\n        product.batch = _batch;\r\n        product.ownwer = _owner;\r\n\r\n        total_manufacturered++;\r\n        productMapping[_id] = product;\r\n        manufacturered.push(product);\r\n    }\r\n\r\n    /*\r\n        @params : product id\r\n        returns product info\r\n        id, owner, name, width, height, time_stamp, batch\r\n    */\r\n    function getProductDetail(string memory _product_id)\r\n        public\r\n        view\r\n        returns (\r\n            string memory,\r\n            string memory,\r\n            string memory,\r\n            string memory,\r\n            string memory,\r\n            string memory,\r\n            string memory\r\n        )\r\n    {\r\n        return (\r\n            productMapping[_product_id].id,\r\n            productMapping[_product_id].name,\r\n            productMapping[_product_id].ownwer,\r\n            productMapping[_product_id].width,\r\n            productMapping[_product_id].height,\r\n            productMapping[_product_id].time_stamp,\r\n            productMapping[_product_id].batch\r\n        );\r\n    }\r\n\r\n    /*\r\n        Function name : getRetailerProductCount\r\n        @params : retailer_id\r\n        returns how many products are availabe to vendor\r\n    */\r\n    function getRetailerProductCount(string memory _retailer_id)\r\n        public\r\n        view\r\n        returns (uint256)\r\n    {\r\n        return (retailers[_retailer_id].available.length);\r\n    }\r\n\r\n    /*\r\n        Function name : getCustomerProductCount\r\n        @params : customer_id\r\n        returns how many products purched by customer\r\n    */\r\n    function getCustomerProductCount(string memory _customer_id)\r\n        public\r\n        view\r\n        returns (uint256)\r\n    {\r\n        return (customers[_customer_id].purchesed.length);\r\n    }\r\n\r\n    function getCustomerDetail(string memory _customer_id)\r\n        public\r\n        view\r\n        returns (\r\n            string memory,\r\n            string memory,\r\n            string memory\r\n        )\r\n    {\r\n        return (\r\n            customers[_customer_id].name,\r\n            customers[_customer_id].phone_no,\r\n            customers[_customer_id].email\r\n        );\r\n    }\r\n\r\n    /*\r\n        Function name : getManufacturerCount\r\n        @params :none\r\n        returns how many products availabe to manufacturer\r\n\r\n        \r\n    */\r\n    function getManufacturerCount() public view returns (uint256) {\r\n        return (total_manufacturered - indx);\r\n    }\r\n\r\n    /*\r\n        function name : getRetailerDetails\r\n        @params : retailer_id\r\n        returns retailer info\r\n        like : id, name, phone_no, email, location, products available\r\n    */\r\n    function getRetailerDetails(string memory retailer_id)\r\n        public\r\n        view\r\n        returns (\r\n            string memory,\r\n            string memory,\r\n            string memory,\r\n            string memory,\r\n            string memory,\r\n            uint256\r\n        )\r\n    {\r\n        return (\r\n            retailers[retailer_id].id,\r\n            retailers[retailer_id].name,\r\n            retailers[retailer_id].phone_no,\r\n            retailers[retailer_id].email,\r\n            retailers[retailer_id].location,\r\n            retailers[retailer_id].available.length\r\n        );\r\n    }\r\n\r\n    /*\r\n       fuction name: getOwnerOfProduct\r\n        Expected product_id as parameters\r\n        @params= product_id\r\n        returns product name and product owner\r\n\r\n    */\r\n\r\n    function getOwnerOfProduct(string memory product_id)\r\n        public\r\n        view\r\n        returns (string memory, string memory)\r\n    {\r\n        return (\r\n            productMapping[product_id].name,\r\n            productMapping[product_id].ownwer\r\n        );\r\n    }\r\n\r\n    /*\r\n        This function verify ownership of produt\r\n        Expected product id, owner id ad parameters\r\n        @params= product_id, owner_id\r\n        returns Boolean value if ownership matched with product owner\r\n    */\r\n    function verifyOwnership(string memory product_id, string memory owner_id)\r\n        public\r\n        view\r\n        returns (bool)\r\n    {\r\n        string memory owner = productMapping[product_id].ownwer;\r\n        return (keccak256(abi.encodePacked((owner))) ==\r\n            keccak256(abi.encodePacked((owner_id))));\r\n    }\r\n}\r\n",
  "sourcePath": "D:/BE-project/BlockFeit-BE-project/Back-End/contracts/BlockFeit.sol",
  "compiler": {
    "name": "solc",
    "version": "0.5.0+commit.1d4f565a.Emscripten.clang"
  },
  "schemaVersion": "3.0.1",
  "updatedAt": "2022-03-09T17:12:27.000Z",
  "devdoc": {
    "methods": {}
  },
  "userdoc": {
    "methods": {}
  }
}