{
  "contractName": "BlockFeit",
  "abi": [
    {
      "constant": true,
      "inputs": [],
      "name": "brand",
      "outputs": [
        {
          "name": "",
          "type": "string"
        }
      ],
      "payable": false,
      "stateMutability": "view",
      "type": "function",
      "signature": "0x2d9fff01"
    },
    {
      "constant": true,
      "inputs": [],
      "name": "val",
      "outputs": [
        {
          "name": "",
          "type": "uint256"
        }
      ],
      "payable": false,
      "stateMutability": "view",
      "type": "function",
      "signature": "0x3c6bb436"
    },
    {
      "constant": true,
      "inputs": [],
      "name": "location",
      "outputs": [
        {
          "name": "",
          "type": "string"
        }
      ],
      "payable": false,
      "stateMutability": "view",
      "type": "function",
      "signature": "0x516f279e"
    },
    {
      "inputs": [],
      "payable": false,
      "stateMutability": "nonpayable",
      "type": "constructor",
      "signature": "constructor"
    },
    {
      "constant": false,
      "inputs": [
        {
          "name": "_x",
          "type": "uint256"
        }
      ],
      "name": "setVal",
      "outputs": [],
      "payable": false,
      "stateMutability": "nonpayable",
      "type": "function",
      "signature": "0x3d4197f0"
    },
    {
      "constant": false,
      "inputs": [
        {
          "name": "_manufacturer",
          "type": "string"
        },
        {
          "name": "_location",
          "type": "string"
        },
        {
          "name": "_brand",
          "type": "string"
        }
      ],
      "name": "addManufacturer",
      "outputs": [],
      "payable": false,
      "stateMutability": "nonpayable",
      "type": "function",
      "signature": "0xbc544e7d"
    },
    {
      "constant": true,
      "inputs": [],
      "name": "getManufacture",
      "outputs": [
        {
          "name": "",
          "type": "string"
        },
        {
          "name": "",
          "type": "string"
        },
        {
          "name": "",
          "type": "string"
        }
      ],
      "payable": false,
      "stateMutability": "view",
      "type": "function",
      "signature": "0xb4bfaea0"
    },
    {
      "constant": false,
      "inputs": [
        {
          "name": "_id",
          "type": "string"
        },
        {
          "name": "_name",
          "type": "string"
        },
        {
          "name": "_phone_no",
          "type": "string"
        },
        {
          "name": "_email",
          "type": "string"
        },
        {
          "name": "_location",
          "type": "string"
        }
      ],
      "name": "addRetailer",
      "outputs": [],
      "payable": false,
      "stateMutability": "nonpayable",
      "type": "function",
      "signature": "0x619cce0f"
    },
    {
      "constant": false,
      "inputs": [
        {
          "name": "_id",
          "type": "string"
        },
        {
          "name": "_name",
          "type": "string"
        },
        {
          "name": "_phone_no",
          "type": "string"
        },
        {
          "name": "_email",
          "type": "string"
        }
      ],
      "name": "addCustomer",
      "outputs": [],
      "payable": false,
      "stateMutability": "nonpayable",
      "type": "function",
      "signature": "0x5c025f94"
    },
    {
      "constant": false,
      "inputs": [
        {
          "name": "_id",
          "type": "string"
        },
        {
          "name": "_quantity",
          "type": "uint256"
        }
      ],
      "name": "sellProductsToRetailer",
      "outputs": [
        {
          "name": "",
          "type": "string"
        }
      ],
      "payable": false,
      "stateMutability": "nonpayable",
      "type": "function",
      "signature": "0x1b412927"
    },
    {
      "constant": false,
      "inputs": [
        {
          "name": "_seller_id",
          "type": "string"
        },
        {
          "name": "_customer_id",
          "type": "string"
        }
      ],
      "name": "sellProductToCustomer",
      "outputs": [
        {
          "name": "",
          "type": "uint256"
        }
      ],
      "payable": false,
      "stateMutability": "nonpayable",
      "type": "function",
      "signature": "0xffad4f0d"
    },
    {
      "constant": false,
      "inputs": [
        {
          "name": "_id",
          "type": "string"
        },
        {
          "name": "_name",
          "type": "string"
        },
        {
          "name": "_width",
          "type": "string"
        },
        {
          "name": "_height",
          "type": "string"
        },
        {
          "name": "_time_stamp",
          "type": "string"
        },
        {
          "name": "_batch",
          "type": "string"
        },
        {
          "name": "_owner",
          "type": "string"
        }
      ],
      "name": "addProduct",
      "outputs": [],
      "payable": false,
      "stateMutability": "nonpayable",
      "type": "function",
      "signature": "0x67a6377a"
    },
    {
      "constant": true,
      "inputs": [
        {
          "name": "_product_id",
          "type": "string"
        }
      ],
      "name": "getProductDetail",
      "outputs": [
        {
          "name": "",
          "type": "string"
        },
        {
          "name": "",
          "type": "string"
        },
        {
          "name": "",
          "type": "string"
        },
        {
          "name": "",
          "type": "string"
        },
        {
          "name": "",
          "type": "string"
        },
        {
          "name": "",
          "type": "string"
        },
        {
          "name": "",
          "type": "string"
        }
      ],
      "payable": false,
      "stateMutability": "view",
      "type": "function",
      "signature": "0xee786260"
    },
    {
      "constant": true,
      "inputs": [
        {
          "name": "_retailer_id",
          "type": "string"
        }
      ],
      "name": "getRetailerProductCount",
      "outputs": [
        {
          "name": "",
          "type": "uint256"
        }
      ],
      "payable": false,
      "stateMutability": "view",
      "type": "function",
      "signature": "0x3215769e"
    },
    {
      "constant": true,
      "inputs": [
        {
          "name": "_customer_id",
          "type": "string"
        }
      ],
      "name": "getCustomerProductCount",
      "outputs": [
        {
          "name": "",
          "type": "uint256"
        }
      ],
      "payable": false,
      "stateMutability": "view",
      "type": "function",
      "signature": "0x301574c0"
    },
    {
      "constant": true,
      "inputs": [],
      "name": "getManufacturerCount",
      "outputs": [
        {
          "name": "",
          "type": "uint256"
        }
      ],
      "payable": false,
      "stateMutability": "view",
      "type": "function",
      "signature": "0xa9416c9e"
    },
    {
      "constant": true,
      "inputs": [
        {
          "name": "retailer_id",
          "type": "string"
        }
      ],
      "name": "getRetailerDetails",
      "outputs": [
        {
          "name": "",
          "type": "string"
        },
        {
          "name": "",
          "type": "string"
        },
        {
          "name": "",
          "type": "string"
        },
        {
          "name": "",
          "type": "string"
        },
        {
          "name": "",
          "type": "string"
        },
        {
          "name": "",
          "type": "uint256"
        }
      ],
      "payable": false,
      "stateMutability": "view",
      "type": "function",
      "signature": "0xea788dd1"
    },
    {
      "constant": true,
      "inputs": [
        {
          "name": "product_id",
          "type": "string"
        }
      ],
      "name": "getOwnerOfProduct",
      "outputs": [
        {
          "name": "",
          "type": "string"
        },
        {
          "name": "",
          "type": "string"
        }
      ],
      "payable": false,
      "stateMutability": "view",
      "type": "function",
      "signature": "0x9fd42e64"
    },
    {
      "constant": true,
      "inputs": [
        {
          "name": "product_id",
          "type": "string"
        },
        {
          "name": "owner_id",
          "type": "string"
        }
      ],
      "name": "verifyOwnership",
      "outputs": [
        {
          "name": "",
          "type": "bool"
        }
      ],
      "payable": false,
      "stateMutability": "view",
      "type": "function",
      "signature": "0xc196b082"
    }
  ],
  "bytecode": "0x600a601c5560c0604052601760808190527f52657461696c657220446f6573206e6f7420457869737400000000000000000060a090815262000045916020919062000064565b503480156200005357600080fd5b506000600281905560045562000109565b828054600181600116156101000203166002900490600052602060002090601f016020900481019282601f10620000a757805160ff1916838001178555620000d7565b82800160010185558215620000d7579182015b82811115620000d7578251825591602001919060010190620000ba565b50620000e5929150620000e9565b5090565b6200010691905b80821115620000e55760008155600101620000f0565b90565b61534c80620001196000396000f3fe6080604052600436106100fb5763ffffffff7c01000000000000000000000000000000000000000000000000000000006000350416631b41292781146101005780632d9fff011461022a578063301574c01461023f5780633215769e146103045780633c6bb436146103b75780633d4197f0146103cc578063516f279e146103f85780635c025f941461040d578063619cce0f1461065557806367a6377a146109245780639fd42e6414610d01578063a9416c9e14610e92578063b4bfaea014610ea7578063bc544e7d14611000578063c196b082146111c1578063ea788dd11461130f578063ee786260146115d9578063ffad4f0d1461196b575b600080fd5b34801561010c57600080fd5b506101b56004803603604081101561012357600080fd5b81019060208101813564010000000081111561013e57600080fd5b82018360208201111561015057600080fd5b8035906020019184600183028401116401000000008311171561017257600080fd5b91908080601f0160208091040260200160405190810160405280939291908181526020018383808284376000920191909152509295505091359250611aa5915050565b6040805160208082528351818301528351919283929083019185019080838360005b838110156101ef5781810151838201526020016101d7565b50505050905090810190601f16801561021c5780820380516001836020036101000a031916815260200191505b509250505060405180910390f35b34801561023657600080fd5b506101b5612dfb565b34801561024b57600080fd5b506102f26004803603602081101561026257600080fd5b81019060208101813564010000000081111561027d57600080fd5b82018360208201111561028f57600080fd5b803590602001918460018302840111640100000000831117156102b157600080fd5b91908080601f016020809104026020016040519081016040528093929190818152602001838380828437600092019190915250929550612e89945050505050565b60408051918252519081900360200190f35b34801561031057600080fd5b506102f26004803603602081101561032757600080fd5b81019060208101813564010000000081111561034257600080fd5b82018360208201111561035457600080fd5b8035906020019184600183028401116401000000008311171561037657600080fd5b91908080601f016020809104026020016040519081016040528093929190818152602001838380828437600092019190915250929550612ef4945050505050565b3480156103c357600080fd5b506102f2612f5f565b3480156103d857600080fd5b506103f6600480360360208110156103ef57600080fd5b5035612f65565b005b34801561040457600080fd5b506101b5612f6a565b34801561041957600080fd5b506103f66004803603608081101561043057600080fd5b81019060208101813564010000000081111561044b57600080fd5b82018360208201111561045d57600080fd5b8035906020019184600183028401116401000000008311171561047f57600080fd5b91908080601f01602080910402602001604051908101604052809392919081815260200183838082843760009201919091525092959493602081019350359150506401000000008111156104d257600080fd5b8201836020820111156104e457600080fd5b8035906020019184600183028401116401000000008311171561050657600080fd5b91908080601f016020809104026020016040519081016040528093929190818152602001838380828437600092019190915250929594936020810193503591505064010000000081111561055957600080fd5b82018360208201111561056b57600080fd5b8035906020019184600183028401116401000000008311171561058d57600080fd5b91908080601f01602080910402602001604051908101604052809392919081815260200183838082843760009201919091525092959493602081019350359150506401000000008111156105e057600080fd5b8201836020820111156105f257600080fd5b8035906020019184600183028401116401000000008311171561061457600080fd5b91908080601f016020809104026020016040519081016040528093929190818152602001838380828437600092019190915250929550612fc4945050505050565b34801561066157600080fd5b506103f6600480360360a081101561067857600080fd5b81019060208101813564010000000081111561069357600080fd5b8201836020820111156106a557600080fd5b803590602001918460018302840111640100000000831117156106c757600080fd5b91908080601f016020809104026020016040519081016040528093929190818152602001838380828437600092019190915250929594936020810193503591505064010000000081111561071a57600080fd5b82018360208201111561072c57600080fd5b8035906020019184600183028401116401000000008311171561074e57600080fd5b91908080601f01602080910402602001604051908101604052809392919081815260200183838082843760009201919091525092959493602081019350359150506401000000008111156107a157600080fd5b8201836020820111156107b357600080fd5b803590602001918460018302840111640100000000831117156107d557600080fd5b91908080601f016020809104026020016040519081016040528093929190818152602001838380828437600092019190915250929594936020810193503591505064010000000081111561082857600080fd5b82018360208201111561083a57600080fd5b8035906020019184600183028401116401000000008311171561085c57600080fd5b91908080601f01602080910402602001604051908101604052809392919081815260200183838082843760009201919091525092959493602081019350359150506401000000008111156108af57600080fd5b8201836020820111156108c157600080fd5b803590602001918460018302840111640100000000831117156108e357600080fd5b91908080601f016020809104026020016040519081016040528093929190818152602001838380828437600092019190915250929550613141945050505050565b34801561093057600080fd5b506103f6600480360360e081101561094757600080fd5b81019060208101813564010000000081111561096257600080fd5b82018360208201111561097457600080fd5b8035906020019184600183028401116401000000008311171561099657600080fd5b91908080601f01602080910402602001604051908101604052809392919081815260200183838082843760009201919091525092959493602081019350359150506401000000008111156109e957600080fd5b8201836020820111156109fb57600080fd5b80359060200191846001830284011164010000000083111715610a1d57600080fd5b91908080601f0160208091040260200160405190810160405280939291908181526020018383808284376000920191909152509295949360208101935035915050640100000000811115610a7057600080fd5b820183602082011115610a8257600080fd5b80359060200191846001830284011164010000000083111715610aa457600080fd5b91908080601f0160208091040260200160405190810160405280939291908181526020018383808284376000920191909152509295949360208101935035915050640100000000811115610af757600080fd5b820183602082011115610b0957600080fd5b80359060200191846001830284011164010000000083111715610b2b57600080fd5b91908080601f0160208091040260200160405190810160405280939291908181526020018383808284376000920191909152509295949360208101935035915050640100000000811115610b7e57600080fd5b820183602082011115610b9057600080fd5b80359060200191846001830284011164010000000083111715610bb257600080fd5b91908080601f0160208091040260200160405190810160405280939291908181526020018383808284376000920191909152509295949360208101935035915050640100000000811115610c0557600080fd5b820183602082011115610c1757600080fd5b80359060200191846001830284011164010000000083111715610c3957600080fd5b91908080601f0160208091040260200160405190810160405280939291908181526020018383808284376000920191909152509295949360208101935035915050640100000000811115610c8c57600080fd5b820183602082011115610c9e57600080fd5b80359060200191846001830284011164010000000083111715610cc057600080fd5b91908080601f016020809104026020016040519081016040528093929190818152602001838380828437600092019190915250929550613151945050505050565b348015610d0d57600080fd5b50610db460048036036020811015610d2457600080fd5b810190602081018135640100000000811115610d3f57600080fd5b820183602082011115610d5157600080fd5b80359060200191846001830284011164010000000083111715610d7357600080fd5b91908080601f0160208091040260200160405190810160405280939291908181526020018383808284376000920191909152509295506133b5945050505050565b604051808060200180602001838103835285818151815260200191508051906020019080838360005b83811015610df5578181015183820152602001610ddd565b50505050905090810190601f168015610e225780820380516001836020036101000a031916815260200191505b50838103825284518152845160209182019186019080838360005b83811015610e55578181015183820152602001610e3d565b50505050905090810190601f168015610e825780820380516001836020036101000a031916815260200191505b5094505050505060405180910390f35b348015610e9e57600080fd5b506102f26135ac565b348015610eb357600080fd5b50610ebc6135b7565b60405180806020018060200180602001848103845287818151815260200191508051906020019080838360005b83811015610f01578181015183820152602001610ee9565b50505050905090810190601f168015610f2e5780820380516001836020036101000a031916815260200191505b50848103835286518152865160209182019188019080838360005b83811015610f61578181015183820152602001610f49565b50505050905090810190601f168015610f8e5780820380516001836020036101000a031916815260200191505b50848103825285518152855160209182019187019080838360005b83811015610fc1578181015183820152602001610fa9565b50505050905090810190601f168015610fee5780820380516001836020036101000a031916815260200191505b50965050505050505060405180910390f35b34801561100c57600080fd5b506103f66004803603606081101561102357600080fd5b81019060208101813564010000000081111561103e57600080fd5b82018360208201111561105057600080fd5b8035906020019184600183028401116401000000008311171561107257600080fd5b91908080601f01602080910402602001604051908101604052809392919081815260200183838082843760009201919091525092959493602081019350359150506401000000008111156110c557600080fd5b8201836020820111156110d757600080fd5b803590602001918460018302840111640100000000831117156110f957600080fd5b91908080601f016020809104026020016040519081016040528093929190818152602001838380828437600092019190915250929594936020810193503591505064010000000081111561114c57600080fd5b82018360208201111561115e57600080fd5b8035906020019184600183028401116401000000008311171561118057600080fd5b91908080601f016020809104026020016040519081016040528093929190818152602001838380828437600092019190915250929550613785945050505050565b3480156111cd57600080fd5b506112fb600480360360408110156111e457600080fd5b8101906020810181356401000000008111156111ff57600080fd5b82018360208201111561121157600080fd5b8035906020019184600183028401116401000000008311171561123357600080fd5b91908080601f016020809104026020016040519081016040528093929190818152602001838380828437600092019190915250929594936020810193503591505064010000000081111561128657600080fd5b82018360208201111561129857600080fd5b803590602001918460018302840111640100000000831117156112ba57600080fd5b91908080601f0160208091040260200160405190810160405280939291908181526020018383808284376000920191909152509295506137c6945050505050565b604080519115158252519081900360200190f35b34801561131b57600080fd5b506113c26004803603602081101561133257600080fd5b81019060208101813564010000000081111561134d57600080fd5b82018360208201111561135f57600080fd5b8035906020019184600183028401116401000000008311171561138157600080fd5b91908080601f0160208091040260200160405190810160405280939291908181526020018383808284376000920191909152509295506139a0945050505050565b60405180806020018060200180602001806020018060200187815260200186810386528c818151815260200191508051906020019080838360005b838110156114155781810151838201526020016113fd565b50505050905090810190601f1680156114425780820380516001836020036101000a031916815260200191505b5086810385528b5181528b516020918201918d019080838360005b8381101561147557818101518382015260200161145d565b50505050905090810190601f1680156114a25780820380516001836020036101000a031916815260200191505b5086810384528a5181528a516020918201918c019080838360005b838110156114d55781810151838201526020016114bd565b50505050905090810190601f1680156115025780820380516001836020036101000a031916815260200191505b5086810383528951815289516020918201918b019080838360005b8381101561153557818101518382015260200161151d565b50505050905090810190601f1680156115625780820380516001836020036101000a031916815260200191505b5086810382528851815288516020918201918a019080838360005b8381101561159557818101518382015260200161157d565b50505050905090810190601f1680156115c25780820380516001836020036101000a031916815260200191505b509b50505050505050505050505060405180910390f35b3480156115e557600080fd5b5061168c600480360360208110156115fc57600080fd5b81019060208101813564010000000081111561161757600080fd5b82018360208201111561162957600080fd5b8035906020019184600183028401116401000000008311171561164b57600080fd5b91908080601f016020809104026020016040519081016040528093929190818152602001838380828437600092019190915250929550613eec945050505050565b604051808060200180602001806020018060200180602001806020018060200188810388528f818151815260200191508051906020019080838360005b838110156116e15781810151838201526020016116c9565b50505050905090810190601f16801561170e5780820380516001836020036101000a031916815260200191505b5088810387528e818151815260200191508051906020019080838360005b8381101561174457818101518382015260200161172c565b50505050905090810190601f1680156117715780820380516001836020036101000a031916815260200191505b5088810386528d5181528d516020918201918f019080838360005b838110156117a457818101518382015260200161178c565b50505050905090810190601f1680156117d15780820380516001836020036101000a031916815260200191505b5088810385528c5181528c516020918201918e019080838360005b838110156118045781810151838201526020016117ec565b50505050905090810190601f1680156118315780820380516001836020036101000a031916815260200191505b5088810384528b5181528b516020918201918d019080838360005b8381101561186457818101518382015260200161184c565b50505050905090810190601f1680156118915780820380516001836020036101000a031916815260200191505b5088810383528a5181528a516020918201918c019080838360005b838110156118c45781810151838201526020016118ac565b50505050905090810190601f1680156118f15780820380516001836020036101000a031916815260200191505b5088810382528951815289516020918201918b019080838360005b8381101561192457818101518382015260200161190c565b50505050905090810190601f1680156119515780820380516001836020036101000a031916815260200191505b509e50505050505050505050505050505060405180910390f35b34801561197757600080fd5b506102f26004803603604081101561198e57600080fd5b8101906020810181356401000000008111156119a957600080fd5b8201836020820111156119bb57600080fd5b803590602001918460018302840111640100000000831117156119dd57600080fd5b91908080601f0160208091040260200160405190810160405280939291908181526020018383808284376000920191909152509295949360208101935035915050640100000000811115611a3057600080fd5b820183602082011115611a4257600080fd5b80359060200191846001830284011164010000000083111715611a6457600080fd5b91908080601f0160208091040260200160405190810160405280939291908181526020018383808284376000920191909152509295506145c1945050505050565b6060611aaf614f47565b601e846040518082805190602001908083835b60208310611ae15780518252601f199092019160209182019101611ac2565b518151600019602094850361010090810a820192831692199390931691909117909252949092019687526040805197889003820188208054610140601f6002600184161590990290960190911696909604938401839004909202880185019052610120870182815290955086945092859250840182828015611ba45780601f10611b7957610100808354040283529160200191611ba4565b820191906000526020600020905b815481529060010190602001808311611b8757829003601f168201915b50505050508152602001600182018054600181600116156101000203166002900480601f016020809104026020016040519081016040528092919081815260200182805460018160011615610100020316600290048015611c465780601f10611c1b57610100808354040283529160200191611c46565b820191906000526020600020905b815481529060010190602001808311611c2957829003601f168201915b5050509183525050600282810180546040805160206001841615610100026000190190931694909404601f81018390048302850183019091528084529381019390830182828015611cd85780601f10611cad57610100808354040283529160200191611cd8565b820191906000526020600020905b815481529060010190602001808311611cbb57829003601f168201915b505050918352505060038201805460408051602060026001851615610100026000190190941693909304601f8101849004840282018401909252818152938201939291830182828015611d6c5780601f10611d4157610100808354040283529160200191611d6c565b820191906000526020600020905b815481529060010190602001808311611d4f57829003601f168201915b505050918352505060048201805460408051602060026001851615610100026000190190941693909304601f8101849004840282018401909252818152938201939291830182828015611e005780601f10611dd557610100808354040283529160200191611e00565b820191906000526020600020905b815481529060010190602001808311611de357829003601f168201915b50505050508152602001600582015481526020016006820154815260200160078201805480602002602001604051908101604052809291908181526020016000905b8282101561228657600084815260209081902060408051600786029092018054600260018216156101009081026000190190921604601f81018690049095028401810190925260e0830184815292939092849290918491840182828015611eea5780601f10611ebf57610100808354040283529160200191611eea565b820191906000526020600020905b815481529060010190602001808311611ecd57829003601f168201915b50505050508152602001600182018054600181600116156101000203166002900480601f016020809104026020016040519081016040528092919081815260200182805460018160011615610100020316600290048015611f8c5780601f10611f6157610100808354040283529160200191611f8c565b820191906000526020600020905b815481529060010190602001808311611f6f57829003601f168201915b5050509183525050600282810180546040805160206001841615610100026000190190931694909404601f8101839004830285018301909152808452938101939083018282801561201e5780601f10611ff35761010080835404028352916020019161201e565b820191906000526020600020905b81548152906001019060200180831161200157829003601f168201915b505050918352505060038201805460408051602060026001851615610100026000190190941693909304601f81018490048402820184019092528181529382019392918301828280156120b25780601f10612087576101008083540402835291602001916120b2565b820191906000526020600020905b81548152906001019060200180831161209557829003601f168201915b505050918352505060048201805460408051602060026001851615610100026000190190941693909304601f81018490048402820184019092528181529382019392918301828280156121465780601f1061211b57610100808354040283529160200191612146565b820191906000526020600020905b81548152906001019060200180831161212957829003601f168201915b505050918352505060058201805460408051602060026001851615610100026000190190941693909304601f81018490048402820184019092528181529382019392918301828280156121da5780601f106121af576101008083540402835291602001916121da565b820191906000526020600020905b8154815290600101906020018083116121bd57829003601f168201915b505050918352505060068201805460408051602060026001851615610100026000190190941693909304601f810184900484028201840190925281815293820193929183018282801561226e5780601f106122435761010080835404028352916020019161226e565b820191906000526020600020905b81548152906001019060200180831161225157829003601f168201915b50505050508152505081526020019060010190611e42565b505050908252506008919091015460ff161515602090910152601b546004549192509084011115612387576040805180820190915260158082527f496e73756666696369656e742070726f6475637473000000000000000000000060209283019081526122f39291614f96565b506020805460408051601f6002600019610100600187161502019094169390930492830184900484028101840190915281815291908282018282801561237a5780601f1061234f5761010080835404028352916020019161237a565b820191906000526020600020905b81548152906001019060200180831161235d57829003601f168201915b5050505050915050612df5565b61010081015115156123ee576020805460408051601f6002600019610100600187161502019094169390930492830184900484028101840190915281815291908282018282801561237a5780601f1061234f5761010080835404028352916020019161237a565b6123fa60136000615014565b8051805161241091600c91602090910190614f96565b50602080820151805161242792600d920190614f96565b506040810151805161244191600e91602090910190614f96565b506060810151805161245b91600f91602090910190614f96565b506080810151805161247591601091602090910190614f96565b506014805460ff1916600117905560005b8160e00151518110156125c25761249b615038565b60e08301518051839081106124ac57fe5b6020908102909101810151601380546001810180835560009290925282518051939550919385936007929092027f66de8ffda797e3de9c05e8fc57b3bf0ec28a930d40b0d285d93c06501cf6a090019261250c9284929190910190614f96565b5060208281015180516125259260018501920190614f96565b5060408201518051612541916002840191602090910190614f96565b506060820151805161255d916003840191602090910190614f96565b5060808201518051612579916004840191602090910190614f96565b5060a08201518051612595916005840191602090910190614f96565b5060c082015180516125b1916006840191602090910190614f96565b505060019093019250612486915050565b5060005b83811015612bb0576125d6615038565b601b6004548154811015156125e757fe5b6000918252602091829020604080516007939093029091018054600260018216156101009081026000190190921604601f81018690049095028401810190925260e08301848152929390928492909184918401828280156126895780601f1061265e57610100808354040283529160200191612689565b820191906000526020600020905b81548152906001019060200180831161266c57829003601f168201915b50505050508152602001600182018054600181600116156101000203166002900480601f01602080910402602001604051908101604052809291908181526020018280546001816001161561010002031660029004801561272b5780601f106127005761010080835404028352916020019161272b565b820191906000526020600020905b81548152906001019060200180831161270e57829003601f168201915b5050509183525050600282810180546040805160206001841615610100026000190190931694909404601f810183900483028501830190915280845293810193908301828280156127bd5780601f10612792576101008083540402835291602001916127bd565b820191906000526020600020905b8154815290600101906020018083116127a057829003601f168201915b505050918352505060038201805460408051602060026001851615610100026000190190941693909304601f81018490048402820184019092528181529382019392918301828280156128515780601f1061282657610100808354040283529160200191612851565b820191906000526020600020905b81548152906001019060200180831161283457829003601f168201915b505050918352505060048201805460408051602060026001851615610100026000190190941693909304601f81018490048402820184019092528181529382019392918301828280156128e55780601f106128ba576101008083540402835291602001916128e5565b820191906000526020600020905b8154815290600101906020018083116128c857829003601f168201915b505050918352505060058201805460408051602060026001851615610100026000190190941693909304601f81018490048402820184019092528181529382019392918301828280156129795780601f1061294e57610100808354040283529160200191612979565b820191906000526020600020905b81548152906001019060200180831161295c57829003601f168201915b505050918352505060068201805460408051602060026001851615610100026000190190941693909304601f8101849004840282018401909252818152938201939291830182828015612a0d5780601f106129e257610100808354040283529160200191612a0d565b820191906000526020600020905b8154815290600101906020018083116129f057829003601f168201915b5050505050815250509050858160c0018190525085601f82600001516040518082805190602001908083835b60208310612a585780518252601f199092019160209182019101612a39565b51815160209384036101000a60001901801990921691161790529201948552506040519384900381019093208451612a9d956006909201949190910192509050614f96565b506004805460019081019091556013805491820180825560009190915282518051919284926007919091027f66de8ffda797e3de9c05e8fc57b3bf0ec28a930d40b0d285d93c06501cf6a0900191612afa91839160200190614f96565b506020828101518051612b139260018501920190614f96565b5060408201518051612b2f916002840191602090910190614f96565b5060608201518051612b4b916003840191602090910190614f96565b5060808201518051612b67916004840191602090910190614f96565b5060a08201518051612b83916005840191602090910190614f96565b5060c08201518051612b9f916006840191602090910190614f96565b5050600190930192506125c6915050565b50600c601e856040518082805190602001908083835b60208310612be55780518252601f199092019160209182019101612bc6565b6001836020036101000a038019825116818451168082178552505050505050905001915050908152602001604051809103902060008201816000019080546001816001161561010002031660029004612c3f929190615076565b5060018201816001019080546001816001161561010002031660029004612c67929190615076565b5060028281018054612c8c928481019291600019610100600183161502011604615076565b5060038201816003019080546001816001161561010002031660029004612cb4929190615076565b5060048201816004019080546001816001161561010002031660029004612cdc929190615076565b5060058201548160050155600682015481600601556007820181600701908054612d079291906150eb565b506008918201549101805460ff191660ff909216151591909117905560408051808201909152601c8082527f50726f647563746573204164646564207375636365737366756c6c79000000006020928301908152612d659291614f96565b506020805460408051601f60026000196101006001871615020190941693909304928301849004840281018401909152818152919082820182828015612dec5780601f10612dc157610100808354040283529160200191612dec565b820191906000526020600020905b815481529060010190602001808311612dcf57829003601f168201915b50505050509150505b92915050565b6000805460408051602060026001851615610100026000190190941693909304601f81018490048402820184019092528181529291830182828015612e815780601f10612e5657610100808354040283529160200191612e81565b820191906000526020600020905b815481529060010190602001808311612e6457829003601f168201915b505050505081565b6000601d826040518082805190602001908083835b60208310612ebd5780518252601f199092019160209182019101612e9e565b51815160209384036101000a6000190180199092169116179052920194855250604051938490030190922060040154949350505050565b6000601e826040518082805190602001908083835b60208310612f285780518252601f199092019160209182019101612f09565b51815160209384036101000a6000190180199092169116179052920194855250604051938490030190922060070154949350505050565b601c5481565b601c55565b60018054604080516020600284861615610100026000190190941693909304601f81018490048402820184019092528181529291830182828015612e815780601f10612e5657610100808354040283529160200191612e81565b8351612fd7906015906020870190614f96565b508251612feb906016906020860190614f96565b508151612fff906017906020850190614f96565b508051613013906018906020840190614f96565b5061302060196000615014565b6015601d856040518082805190602001908083835b602083106130545780518252601f199092019160209182019101613035565b6001836020036101000a0380198251168184511680821785525050505050509050019150509081526020016040518091039020600082018160000190805460018160011615610100020316600290046130ae929190615076565b50600182018160010190805460018160011615610100020316600290046130d6929190615076565b50600282810180546130fb928481019291600019610100600183161502011604615076565b5060038201816003019080546001816001161561010002031660029004613123929190615076565b506004828101805461313892840191906150eb565b50505050505050565b613149614f47565b505050505050565b613159615038565b87815260208082018890526040808301889052606083018790526080830186905260a0830185905260c083018490526002805460010190555189518392601f928c9290918291908401908083835b602083106131c65780518252601f1990920191602091820191016131a7565b51815160209384036101000a600019018019909216911617905292019485525060405193849003810190932084518051919461320794508593500190614f96565b5060208281015180516132209260018501920190614f96565b506040820151805161323c916002840191602090910190614f96565b5060608201518051613258916003840191602090910190614f96565b5060808201518051613274916004840191602090910190614f96565b5060a08201518051613290916005840191602090910190614f96565b5060c082015180516132ac916006840191602090910190614f96565b5050601b80546001810180835560009290925283518051929350849260079092027f3ad8aa4f87544323a9d1e5dd902f40c356527a7955687113db5f9a85ad579dc1019161330291839160209190910190614f96565b50602082810151805161331b9260018501920190614f96565b5060408201518051613337916002840191602090910190614f96565b5060608201518051613353916003840191602090910190614f96565b506080820151805161336f916004840191602090910190614f96565b5060a0820151805161338b916005840191602090910190614f96565b5060c082015180516133a7916006840191602090910190614f96565b505050505050505050505050565b606080601f836040518082805190602001908083835b602083106133ea5780518252601f1990920191602091820191016133cb565b6001836020036101000a0380198251168184511680821785525050505050509050019150509081526020016040518091039020600101601f846040518082805190602001908083835b602083106134525780518252601f199092019160209182019101613433565b518151600019602094850361010090810a820192831692199390931691909117909252949092019687526040805197889003820188208954601f6002600183161590980290950116959095049283018290048202880182019052818752600690930195945086935091840190508282801561350e5780601f106134e35761010080835404028352916020019161350e565b820191906000526020600020905b8154815290600101906020018083116134f157829003601f168201915b5050845460408051602060026001851615610100026000190190941693909304601f81018490048402820184019092528181529597508694509250840190508282801561359c5780601f106135715761010080835404028352916020019161359c565b820191906000526020600020905b81548152906001019060200180831161357f57829003601f168201915b5050505050905091509150915091565b600454600254035b90565b6060806060600360016000828054600181600116156101000203166002900480601f0160208091040260200160405190810160405280929190818152602001828054600181600116156101000203166002900480156136575780601f1061362c57610100808354040283529160200191613657565b820191906000526020600020905b81548152906001019060200180831161363a57829003601f168201915b5050855460408051602060026001851615610100026000190190941693909304601f8101849004840282018401909252818152959850879450925084019050828280156136e55780601f106136ba576101008083540402835291602001916136e5565b820191906000526020600020905b8154815290600101906020018083116136c857829003601f168201915b5050845460408051602060026001851615610100026000190190941693909304601f8101849004840282018401909252818152959750869450925084019050828280156137735780601f1061374857610100808354040283529160200191613773565b820191906000526020600020905b81548152906001019060200180831161375657829003601f168201915b50505050509050925092509250909192565b8251613798906003906020860190614f96565b5081516137ac906001906020850190614f96565b5080516137c0906000906020840190614f96565b50505050565b60006060601f846040518082805190602001908083835b602083106137fc5780518252601f1990920191602091820191016137dd565b518151600019602094850361010090810a820192831692199390931691909117909252949092019687526040805197889003820188206006018054601f60026001831615909802909501169590950492830182900482028801820190528187529294509250508301828280156138b35780601f10613888576101008083540402835291602001916138b3565b820191906000526020600020905b81548152906001019060200180831161389657829003601f168201915b50505050509050826040516020018082805190602001908083835b602083106138ed5780518252601f1990920191602091820191016138ce565b6001836020036101000a03801982511681845116808217855250505050505090500191505060405160208183030381529060405280519060200120816040516020018082805190602001908083835b6020831061395b5780518252601f19909201916020918201910161393c565b6001836020036101000a038019825116818451168082178552505050505050905001915050604051602081830303815290604052805190602001201491505092915050565b60608060608060606000601e876040518082805190602001908083835b602083106139dc5780518252601f1990920191602091820191016139bd565b51815160209384036101000a600019018019909216911617905292019485525060405193849003810184208b519094601e94508c9350918291908401908083835b60208310613a3c5780518252601f199092019160209182019101613a1d565b6001836020036101000a0380198251168184511680821785525050505050509050019150509081526020016040518091039020600101601e896040518082805190602001908083835b60208310613aa45780518252601f199092019160209182019101613a85565b6001836020036101000a0380198251168184511680821785525050505050509050019150509081526020016040518091039020600201601e8a6040518082805190602001908083835b60208310613b0c5780518252601f199092019160209182019101613aed565b6001836020036101000a0380198251168184511680821785525050505050509050019150509081526020016040518091039020600301601e8b6040518082805190602001908083835b60208310613b745780518252601f199092019160209182019101613b55565b6001836020036101000a0380198251168184511680821785525050505050509050019150509081526020016040518091039020600401601e8c6040518082805190602001908083835b60208310613bdc5780518252601f199092019160209182019101613bbd565b518151600019602094850361010090810a82019283169219939093169190911790925294909201968752604080519788900382018820600701548d54601f6002600183161590980290950116959095049283018290048202880182019052818752929594508a9350918401905082828015613c985780601f10613c6d57610100808354040283529160200191613c98565b820191906000526020600020905b815481529060010190602001808311613c7b57829003601f168201915b5050885460408051602060026001851615610100026000190190941693909304601f8101849004840282018401909252818152959b508a945092508401905082828015613d265780601f10613cfb57610100808354040283529160200191613d26565b820191906000526020600020905b815481529060010190602001808311613d0957829003601f168201915b5050875460408051602060026001851615610100026000190190941693909304601f8101849004840282018401909252818152959a5089945092508401905082828015613db45780601f10613d8957610100808354040283529160200191613db4565b820191906000526020600020905b815481529060010190602001808311613d9757829003601f168201915b5050865460408051602060026001851615610100026000190190941693909304601f810184900484028201840190925281815295995088945092508401905082828015613e425780601f10613e1757610100808354040283529160200191613e42565b820191906000526020600020905b815481529060010190602001808311613e2557829003601f168201915b5050855460408051602060026001851615610100026000190190941693909304601f810184900484028201840190925281815295985087945092508401905082828015613ed05780601f10613ea557610100808354040283529160200191613ed0565b820191906000526020600020905b815481529060010190602001808311613eb357829003601f168201915b5050505050915095509550955095509550955091939550919395565b6060806060806060806060601f886040518082805190602001908083835b60208310613f295780518252601f199092019160209182019101613f0a565b51815160209384036101000a600019018019909216911617905292019485525060405193849003810184208c519094601f94508d9350918291908401908083835b60208310613f895780518252601f199092019160209182019101613f6a565b6001836020036101000a0380198251168184511680821785525050505050509050019150509081526020016040518091039020600101601f8a6040518082805190602001908083835b60208310613ff15780518252601f199092019160209182019101613fd2565b6001836020036101000a0380198251168184511680821785525050505050509050019150509081526020016040518091039020600601601f8b6040518082805190602001908083835b602083106140595780518252601f19909201916020918201910161403a565b6001836020036101000a0380198251168184511680821785525050505050509050019150509081526020016040518091039020600201601f8c6040518082805190602001908083835b602083106140c15780518252601f1990920191602091820191016140a2565b6001836020036101000a0380198251168184511680821785525050505050509050019150509081526020016040518091039020600301601f8d6040518082805190602001908083835b602083106141295780518252601f19909201916020918201910161410a565b6001836020036101000a0380198251168184511680821785525050505050509050019150509081526020016040518091039020600401601f8e6040518082805190602001908083835b602083106141915780518252601f199092019160209182019101614172565b518151600019602094850361010090810a820192831692199390931691909117909252949092019687526040805197889003820188208e54601f600260018316159098029095011695909504928301829004820288018201905281875260059093019594508b935091840190508282801561424d5780601f106142225761010080835404028352916020019161424d565b820191906000526020600020905b81548152906001019060200180831161423057829003601f168201915b5050895460408051602060026001851615610100026000190190941693909304601f8101849004840282018401909252818152959c508b9450925084019050828280156142db5780601f106142b0576101008083540402835291602001916142db565b820191906000526020600020905b8154815290600101906020018083116142be57829003601f168201915b5050885460408051602060026001851615610100026000190190941693909304601f8101849004840282018401909252818152959b508a9450925084019050828280156143695780601f1061433e57610100808354040283529160200191614369565b820191906000526020600020905b81548152906001019060200180831161434c57829003601f168201915b5050875460408051602060026001851615610100026000190190941693909304601f8101849004840282018401909252818152959a50899450925084019050828280156143f75780601f106143cc576101008083540402835291602001916143f7565b820191906000526020600020905b8154815290600101906020018083116143da57829003601f168201915b5050865460408051602060026001851615610100026000190190941693909304601f8101849004840282018401909252818152959950889450925084019050828280156144855780601f1061445a57610100808354040283529160200191614485565b820191906000526020600020905b81548152906001019060200180831161446857829003601f168201915b5050855460408051602060026001851615610100026000190190941693909304601f8101849004840282018401909252818152959850879450925084019050828280156145135780601f106144e857610100808354040283529160200191614513565b820191906000526020600020905b8154815290600101906020018083116144f657829003601f168201915b5050845460408051602060026001851615610100026000190190941693909304601f8101849004840282018401909252818152959750869450925084019050828280156145a15780601f10614576576101008083540402835291602001916145a1565b820191906000526020600020905b81548152906001019060200180831161458457829003601f168201915b505050505090509650965096509650965096509650919395979092949650565b60006145ce601382615014565b601e836040518082805190602001908083835b602083106146005780518252601f1990920191602091820191016145e1565b6001836020036101000a0380198251168184511680821785525050505050509050019150509081526020016040518091039020600c6000820181600001908054600181600116156101000203166002900461465c929190615076565b5060018201816001019080546001816001161561010002031660029004614684929190615076565b50600282810180546146a9928481019291600019610100600183161502011604615076565b50600382018160030190805460018160011615610100020316600290046146d1929190615076565b50600482018160040190805460018160011615610100020316600290046146f9929190615076565b50600582015481600501556006820154816006015560078201816007019080546147249291906150eb565b506008918201549101805460ff191660ff928316151517905560145416151561474f57506000612df5565b61475b60196000615014565b601d826040518082805190602001908083835b6020831061478d5780518252601f19909201916020918201910161476e565b6001836020036101000a03801982511681845116808217855250505050505090500191505090815260200160405180910390206015600082018160000190805460018160011615610100020316600290046147e9929190615076565b5060018201816001019080546001816001161561010002031660029004614811929190615076565b5060028281018054614836928481019291600019610100600183161502011604615076565b506003820181600301908054600181600116156101000203166002900461485e929190615076565b506004828101805461487392840191906150eb565b505060138054909150600090811061488757fe5b90600052602060002090600702016005600082018160000190805460018160011615610100020316600290046148be929190615076565b50600182018160010190805460018160011615610100020316600290046148e6929190615076565b506002828101805461490b928481019291600019610100600183161502011604615076565b5060038201816003019080546001816001161561010002031660029004614933929190615076565b506004820181600401908054600181600116156101000203166002900461495b929190615076565b5060058201816005019080546001816001161561010002031660029004614983929190615076565b50600682018160060190805460018160011615610100020316600290046149ab929190615076565b5060009150505b60135460001901811015614b1e5760138054600183019081106149d157fe5b9060005260206000209060070201600c600701828154811015156149f157fe5b906000526020600020906007020160008201816000019080546001816001161561010002031660029004614a26929190615076565b5060018201816001019080546001816001161561010002031660029004614a4e929190615076565b5060028281018054614a73928481019291600019610100600183161502011604615076565b5060038201816003019080546001816001161561010002031660029004614a9b929190615076565b5060048201816004019080546001816001161561010002031660029004614ac3929190615076565b5060058201816005019080546001816001161561010002031660029004614aeb929190615076565b5060068201816006019080546001816001161561010002031660029004614b13929190615076565b5050506001016149b2565b5060138054801515614b2c57fe5b60008281526020812060001990920191600783020190614b4c828261524f565b614b5a60018301600061524f565b614b6860028301600061524f565b614b7660038301600061524f565b614b8460048301600061524f565b614b9260058301600061524f565b614ba060068301600061524f565b50509055600c601e846040518082805190602001908083835b60208310614bd85780518252601f199092019160209182019101614bb9565b6001836020036101000a038019825116818451168082178552505050505050905001915050908152602001604051809103902060008201816000019080546001816001161561010002031660029004614c32929190615076565b5060018201816001019080546001816001161561010002031660029004614c5a929190615076565b5060028281018054614c7f928481019291600019610100600183161502011604615076565b5060038201816003019080546001816001161561010002031660029004614ca7929190615076565b5060048201816004019080546001816001161561010002031660029004614ccf929190615076565b5060058201548160050155600682015481600601556007820181600701908054614cfa9291906150eb565b506008918201549101805460ff191660ff9092161515919091179055604051600580548492601f929181908390600261010060018316150260001901909116048015614d7d5780601f10614d5b576101008083540402835291820191614d7d565b820191906000526020600020905b815481529060010190602001808311614d69575b505091505090815260200160405180910390206006019080519060200190614da6929190614f96565b50601d826040518082805190602001908083835b60208310614dd95780518252601f199092019160209182019101614dba565b518151602093840361010090810a600019908101801990941693909216929092179092529290940196875260405196879003810190962060040180546001808201808455600093845298909220600580549098506007909202019550614e4d94869450879360029383161502011604615076565b5060018201816001019080546001816001161561010002031660029004614e75929190615076565b5060028281018054614e9a928481019291600019610100600183161502011604615076565b5060038201816003019080546001816001161561010002031660029004614ec2929190615076565b5060048201816004019080546001816001161561010002031660029004614eea929190615076565b5060058201816005019080546001816001161561010002031660029004614f12929190615076565b5060068201816006019080546001816001161561010002031660029004614f3a929190615076565b5060019695505050505050565b6101206040519081016040528060608152602001606081526020016060815260200160608152602001606081526020016000815260200160008152602001606081526020016000151581525090565b828054600181600116156101000203166002900490600052602060002090601f016020900481019282601f10614fd757805160ff1916838001178555615004565b82800160010185558215615004579182015b82811115615004578251825591602001919060010190614fe9565b5061501092915061528f565b5090565b508054600082556007029060005260206000209081019061503591906152a9565b50565b60e060405190810160405280606081526020016060815260200160608152602001606081526020016060815260200160608152602001606081525090565b828054600181600116156101000203166002900490600052602060002090601f016020900481019282601f106150af5780548555615004565b8280016001018555821561500457600052602060002091601f016020900482015b828111156150045782548255916001019190600101906150d0565b8280548282559060005260206000209060070281019282156152435760005260206000209160070282015b8281111561524357825483908390615144908290849060026000196101006001841615020190911604615076565b506001820181600101908054600181600116156101000203166002900461516c929190615076565b5060028281018054615191928481019291600019610100600183161502011604615076565b50600382018160030190805460018160011615610100020316600290046151b9929190615076565b50600482018160040190805460018160011615610100020316600290046151e1929190615076565b5060058201816005019080546001816001161561010002031660029004615209929190615076565b5060068201816006019080546001816001161561010002031660029004615231929190615076565b50505091600701919060070190615116565b506150109291506152a9565b50805460018160011615610100020316600290046000825580601f106152755750615035565b601f01602090049060005260206000209081019061503591905b6135b491905b808211156150105760008155600101615295565b6135b491905b808211156150105760006152c3828261524f565b6152d160018301600061524f565b6152df60028301600061524f565b6152ed60038301600061524f565b6152fb60048301600061524f565b61530960058301600061524f565b61531760068301600061524f565b506007016152af56fea165627a7a7230582029ae712fe2e65750edb0ea24125e69088cb8a6f374482a68ea724bf5a33d78e40029",
  "source": "// SPDX-License-Identifier: MIT\r\npragma solidity >=0.4.22 <0.9.0;\r\n\r\ncontract BlockFeit {\r\n    // product structure\r\n    struct Product {\r\n        string id;\r\n        string name;\r\n        string width;\r\n        string height;\r\n        string time_stamp;\r\n        string batch;\r\n        string ownwer;\r\n    }\r\n\r\n    // Customer/User structure\r\n    struct Customer {\r\n        string id;\r\n        string name;\r\n        string phone_no;\r\n        string email;\r\n        Product[] purchesed;\r\n    }\r\n\r\n    // Retailer\r\n    struct Retailer {\r\n        string id;\r\n        string name;\r\n        string phone_no;\r\n        string email;\r\n        string location;\r\n        uint256 remaining;\r\n        uint256 sold;\r\n        Product[] available;\r\n        bool present;\r\n    }\r\n\r\n    // manufacturer Details\r\n    string public brand;\r\n    string public location;\r\n    uint256 total_manufacturered;\r\n    string private manufacturer;\r\n\r\n    // Contract variables\r\n    uint256 indx;\r\n    Product tempProduct;\r\n    Retailer tempRetailer;\r\n    Customer tempCustomer;\r\n    Product[] tempProducts;\r\n    Product[] manufacturered;\r\n\r\n    uint256 public val = 10;\r\n\r\n    function setVal(uint256 _x) public {\r\n        val = _x;\r\n    }\r\n\r\n    // mapping\r\n    mapping(string => Customer) customers;\r\n    mapping(string => Retailer) retailers;\r\n    mapping(string => Product) productMapping;\r\n\r\n    // initialize Contract\r\n    constructor() public {\r\n        total_manufacturered = 0;\r\n        indx = 0;\r\n    }\r\n\r\n    /*\r\n        this fuction set manufacturer into system\r\n        @params= _manufacturer name, location, brand\r\n    */\r\n    function addManufacturer(\r\n        string memory _manufacturer,\r\n        string memory _location,\r\n        string memory _brand\r\n    ) public {\r\n        manufacturer = _manufacturer;\r\n        location = _location;\r\n        brand = _brand;\r\n    }\r\n\r\n    function getManufacture()\r\n        public\r\n        view\r\n        returns (\r\n            string memory,\r\n            string memory,\r\n            string memory\r\n        )\r\n    {\r\n        return (manufacturer, location, brand);\r\n    }\r\n\r\n    /*\r\n        This function add Vendor/ Retailer into system\r\n        Expects Retailer details as parameters\r\n        @params= id, name, phone_no, email, location\r\n    */\r\n    function addRetailer(\r\n        string memory _id,\r\n        string memory _name,\r\n        string memory _phone_no,\r\n        string memory _email,\r\n        string memory _location\r\n    ) public {\r\n        Retailer memory _tempRetailer;\r\n        //Product memory product;\r\n\r\n        /*\r\n    struct Retailer {\r\n        string id;\r\n        string name;\r\n        string phone_no;\r\n        string email;\r\n        string location;\r\n        uint256 remaining;\r\n        uint256 sold;\r\n        Product[] available;\r\n        bool present;\r\n    }\r\n\r\n        */\r\n\r\n        /*_tempRetailer.id = _id;\r\n        _tempRetailer.name = _name;\r\n        _tempRetailer.phone_no = _phone_no;\r\n        _tempRetailer.email = _email;\r\n        _tempRetailer.location = _location;\r\n        _tempRetailer.present = true;\r\n        _tempRetailer.sold = 0;\r\n        retailers[_id] = _tempRetailer;*/\r\n    }\r\n\r\n    /*\r\n        This function add Customer/user into system\r\n        Expects Customer details as parameters\r\n        @params= id, name, phone_no, email\r\n    */\r\n    function addCustomer(\r\n        string memory _id,\r\n        string memory _name,\r\n        string memory _phone_no,\r\n        string memory _email\r\n    ) public {\r\n        tempCustomer.id = _id;\r\n        tempCustomer.name = _name;\r\n        tempCustomer.phone_no = _phone_no;\r\n        tempCustomer.email = _email;\r\n        delete tempCustomer.purchesed;\r\n        customers[_id] = tempCustomer;\r\n    }\r\n\r\n    /*\r\n        This function sells product to Vendor/Retailer by manufacturer\r\n        Expects Retailer id and Quantity as parameters\r\n        @params= _id, _quantity \r\n    */\r\n    string MSG = \"Retailer Does not Exist\";\r\n\r\n    function sellProductsToRetailer(string memory _id, uint256 _quantity)\r\n        public\r\n        returns (string memory)\r\n    {\r\n        Retailer memory retailer = retailers[_id];\r\n        if ((_quantity + indx) > manufacturered.length) {\r\n            MSG = \"Insufficient products\";\r\n            return (MSG);\r\n        } else if (retailer.present == false) {\r\n            return (MSG);\r\n        }\r\n\r\n        delete tempRetailer.available;\r\n\r\n        tempRetailer.id = retailer.id;\r\n        tempRetailer.name = retailer.name;\r\n        tempRetailer.phone_no = retailer.phone_no;\r\n        tempRetailer.email = retailer.email;\r\n        tempRetailer.location = retailer.location;\r\n        tempRetailer.present = true;\r\n\r\n        for (uint256 tt = 0; tt < retailer.available.length; tt++) {\r\n            Product memory p = retailer.available[tt];\r\n            tempRetailer.available.push(p);\r\n        }\r\n\r\n        for (uint256 i = 0; i < _quantity; i++) {\r\n            // Product memory present = retailer.available[i];\r\n            Product memory present = manufacturered[indx];\r\n            present.ownwer = _id;\r\n            productMapping[present.id].ownwer = _id;\r\n            indx++;\r\n            tempRetailer.available.push(present);\r\n        }\r\n        retailers[_id] = tempRetailer;\r\n        MSG = \"Productes Added successfully\";\r\n        return MSG;\r\n    }\r\n\r\n    /*\r\n        This function sells product to Customer  by Vendor/Retailer \r\n        Expects Retailer id and customer_id as parameters\r\n        @params= _seller_id, _customer_id\r\n    */\r\n    function sellProductToCustomer(\r\n        string memory _seller_id,\r\n        string memory _customer_id\r\n    ) public returns (uint256) {\r\n        delete tempRetailer.available;\r\n        tempRetailer = retailers[_seller_id];\r\n\r\n        if (tempRetailer.present == false) return (0);\r\n\r\n        delete tempCustomer.purchesed;\r\n        tempCustomer = customers[_customer_id];\r\n\r\n        tempProduct = tempRetailer.available[0];\r\n\r\n        for (uint256 i = 0; i < tempRetailer.available.length - 1; i++) {\r\n            tempRetailer.available[i] = tempRetailer.available[i + 1];\r\n        }\r\n\r\n        tempRetailer.available.pop();\r\n        retailers[_seller_id] = tempRetailer;\r\n        productMapping[tempProduct.id].ownwer = _customer_id;\r\n        customers[_customer_id].purchesed.push(tempProduct);\r\n\r\n        return 1;\r\n    }\r\n\r\n    /*\r\n        This function add product into system\r\n        Expects product details as parameters\r\n        @params= id, name, width, height, time_stamp, batch, owner\r\n    */\r\n    function addProduct(\r\n        string memory _id,\r\n        string memory _name,\r\n        string memory _width,\r\n        string memory _height,\r\n        string memory _time_stamp,\r\n        string memory _batch,\r\n        string memory _owner\r\n    ) public {\r\n        Product memory product;\r\n        product.id = _id;\r\n        product.name = _name;\r\n        product.width = _width;\r\n        product.height = _height;\r\n        product.time_stamp = _time_stamp;\r\n        product.batch = _batch;\r\n        product.ownwer = _owner;\r\n\r\n        total_manufacturered++;\r\n        productMapping[_id] = product;\r\n        manufacturered.push(product);\r\n    }\r\n\r\n    /*\r\n        @params : product id\r\n        returns product info\r\n        id, owner, name, width, height, time_stamp, batch\r\n    */\r\n    function getProductDetail(string memory _product_id)\r\n        public\r\n        view\r\n        returns (\r\n            string memory,\r\n            string memory,\r\n            string memory,\r\n            string memory,\r\n            string memory,\r\n            string memory,\r\n            string memory\r\n        )\r\n    {\r\n        return (\r\n            productMapping[_product_id].id,\r\n            productMapping[_product_id].name,\r\n            productMapping[_product_id].ownwer,\r\n            productMapping[_product_id].width,\r\n            productMapping[_product_id].height,\r\n            productMapping[_product_id].time_stamp,\r\n            productMapping[_product_id].batch\r\n        );\r\n    }\r\n\r\n    /*\r\n        Function name : getRetailerProductCount\r\n        @params : retailer_id\r\n        returns how many products are availabe to vendor\r\n    */\r\n    function getRetailerProductCount(string memory _retailer_id)\r\n        public\r\n        view\r\n        returns (uint256)\r\n    {\r\n        return (retailers[_retailer_id].available.length);\r\n    }\r\n\r\n    /*\r\n        Function name : getCustomerProductCount\r\n        @params : customer_id\r\n        returns how many products purched by customer\r\n    */\r\n    function getCustomerProductCount(string memory _customer_id)\r\n        public\r\n        view\r\n        returns (uint256)\r\n    {\r\n        return (customers[_customer_id].purchesed.length);\r\n    }\r\n\r\n    /*\r\n        Function name : getManufacturerCount\r\n        @params :none\r\n        returns how many products availabe to manufacturer\r\n    */\r\n    function getManufacturerCount() public view returns (uint256) {\r\n        return (total_manufacturered - indx);\r\n    }\r\n\r\n    /*\r\n        function name : getRetailerDetails\r\n        @params : retailer_id\r\n        returns retailer info\r\n        like : id, name, phone_no, email, location, products available\r\n    */\r\n    function getRetailerDetails(string memory retailer_id)\r\n        public\r\n        view\r\n        returns (\r\n            string memory,\r\n            string memory,\r\n            string memory,\r\n            string memory,\r\n            string memory,\r\n            uint256\r\n        )\r\n    {\r\n        return (\r\n            retailers[retailer_id].id,\r\n            retailers[retailer_id].name,\r\n            retailers[retailer_id].phone_no,\r\n            retailers[retailer_id].email,\r\n            retailers[retailer_id].location,\r\n            retailers[retailer_id].available.length\r\n        );\r\n    }\r\n\r\n    /*\r\n       fuction name: getOwnerOfProduct\r\n        Expected product_id as parameters\r\n        @params= product_id\r\n        returns product name and product owner\r\n\r\n    */\r\n\r\n    function getOwnerOfProduct(string memory product_id)\r\n        public\r\n        view\r\n        returns (string memory, string memory)\r\n    {\r\n        return (\r\n            productMapping[product_id].name,\r\n            productMapping[product_id].ownwer\r\n        );\r\n    }\r\n\r\n    /*\r\n        This function verify ownership of produt\r\n        Expected product id, owner id ad parameters\r\n        @params= product_id, owner_id\r\n        returns Boolean value if ownership matched with product owner\r\n    */\r\n    function verifyOwnership(string memory product_id, string memory owner_id)\r\n        public\r\n        view\r\n        returns (bool)\r\n    {\r\n        string memory owner = productMapping[product_id].ownwer;\r\n        return (keccak256(abi.encodePacked((owner))) ==\r\n            keccak256(abi.encodePacked((owner_id))));\r\n    }\r\n}\r\n",
  "sourcePath": "C:/Users/dell/BlockFeit-BE-project/Back-End/contracts/BlockFeit.sol",
  "compiler": {
    "name": "solc",
    "version": "0.5.0+commit.1d4f565a.Emscripten.clang"
  },
  "schemaVersion": "3.0.1",
  "updatedAt": "2022-03-09T06:45:24.457Z",
  "devdoc": {
    "methods": {}
  },
  "userdoc": {
    "methods": {}
  }
}