{
  "contractName": "BlockFeit",
  "abi": [
    {
      "constant": false,
      "inputs": [
        {
          "name": "product_id",
          "type": "string"
        },
        {
          "name": "new_seller",
          "type": "string"
        }
      ],
      "name": "addProduct",
      "outputs": [],
      "payable": false,
      "stateMutability": "nonpayable",
      "type": "function",
      "signature": "0xca2efb55"
    },
    {
      "constant": false,
      "inputs": [
        {
          "name": "product_id",
          "type": "string"
        },
        {
          "name": "new_seller",
          "type": "string"
        }
      ],
      "name": "sellProduct",
      "outputs": [],
      "payable": false,
      "stateMutability": "nonpayable",
      "type": "function",
      "signature": "0x66223e51"
    },
    {
      "constant": true,
      "inputs": [
        {
          "name": "product_id",
          "type": "string"
        }
      ],
      "name": "getOwnerOfProduct",
      "outputs": [
        {
          "name": "",
          "type": "string"
        },
        {
          "name": "",
          "type": "string"
        }
      ],
      "payable": false,
      "stateMutability": "view",
      "type": "function",
      "signature": "0x9fd42e64"
    },
    {
      "constant": true,
      "inputs": [
        {
          "name": "product_id",
          "type": "string"
        },
        {
          "name": "owner_id",
          "type": "string"
        }
      ],
      "name": "verifyOwnership",
      "outputs": [
        {
          "name": "",
          "type": "bool"
        }
      ],
      "payable": false,
      "stateMutability": "view",
      "type": "function",
      "signature": "0xc196b082"
    }
  ],
  "bytecode": "0x608060405234801561001057600080fd5b50610896806100206000396000f3fe6080604052600436106100615763ffffffff7c010000000000000000000000000000000000000000000000000000000060003504166366223e5181146100665780639fd42e64146101a2578063c196b08214610333578063ca2efb5514610066575b600080fd5b34801561007257600080fd5b506101a06004803603604081101561008957600080fd5b8101906020810181356401000000008111156100a457600080fd5b8201836020820111156100b657600080fd5b803590602001918460018302840111640100000000831117156100d857600080fd5b91908080601f016020809104026020016040519081016040528093929190818152602001838380828437600092019190915250929594936020810193503591505064010000000081111561012b57600080fd5b82018360208201111561013d57600080fd5b8035906020019184600183028401116401000000008311171561015f57600080fd5b91908080601f016020809104026020016040519081016040528093929190818152602001838380828437600092019190915250929550610481945050505050565b005b3480156101ae57600080fd5b50610255600480360360208110156101c557600080fd5b8101906020810181356401000000008111156101e057600080fd5b8201836020820111156101f257600080fd5b8035906020019184600183028401116401000000008311171561021457600080fd5b91908080601f0160208091040260200160405190810160405280939291908181526020018383808284376000920191909152509295506104fa945050505050565b604051808060200180602001838103835285818151815260200191508051906020019080838360005b8381101561029657818101518382015260200161027e565b50505050905090810190601f1680156102c35780820380516001836020036101000a031916815260200191505b50838103825284518152845160209182019186019080838360005b838110156102f65781810151838201526020016102de565b50505050905090810190601f1680156103235780820380516001836020036101000a031916815260200191505b5094505050505060405180910390f35b34801561033f57600080fd5b5061046d6004803603604081101561035657600080fd5b81019060208101813564010000000081111561037157600080fd5b82018360208201111561038357600080fd5b803590602001918460018302840111640100000000831117156103a557600080fd5b91908080601f01602080910402602001604051908101604052809392919081815260200183838082843760009201919091525092959493602081019350359150506401000000008111156103f857600080fd5b82018360208201111561040a57600080fd5b8035906020019184600183028401116401000000008311171561042c57600080fd5b91908080601f0160208091040260200160405190810160405280939291908181526020018383808284376000920191909152509295506105f8945050505050565b604080519115158252519081900360200190f35b806000836040518082805190602001908083835b602083106104b45780518252601f199092019160209182019101610495565b51815160209384036101000a600019018019909216911617905292019485525060405193849003810190932084516104f595919491909101925090506107cf565b505050565b606080826000846040518082805190602001908083835b602083106105305780518252601f199092019160209182019101610511565b518151600019602094850361010090810a820192831692199390931691909117909252949092019687526040805197889003820188208054601f6002600183161590980290950116959095049283018290048202880182019052818752929594508593509184019050828280156105e85780601f106105bd576101008083540402835291602001916105e8565b820191906000526020600020905b8154815290600101906020018083116105cb57829003601f168201915b5050505050905091509150915091565b600060606000846040518082805190602001908083835b6020831061062e5780518252601f19909201916020918201910161060f565b518151600019602094850361010090810a820192831692199390931691909117909252949092019687526040805197889003820188208054601f60026001831615909802909501169590950492830182900482028801820190528187529294509250508301828280156106e25780601f106106b7576101008083540402835291602001916106e2565b820191906000526020600020905b8154815290600101906020018083116106c557829003601f168201915b50505050509050826040516020018082805190602001908083835b6020831061071c5780518252601f1990920191602091820191016106fd565b6001836020036101000a03801982511681845116808217855250505050505090500191505060405160208183030381529060405280519060200120816040516020018082805190602001908083835b6020831061078a5780518252601f19909201916020918201910161076b565b6001836020036101000a038019825116818451168082178552505050505050905001915050604051602081830303815290604052805190602001201491505092915050565b828054600181600116156101000203166002900490600052602060002090601f016020900481019282601f1061081057805160ff191683800117855561083d565b8280016001018555821561083d579182015b8281111561083d578251825591602001919060010190610822565b5061084992915061084d565b5090565b61086791905b808211156108495760008155600101610853565b9056fea165627a7a72305820aa3fd8ddc946cf263b93179452e3faea86aa53d7c9f9a0934e8387d79192fa4a0029",
  "source": "// SPDX-License-Identifier: MIT\r\npragma solidity >=0.4.22 <0.9.0;\r\n\r\ncontract BlockFeit {\r\n    \r\n    mapping(string => string) productMapping;\r\n\r\n    function addProduct( string memory product_id, string memory new_seller ) public {\r\n       \r\n        productMapping[product_id] = new_seller;    \r\n    }\r\n\r\n    function sellProduct(string memory product_id, string memory new_seller) public{\r\n\r\n        productMapping[product_id] = new_seller;\r\n    }\r\n\r\n    function getOwnerOfProduct(string memory product_id)\r\n        public\r\n        view\r\n        returns (string memory, string memory)\r\n    {\r\n        return ( product_id, productMapping[product_id]);\r\n    }\r\n\r\n    /*\r\n        This function verify ownership of produt\r\n        Expected product id, owner id ad parameters\r\n        @params= product_id, owner_id\r\n        returns Boolean value if ownership matched with product owner\r\n    */\r\n    function verifyOwnership(string memory product_id, string memory owner_id)\r\n        public\r\n        view\r\n        returns (bool)\r\n    {\r\n        string memory owner = productMapping[product_id];\r\n        return (keccak256(abi.encodePacked((owner))) ==\r\n            keccak256(abi.encodePacked((owner_id))));\r\n    }\r\n}\r\n",
  "sourcePath": "D:/BE-project/BlockFeit-BE-project/Back-End/contracts/BlockFeit.sol",
  "compiler": {
    "name": "solc",
    "version": "0.5.0+commit.1d4f565a.Emscripten.clang"
  },
  "schemaVersion": "3.0.1",
  "updatedAt": "2022-04-14T07:14:43.554Z",
  "devdoc": {
    "methods": {}
  },
  "userdoc": {
    "methods": {}
  }
}