{
  "contractName": "BlockFeit",
  "abi": [
    {
      "constant": true,
      "inputs": [],
      "name": "temp",
      "outputs": [
        {
          "name": "",
          "type": "uint256"
        }
      ],
      "payable": false,
      "stateMutability": "view",
      "type": "function",
      "signature": "0x673402e5"
    }
  ],
  "bytecode": "0x608060405260008055348015601357600080fd5b506099806100226000396000f3fe608060405260043610603e5763ffffffff7c0100000000000000000000000000000000000000000000000000000000600035041663673402e581146043575b600080fd5b348015604e57600080fd5b5060556067565b60408051918252519081900360200190f35b6000548156fea165627a7a723058201bbeb5b371006416051b48fb214da3819ce4672014bfac19d34c427a060455160029",
  "source": "// SPDX-License-Identifier: MIT\r\npragma solidity >=0.4.22 <0.9.0;\r\n\r\ncontract BlockFeit {\r\n\r\n    uint public temp = 0;\r\n\r\n} \r\n\r\n\r\n",
  "sourcePath": "D:/BE-project/BlockFeit-BE-project/Back-End/contracts/BlockFeit.sol",
  "compiler": {
    "name": "solc",
    "version": "0.5.0+commit.1d4f565a.Emscripten.clang"
  },
  "schemaVersion": "3.0.1",
  "updatedAt": "2022-01-22T16:44:40.730Z",
  "devdoc": {
    "methods": {}
  },
  "userdoc": {
    "methods": {}
  }
}